{
  "_format": "hh-sol-artifact-1",
  "contractName": "LoxoHolders",
  "sourceName": "contracts/LoxoHolders.sol",
  "abi": [
    {
      "inputs": [
        {
          "internalType": "uint256",
          "name": "_maxSupply",
          "type": "uint256"
        },
        {
          "internalType": "uint256",
          "name": "_nftPrice",
          "type": "uint256"
        }
      ],
      "stateMutability": "nonpayable",
      "type": "constructor"
    },
    {
      "anonymous": false,
      "inputs": [
        {
          "indexed": true,
          "internalType": "address",
          "name": "owner",
          "type": "address"
        },
        {
          "indexed": true,
          "internalType": "address",
          "name": "approved",
          "type": "address"
        },
        {
          "indexed": true,
          "internalType": "uint256",
          "name": "tokenId",
          "type": "uint256"
        }
      ],
      "name": "Approval",
      "type": "event"
    },
    {
      "anonymous": false,
      "inputs": [
        {
          "indexed": true,
          "internalType": "address",
          "name": "owner",
          "type": "address"
        },
        {
          "indexed": true,
          "internalType": "address",
          "name": "operator",
          "type": "address"
        },
        {
          "indexed": false,
          "internalType": "bool",
          "name": "approved",
          "type": "bool"
        }
      ],
      "name": "ApprovalForAll",
      "type": "event"
    },
    {
      "anonymous": false,
      "inputs": [
        {
          "indexed": true,
          "internalType": "address",
          "name": "previousOwner",
          "type": "address"
        },
        {
          "indexed": true,
          "internalType": "address",
          "name": "newOwner",
          "type": "address"
        }
      ],
      "name": "OwnershipTransferred",
      "type": "event"
    },
    {
      "anonymous": false,
      "inputs": [
        {
          "indexed": true,
          "internalType": "address",
          "name": "from",
          "type": "address"
        },
        {
          "indexed": true,
          "internalType": "address",
          "name": "to",
          "type": "address"
        },
        {
          "indexed": true,
          "internalType": "uint256",
          "name": "tokenId",
          "type": "uint256"
        }
      ],
      "name": "Transfer",
      "type": "event"
    },
    {
      "inputs": [],
      "name": "MAX_PER_MINT",
      "outputs": [
        {
          "internalType": "uint256",
          "name": "",
          "type": "uint256"
        }
      ],
      "stateMutability": "view",
      "type": "function"
    },
    {
      "inputs": [],
      "name": "MAX_RESERVE",
      "outputs": [
        {
          "internalType": "uint256",
          "name": "",
          "type": "uint256"
        }
      ],
      "stateMutability": "view",
      "type": "function"
    },
    {
      "inputs": [],
      "name": "MAX_SUPPLY",
      "outputs": [
        {
          "internalType": "uint256",
          "name": "",
          "type": "uint256"
        }
      ],
      "stateMutability": "view",
      "type": "function"
    },
    {
      "inputs": [],
      "name": "NFT_PRICE",
      "outputs": [
        {
          "internalType": "uint256",
          "name": "",
          "type": "uint256"
        }
      ],
      "stateMutability": "view",
      "type": "function"
    },
    {
      "inputs": [
        {
          "internalType": "address",
          "name": "to",
          "type": "address"
        },
        {
          "internalType": "uint256",
          "name": "tokenId",
          "type": "uint256"
        }
      ],
      "name": "approve",
      "outputs": [],
      "stateMutability": "nonpayable",
      "type": "function"
    },
    {
      "inputs": [
        {
          "internalType": "address",
          "name": "owner",
          "type": "address"
        }
      ],
      "name": "balanceOf",
      "outputs": [
        {
          "internalType": "uint256",
          "name": "",
          "type": "uint256"
        }
      ],
      "stateMutability": "view",
      "type": "function"
    },
    {
      "inputs": [],
      "name": "baseURI",
      "outputs": [
        {
          "internalType": "string",
          "name": "",
          "type": "string"
        }
      ],
      "stateMutability": "view",
      "type": "function"
    },
    {
      "inputs": [
        {
          "internalType": "uint256",
          "name": "amount",
          "type": "uint256"
        },
        {
          "internalType": "bytes32[]",
          "name": "proof",
          "type": "bytes32[]"
        }
      ],
      "name": "buy",
      "outputs": [],
      "stateMutability": "payable",
      "type": "function"
    },
    {
      "inputs": [
        {
          "internalType": "uint256",
          "name": "tokenId",
          "type": "uint256"
        }
      ],
      "name": "getApproved",
      "outputs": [
        {
          "internalType": "address",
          "name": "",
          "type": "address"
        }
      ],
      "stateMutability": "view",
      "type": "function"
    },
    {
      "inputs": [
        {
          "internalType": "address",
          "name": "owner",
          "type": "address"
        },
        {
          "internalType": "address",
          "name": "operator",
          "type": "address"
        }
      ],
      "name": "isApprovedForAll",
      "outputs": [
        {
          "internalType": "bool",
          "name": "",
          "type": "bool"
        }
      ],
      "stateMutability": "view",
      "type": "function"
    },
    {
      "inputs": [],
      "name": "name",
      "outputs": [
        {
          "internalType": "string",
          "name": "",
          "type": "string"
        }
      ],
      "stateMutability": "view",
      "type": "function"
    },
    {
      "inputs": [
        {
          "internalType": "address",
          "name": "",
          "type": "address"
        }
      ],
      "name": "originalMinters",
      "outputs": [
        {
          "internalType": "uint256",
          "name": "",
          "type": "uint256"
        }
      ],
      "stateMutability": "view",
      "type": "function"
    },
    {
      "inputs": [],
      "name": "owner",
      "outputs": [
        {
          "internalType": "address",
          "name": "",
          "type": "address"
        }
      ],
      "stateMutability": "view",
      "type": "function"
    },
    {
      "inputs": [
        {
          "internalType": "uint256",
          "name": "tokenId",
          "type": "uint256"
        }
      ],
      "name": "ownerOf",
      "outputs": [
        {
          "internalType": "address",
          "name": "",
          "type": "address"
        }
      ],
      "stateMutability": "view",
      "type": "function"
    },
    {
      "inputs": [],
      "name": "presale",
      "outputs": [
        {
          "internalType": "enum LoxoHolders.Status",
          "name": "",
          "type": "uint8"
        }
      ],
      "stateMutability": "view",
      "type": "function"
    },
    {
      "inputs": [
        {
          "internalType": "address",
          "name": "",
          "type": "address"
        }
      ],
      "name": "privateSale",
      "outputs": [
        {
          "internalType": "uint256",
          "name": "",
          "type": "uint256"
        }
      ],
      "stateMutability": "view",
      "type": "function"
    },
    {
      "inputs": [
        {
          "internalType": "address",
          "name": "",
          "type": "address"
        }
      ],
      "name": "publicSale",
      "outputs": [
        {
          "internalType": "uint256",
          "name": "",
          "type": "uint256"
        }
      ],
      "stateMutability": "view",
      "type": "function"
    },
    {
      "inputs": [],
      "name": "renounceOwnership",
      "outputs": [],
      "stateMutability": "nonpayable",
      "type": "function"
    },
    {
      "inputs": [
        {
          "internalType": "address",
          "name": "_to",
          "type": "address"
        },
        {
          "internalType": "uint256",
          "name": "_amount",
          "type": "uint256"
        }
      ],
      "name": "reserveNFTs",
      "outputs": [],
      "stateMutability": "nonpayable",
      "type": "function"
    },
    {
      "inputs": [],
      "name": "reservedAmount",
      "outputs": [
        {
          "internalType": "uint256",
          "name": "",
          "type": "uint256"
        }
      ],
      "stateMutability": "view",
      "type": "function"
    },
    {
      "inputs": [],
      "name": "root",
      "outputs": [
        {
          "internalType": "bytes32",
          "name": "",
          "type": "bytes32"
        }
      ],
      "stateMutability": "view",
      "type": "function"
    },
    {
      "inputs": [
        {
          "internalType": "address",
          "name": "from",
          "type": "address"
        },
        {
          "internalType": "address",
          "name": "to",
          "type": "address"
        },
        {
          "internalType": "uint256",
          "name": "tokenId",
          "type": "uint256"
        }
      ],
      "name": "safeTransferFrom",
      "outputs": [],
      "stateMutability": "nonpayable",
      "type": "function"
    },
    {
      "inputs": [
        {
          "internalType": "address",
          "name": "from",
          "type": "address"
        },
        {
          "internalType": "address",
          "name": "to",
          "type": "address"
        },
        {
          "internalType": "uint256",
          "name": "tokenId",
          "type": "uint256"
        },
        {
          "internalType": "bytes",
          "name": "data",
          "type": "bytes"
        }
      ],
      "name": "safeTransferFrom",
      "outputs": [],
      "stateMutability": "nonpayable",
      "type": "function"
    },
    {
      "inputs": [
        {
          "internalType": "address",
          "name": "operator",
          "type": "address"
        },
        {
          "internalType": "bool",
          "name": "approved",
          "type": "bool"
        }
      ],
      "name": "setApprovalForAll",
      "outputs": [],
      "stateMutability": "nonpayable",
      "type": "function"
    },
    {
      "inputs": [
        {
          "internalType": "string",
          "name": "baseURI_",
          "type": "string"
        }
      ],
      "name": "setBaseURI",
      "outputs": [],
      "stateMutability": "nonpayable",
      "type": "function"
    },
    {
      "inputs": [
        {
          "internalType": "uint256",
          "name": "_nftPrice",
          "type": "uint256"
        }
      ],
      "name": "setNftPrice",
      "outputs": [],
      "stateMutability": "nonpayable",
      "type": "function"
    },
    {
      "inputs": [
        {
          "internalType": "bytes32",
          "name": "_root",
          "type": "bytes32"
        }
      ],
      "name": "setRoot",
      "outputs": [],
      "stateMutability": "nonpayable",
      "type": "function"
    },
    {
      "inputs": [
        {
          "internalType": "bytes4",
          "name": "interfaceId",
          "type": "bytes4"
        }
      ],
      "name": "supportsInterface",
      "outputs": [
        {
          "internalType": "bool",
          "name": "",
          "type": "bool"
        }
      ],
      "stateMutability": "view",
      "type": "function"
    },
    {
      "inputs": [],
      "name": "symbol",
      "outputs": [
        {
          "internalType": "string",
          "name": "",
          "type": "string"
        }
      ],
      "stateMutability": "view",
      "type": "function"
    },
    {
      "inputs": [
        {
          "internalType": "uint256",
          "name": "index",
          "type": "uint256"
        }
      ],
      "name": "tokenByIndex",
      "outputs": [
        {
          "internalType": "uint256",
          "name": "",
          "type": "uint256"
        }
      ],
      "stateMutability": "view",
      "type": "function"
    },
    {
      "inputs": [
        {
          "internalType": "address",
          "name": "owner",
          "type": "address"
        },
        {
          "internalType": "uint256",
          "name": "index",
          "type": "uint256"
        }
      ],
      "name": "tokenOfOwnerByIndex",
      "outputs": [
        {
          "internalType": "uint256",
          "name": "",
          "type": "uint256"
        }
      ],
      "stateMutability": "view",
      "type": "function"
    },
    {
      "inputs": [
        {
          "internalType": "uint256",
          "name": "tokenId",
          "type": "uint256"
        }
      ],
      "name": "tokenURI",
      "outputs": [
        {
          "internalType": "string",
          "name": "",
          "type": "string"
        }
      ],
      "stateMutability": "view",
      "type": "function"
    },
    {
      "inputs": [
        {
          "internalType": "address",
          "name": "_owner",
          "type": "address"
        }
      ],
      "name": "tokensOfOwner",
      "outputs": [
        {
          "internalType": "uint256[]",
          "name": "",
          "type": "uint256[]"
        }
      ],
      "stateMutability": "view",
      "type": "function"
    },
    {
      "inputs": [],
      "name": "totalSupply",
      "outputs": [
        {
          "internalType": "uint256",
          "name": "",
          "type": "uint256"
        }
      ],
      "stateMutability": "view",
      "type": "function"
    },
    {
      "inputs": [
        {
          "internalType": "address",
          "name": "from",
          "type": "address"
        },
        {
          "internalType": "address",
          "name": "to",
          "type": "address"
        },
        {
          "internalType": "uint256",
          "name": "tokenId",
          "type": "uint256"
        }
      ],
      "name": "transferFrom",
      "outputs": [],
      "stateMutability": "nonpayable",
      "type": "function"
    },
    {
      "inputs": [
        {
          "internalType": "address",
          "name": "newOwner",
          "type": "address"
        }
      ],
      "name": "transferOwnership",
      "outputs": [],
      "stateMutability": "nonpayable",
      "type": "function"
    },
    {
      "inputs": [
        {
          "internalType": "uint256",
          "name": "_NFT_PRICE",
          "type": "uint256"
        },
        {
          "internalType": "uint256",
          "name": "_MAX_PER_MINT",
          "type": "uint256"
        },
        {
          "internalType": "enum LoxoHolders.Status",
          "name": "_newStatus",
          "type": "uint8"
        }
      ],
      "name": "updateStatus",
      "outputs": [],
      "stateMutability": "payable",
      "type": "function"
    },
    {
      "inputs": [
        {
          "internalType": "address",
          "name": "",
          "type": "address"
        }
      ],
      "name": "whiteListSale",
      "outputs": [
        {
          "internalType": "uint256",
          "name": "",
          "type": "uint256"
        }
      ],
      "stateMutability": "view",
      "type": "function"
    },
    {
      "inputs": [
        {
          "internalType": "uint256",
          "name": "_amount",
          "type": "uint256"
        }
      ],
      "name": "withdraw",
      "outputs": [],
      "stateMutability": "payable",
      "type": "function"
    }
  ],
  "bytecode": "0x60806040526005600e556096600f553480156200001b57600080fd5b5060405162002a7638038062002a768339810160408190526200003e91620001db565b604080518082018252600b81526a4c6f786f486f6c6465727360a81b602080830191825283518085019094526007845266131bde1bd3919560ca1b908401528151919291620000909160009162000135565b508051620000a690600190602084019062000135565b505050620000c3620000bd620000df60201b60201c565b620000e3565b600c91909155600d556012805460ff191660031790556200023c565b3390565b600a80546001600160a01b038381166001600160a01b0319831681179093556040519116919082907f8be0079c531659141344cd1fd0a4f28419497f9722a3daafe3b4186f6b6457e090600090a35050565b828054620001439062000200565b90600052602060002090601f016020900481019282620001675760008555620001b2565b82601f106200018257805160ff1916838001178555620001b2565b82800160010185558215620001b2579182015b82811115620001b257825182559160200191906001019062000195565b50620001c0929150620001c4565b5090565b5b80821115620001c05760008155600101620001c5565b60008060408385031215620001ef57600080fd5b505080516020909101519092909150565b600181811c908216806200021557607f821691505b6020821081036200023657634e487b7160e01b600052602260045260246000fd5b50919050565b61282a806200024c6000396000f3fe6080604052600436106102305760003560e01c806370a082311161012e578063c87b56dd116100ab578063ebf0c7171161006f578063ebf0c717146106ab578063eff31e9e146106c1578063f2fde38b146106d7578063f92c45b7146106f7578063fdea8e0b1461070d57600080fd5b8063c87b56dd146105c8578063d113d59d146105e8578063dab5f34014610615578063e7d53fcb14610635578063e985e9c51461066257600080fd5b80638da5cb5b116100f25780638da5cb5b1461052857806395d89b4114610546578063a22cb4651461055b578063a51700eb1461057b578063b88d4fde146105a857600080fd5b806370a082311461048657806370a8de86146104a6578063715018a6146104c65780637d9a7a4c146104db5780638462151c146104fb57600080fd5b806332cb6b0c116101bc57806355f804b31161018057806355f804b3146104085780635a19b4db146104285780636352211e1461043b578063676dd5631461045b5780636c0360eb1461047157600080fd5b806332cb6b0c1461037257806335571bb11461038857806339dab1861461039b57806342842e0e146103c85780634f6ccce7146103e857600080fd5b806309d42b301161020357806309d42b30146102e657806318160ddd1461030a57806323b872dd1461031f5780632e1a7d4d1461033f5780632f745c591461035257600080fd5b806301ffc9a71461023557806306fdde031461026a578063081812fc1461028c578063095ea7b3146102c4575b600080fd5b34801561024157600080fd5b506102556102503660046120c2565b610734565b60405190151581526020015b60405180910390f35b34801561027657600080fd5b5061027f61075f565b6040516102619190612137565b34801561029857600080fd5b506102ac6102a736600461214a565b6107f1565b6040516001600160a01b039091168152602001610261565b3480156102d057600080fd5b506102e46102df36600461217f565b610818565b005b3480156102f257600080fd5b506102fc600e5481565b604051908152602001610261565b34801561031657600080fd5b506008546102fc565b34801561032b57600080fd5b506102e461033a3660046121a9565b610932565b6102e461034d36600461214a565b610963565b34801561035e57600080fd5b506102fc61036d36600461217f565b61099a565b34801561037e57600080fd5b506102fc600c5481565b6102e46103963660046121e5565b610a30565b3480156103a757600080fd5b506102fc6103b6366004612222565b60156020526000908152604090205481565b3480156103d457600080fd5b506102e46103e33660046121a9565b610a6b565b3480156103f457600080fd5b506102fc61040336600461214a565b610a86565b34801561041457600080fd5b506102e46104233660046122dc565b610b19565b6102e4610436366004612325565b610b38565b34801561044757600080fd5b506102ac61045636600461214a565b610e7e565b34801561046757600080fd5b506102fc600d5481565b34801561047d57600080fd5b5061027f610ede565b34801561049257600080fd5b506102fc6104a1366004612222565b610eed565b3480156104b257600080fd5b506102e46104c136600461217f565b610f73565b3480156104d257600080fd5b506102e4611070565b3480156104e757600080fd5b506102e46104f636600461214a565b611084565b34801561050757600080fd5b5061051b610516366004612222565b611091565b60405161026191906123d7565b34801561053457600080fd5b50600a546001600160a01b03166102ac565b34801561055257600080fd5b5061027f611153565b34801561056757600080fd5b506102e461057636600461241b565b611162565b34801561058757600080fd5b506102fc610596366004612222565b60146020526000908152604090205481565b3480156105b457600080fd5b506102e46105c3366004612457565b61116d565b3480156105d457600080fd5b5061027f6105e336600461214a565b6111a5565b3480156105f457600080fd5b506102fc610603366004612222565b60166020526000908152604090205481565b34801561062157600080fd5b506102e461063036600461214a565b61120c565b34801561064157600080fd5b506102fc610650366004612222565b60136020526000908152604090205481565b34801561066e57600080fd5b5061025561067d3660046124d3565b6001600160a01b03918216600090815260056020908152604080832093909416825291909152205460ff1690565b3480156106b757600080fd5b506102fc60115481565b3480156106cd57600080fd5b506102fc600f5481565b3480156106e357600080fd5b506102e46106f2366004612222565b611219565b34801561070357600080fd5b506102fc60105481565b34801561071957600080fd5b506012546107279060ff1681565b604051610261919061251c565b60006001600160e01b0319821663780e9d6360e01b1480610759575061075982611292565b92915050565b60606000805461076e90612544565b80601f016020809104026020016040519081016040528092919081815260200182805461079a90612544565b80156107e75780601f106107bc576101008083540402835291602001916107e7565b820191906000526020600020905b8154815290600101906020018083116107ca57829003601f168201915b5050505050905090565b60006107fc826112e2565b506000908152600460205260409020546001600160a01b031690565b600061082382610e7e565b9050806001600160a01b0316836001600160a01b0316036108955760405162461bcd60e51b815260206004820152602160248201527f4552433732313a20617070726f76616c20746f2063757272656e74206f776e656044820152603960f91b60648201526084015b60405180910390fd5b336001600160a01b03821614806108b157506108b1813361067d565b6109235760405162461bcd60e51b815260206004820152603d60248201527f4552433732313a20617070726f76652063616c6c6572206973206e6f7420746f60448201527f6b656e206f776e6572206f7220617070726f76656420666f7220616c6c000000606482015260840161088c565b61092d8383611341565b505050565b61093c33826113af565b6109585760405162461bcd60e51b815260040161088c90612578565b61092d83838361142e565b61096b61159f565b6040513390819083156108fc029084906000818181858888f1935050505015801561092d573d6000803e3d6000fd5b60006109a583610eed565b8210610a075760405162461bcd60e51b815260206004820152602b60248201527f455243373231456e756d657261626c653a206f776e657220696e646578206f7560448201526a74206f6620626f756e647360a81b606482015260840161088c565b506001600160a01b03919091166000908152600660209081526040808320938352929052205490565b610a3861159f565b600d839055600e8290556012805482919060ff19166001836003811115610a6157610a61612506565b0217905550505050565b61092d8383836040518060200160405280600081525061116d565b6000610a9160085490565b8210610af45760405162461bcd60e51b815260206004820152602c60248201527f455243373231456e756d657261626c653a20676c6f62616c20696e646578206f60448201526b7574206f6620626f756e647360a01b606482015260840161088c565b60088281548110610b0757610b076125c5565b90600052602060002001549050919050565b610b2161159f565b8051610b3490600b906020840190612013565b5050565b600360125460ff166003811115610b5157610b51612506565b03610bac5760405162461bcd60e51b815260206004820152602560248201527f50726573616c652069736e7420617661696c61626c652061742074686973206d6044820152641bdb595b9d60da1b606482015260840161088c565b600160125460ff166003811115610bc557610bc5612506565b03610c8e57600d543490610bd990846115f9565b14610bf65760405162461bcd60e51b815260040161088c906125db565b600e5433600090815260136020526040902054610c139084611605565b1115610c315760405162461bcd60e51b815260040161088c90612612565b33600090815260136020526040902054610c4b9083611605565b33600090815260136020908152604080832093909355601690522054610c719083611605565b33600081815260166020526040902091909155610c8e9083611611565b600260125460ff166003811115610ca757610ca7612506565b03610db957610cb681336116ab565b610cf55760405162461bcd60e51b815260206004820152601060248201526f2737ba103bb434ba32b634b9ba32b21760811b604482015260640161088c565b600d543490610d0490846115f9565b14610d215760405162461bcd60e51b815260040161088c906125db565b600e5433600090815260146020526040902054610d3e9084611605565b1115610d5c5760405162461bcd60e51b815260040161088c90612612565b33600090815260146020526040902054610d769083611605565b33600090815260146020908152604080832093909355601690522054610d9c9083611605565b33600081815260166020526040902091909155610b349083611611565b600060125460ff166003811115610dd257610dd2612506565b03610b3457600d543490610de690846115f9565b14610e035760405162461bcd60e51b815260040161088c906125db565b600e5433600090815260156020526040902054610e209084611605565b1115610e3e5760405162461bcd60e51b815260040161088c90612612565b33600090815260156020526040902054610e589083611605565b33600090815260156020908152604080832093909355601690522054610d9c9083611605565b6000818152600260205260408120546001600160a01b0316806107595760405162461bcd60e51b8152602060048201526018602482015277115490cdcc8c4e881a5b9d985b1a59081d1bdad95b88125160421b604482015260640161088c565b6060610ee8611711565b905090565b60006001600160a01b038216610f575760405162461bcd60e51b815260206004820152602960248201527f4552433732313a2061646472657373207a65726f206973206e6f7420612076616044820152683634b21037bbb732b960b91b606482015260840161088c565b506001600160a01b031660009081526003602052604090205490565b610f7b61159f565b6001600160a01b038216610fd15760405162461bcd60e51b815260206004820152601b60248201527f496e76616c6964206164647265737320746f20726573657276652e0000000000604482015260640161088c565b600f54601054610fe19083611605565b11156110205760405162461bcd60e51b815260206004820152600e60248201526d125b9d985b1a5908185b5bdd5b9d60921b604482015260640161088c565b60005b8181101561105b57600c546008541015611049576110498361104460085490565b611720565b8061105381612657565b915050611023565b506010546110699082611605565b6010555050565b61107861159f565b611082600061173a565b565b61108c61159f565b600d55565b6060600061109e83610eed565b9050806000036110c25760408051600080825260208201909252905b509392505050565b60008167ffffffffffffffff8111156110dd576110dd61223d565b604051908082528060200260200182016040528015611106578160200160208202803683370190505b50905060005b828110156110ba5761111e858261099a565b828281518110611130576111306125c5565b60209081029190910101528061114581612657565b91505061110c565b50919050565b60606001805461076e90612544565b610b3433838361178c565b61117733836113af565b6111935760405162461bcd60e51b815260040161088c90612578565b61119f8484848461185a565b50505050565b60606111b0826112e2565b60006111ba611711565b905060008151116111da5760405180602001604052806000815250611205565b806111e48461188d565b6040516020016111f5929190612670565b6040516020818303038152906040525b9392505050565b61121461159f565b601155565b61122161159f565b6001600160a01b0381166112865760405162461bcd60e51b815260206004820152602660248201527f4f776e61626c653a206e6577206f776e657220697320746865207a65726f206160448201526564647265737360d01b606482015260840161088c565b61128f8161173a565b50565b60006001600160e01b031982166380ac58cd60e01b14806112c357506001600160e01b03198216635b5e139f60e01b145b8061075957506301ffc9a760e01b6001600160e01b0319831614610759565b6000818152600260205260409020546001600160a01b031661128f5760405162461bcd60e51b8152602060048201526018602482015277115490cdcc8c4e881a5b9d985b1a59081d1bdad95b88125160421b604482015260640161088c565b600081815260046020526040902080546001600160a01b0319166001600160a01b038416908117909155819061137682610e7e565b6001600160a01b03167f8c5be1e5ebec7d5bd14f71427d1e84f3dd0314c0f7b2291e5b200ac8c7c3b92560405160405180910390a45050565b6000806113bb83610e7e565b9050806001600160a01b0316846001600160a01b0316148061140257506001600160a01b0380821660009081526005602090815260408083209388168352929052205460ff165b806114265750836001600160a01b031661141b846107f1565b6001600160a01b0316145b949350505050565b826001600160a01b031661144182610e7e565b6001600160a01b0316146114675760405162461bcd60e51b815260040161088c9061269f565b6001600160a01b0382166114c95760405162461bcd60e51b8152602060048201526024808201527f4552433732313a207472616e7366657220746f20746865207a65726f206164646044820152637265737360e01b606482015260840161088c565b6114d68383836001611920565b826001600160a01b03166114e982610e7e565b6001600160a01b03161461150f5760405162461bcd60e51b815260040161088c9061269f565b600081815260046020908152604080832080546001600160a01b03199081169091556001600160a01b0387811680865260038552838620805460001901905590871680865283862080546001019055868652600290945282852080549092168417909155905184937fddf252ad1be2c89b69c2b068fc378daa952ba7f163c4a11628f55a4df523b3ef91a4505050565b600a546001600160a01b031633146110825760405162461bcd60e51b815260206004820181905260248201527f4f776e61626c653a2063616c6c6572206973206e6f7420746865206f776e6572604482015260640161088c565b600061120582846126e4565b60006112058284612703565b600c546116278261162160085490565b90611605565b11156116755760405162461bcd60e51b815260206004820152601d60248201527f4d696e7420776f756c6420657863656564206d617820737570706c792e000000604482015260640161088c565b60005b8181101561092d57600c546008541015611699576116998361104460085490565b806116a381612657565b915050611678565b6040516bffffffffffffffffffffffff19606083901b166020820152600090819060340160408051601f19818403018152828252805160209182012090830152016040516020818303038152906040528051906020012090506114268460115483611a54565b6060600b805461076e90612544565b610b34828260405180602001604052806000815250611a6a565b600a80546001600160a01b038381166001600160a01b0319831681179093556040519116919082907f8be0079c531659141344cd1fd0a4f28419497f9722a3daafe3b4186f6b6457e090600090a35050565b816001600160a01b0316836001600160a01b0316036117ed5760405162461bcd60e51b815260206004820152601960248201527f4552433732313a20617070726f766520746f2063616c6c657200000000000000604482015260640161088c565b6001600160a01b03838116600081815260056020908152604080832094871680845294825291829020805460ff191686151590811790915591519182527f17307eab39ab6107e8899845ad3d59bd9653f200f220920489ca2b5937696c31910160405180910390a3505050565b61186584848461142e565b61187184848484611a9d565b61119f5760405162461bcd60e51b815260040161088c9061271b565b6060600061189a83611b9e565b600101905060008167ffffffffffffffff8111156118ba576118ba61223d565b6040519080825280601f01601f1916602001820160405280156118e4576020820181803683370190505b5090508181016020015b600019016f181899199a1a9b1b9c1cb0b131b232b360811b600a86061a8153600a85049450846118ee57509392505050565b600181111561198f5760405162461bcd60e51b815260206004820152603560248201527f455243373231456e756d657261626c653a20636f6e7365637574697665207472604482015274185b9cd9995c9cc81b9bdd081cdd5c1c1bdc9d1959605a1b606482015260840161088c565b816001600160a01b0385166119eb576119e681600880546000838152600960205260408120829055600182018355919091527ff3f7a9fe364faab93b216da50a3214154f22a0a2b415b23a84c8169e8b636ee30155565b611a0e565b836001600160a01b0316856001600160a01b031614611a0e57611a0e8582611c76565b6001600160a01b038416611a2a57611a2581611d13565b611a4d565b846001600160a01b0316846001600160a01b031614611a4d57611a4d8482611dc2565b5050505050565b600082611a618584611e06565b14949350505050565b611a748383611e4b565b611a816000848484611a9d565b61092d5760405162461bcd60e51b815260040161088c9061271b565b60006001600160a01b0384163b15611b9357604051630a85bd0160e11b81526001600160a01b0385169063150b7a0290611ae190339089908890889060040161276d565b6020604051808303816000875af1925050508015611b1c575060408051601f3d908101601f19168201909252611b19918101906127aa565b60015b611b79573d808015611b4a576040519150601f19603f3d011682016040523d82523d6000602084013e611b4f565b606091505b508051600003611b715760405162461bcd60e51b815260040161088c9061271b565b805181602001fd5b6001600160e01b031916630a85bd0160e11b149050611426565b506001949350505050565b60008072184f03e93ff9f4daa797ed6e38ed64bf6a1f0160401b8310611bdd5772184f03e93ff9f4daa797ed6e38ed64bf6a1f0160401b830492506040015b6d04ee2d6d415b85acef81000000008310611c09576d04ee2d6d415b85acef8100000000830492506020015b662386f26fc100008310611c2757662386f26fc10000830492506010015b6305f5e1008310611c3f576305f5e100830492506008015b6127108310611c5357612710830492506004015b60648310611c65576064830492506002015b600a83106107595760010192915050565b60006001611c8384610eed565b611c8d91906127c7565b600083815260076020526040902054909150808214611ce0576001600160a01b03841660009081526006602090815260408083208584528252808320548484528184208190558352600790915290208190555b5060009182526007602090815260408084208490556001600160a01b039094168352600681528383209183525290812055565b600854600090611d25906001906127c7565b60008381526009602052604081205460088054939450909284908110611d4d57611d4d6125c5565b906000526020600020015490508060088381548110611d6e57611d6e6125c5565b6000918252602080832090910192909255828152600990915260408082208490558582528120556008805480611da657611da66127de565b6001900381819060005260206000200160009055905550505050565b6000611dcd83610eed565b6001600160a01b039093166000908152600660209081526040808320868452825280832085905593825260079052919091209190915550565b600081815b84518110156110ba57611e3782868381518110611e2a57611e2a6125c5565b6020026020010151611fe4565b915080611e4381612657565b915050611e0b565b6001600160a01b038216611ea15760405162461bcd60e51b815260206004820181905260248201527f4552433732313a206d696e7420746f20746865207a65726f2061646472657373604482015260640161088c565b6000818152600260205260409020546001600160a01b031615611f065760405162461bcd60e51b815260206004820152601c60248201527f4552433732313a20746f6b656e20616c7265616479206d696e74656400000000604482015260640161088c565b611f14600083836001611920565b6000818152600260205260409020546001600160a01b031615611f795760405162461bcd60e51b815260206004820152601c60248201527f4552433732313a20746f6b656e20616c7265616479206d696e74656400000000604482015260640161088c565b6001600160a01b038216600081815260036020908152604080832080546001019055848352600290915280822080546001600160a01b0319168417905551839291907fddf252ad1be2c89b69c2b068fc378daa952ba7f163c4a11628f55a4df523b3ef908290a45050565b6000818310612000576000828152602084905260409020611205565b6000838152602083905260409020611205565b82805461201f90612544565b90600052602060002090601f0160209004810192826120415760008555612087565b82601f1061205a57805160ff1916838001178555612087565b82800160010185558215612087579182015b8281111561208757825182559160200191906001019061206c565b50612093929150612097565b5090565b5b808211156120935760008155600101612098565b6001600160e01b03198116811461128f57600080fd5b6000602082840312156120d457600080fd5b8135611205816120ac565b60005b838110156120fa5781810151838201526020016120e2565b8381111561119f5750506000910152565b600081518084526121238160208601602086016120df565b601f01601f19169290920160200192915050565b602081526000611205602083018461210b565b60006020828403121561215c57600080fd5b5035919050565b80356001600160a01b038116811461217a57600080fd5b919050565b6000806040838503121561219257600080fd5b61219b83612163565b946020939093013593505050565b6000806000606084860312156121be57600080fd5b6121c784612163565b92506121d560208501612163565b9150604084013590509250925092565b6000806000606084860312156121fa57600080fd5b833592506020840135915060408401356004811061221757600080fd5b809150509250925092565b60006020828403121561223457600080fd5b61120582612163565b634e487b7160e01b600052604160045260246000fd5b604051601f8201601f1916810167ffffffffffffffff8111828210171561227c5761227c61223d565b604052919050565b600067ffffffffffffffff83111561229e5761229e61223d565b6122b1601f8401601f1916602001612253565b90508281528383830111156122c557600080fd5b828260208301376000602084830101529392505050565b6000602082840312156122ee57600080fd5b813567ffffffffffffffff81111561230557600080fd5b8201601f8101841361231657600080fd5b61142684823560208401612284565b6000806040838503121561233857600080fd5b8235915060208084013567ffffffffffffffff8082111561235857600080fd5b818601915086601f83011261236c57600080fd5b81358181111561237e5761237e61223d565b8060051b915061238f848301612253565b81815291830184019184810190898411156123a957600080fd5b938501935b838510156123c7578435825293850193908501906123ae565b8096505050505050509250929050565b6020808252825182820181905260009190848201906040850190845b8181101561240f578351835292840192918401916001016123f3565b50909695505050505050565b6000806040838503121561242e57600080fd5b61243783612163565b91506020830135801515811461244c57600080fd5b809150509250929050565b6000806000806080858703121561246d57600080fd5b61247685612163565b935061248460208601612163565b925060408501359150606085013567ffffffffffffffff8111156124a757600080fd5b8501601f810187136124b857600080fd5b6124c787823560208401612284565b91505092959194509250565b600080604083850312156124e657600080fd5b6124ef83612163565b91506124fd60208401612163565b90509250929050565b634e487b7160e01b600052602160045260246000fd5b602081016004831061253e57634e487b7160e01b600052602160045260246000fd5b91905290565b600181811c9082168061255857607f821691505b60208210810361114d57634e487b7160e01b600052602260045260246000fd5b6020808252602d908201527f4552433732313a2063616c6c6572206973206e6f7420746f6b656e206f776e6560408201526c1c881bdc88185c1c1c9bdd9959609a1b606082015260800190565b634e487b7160e01b600052603260045260246000fd5b6020808252601d908201527f4554482076616c75652073656e74206973206e6f7420636f7272656374000000604082015260600190565b602080825260159082015274195e18d95959081b585e1a5b5d5b48185b5bdd5b9d605a1b604082015260600190565b634e487b7160e01b600052601160045260246000fd5b60006001820161266957612669612641565b5060010190565b600083516126828184602088016120df565b8351908301906126968183602088016120df565b01949350505050565b60208082526025908201527f4552433732313a207472616e736665722066726f6d20696e636f72726563742060408201526437bbb732b960d91b606082015260800190565b60008160001904831182151516156126fe576126fe612641565b500290565b6000821982111561271657612716612641565b500190565b60208082526032908201527f4552433732313a207472616e7366657220746f206e6f6e20455243373231526560408201527131b2b4bb32b91034b6b83632b6b2b73a32b960711b606082015260800190565b6001600160a01b03858116825284166020820152604081018390526080606082018190526000906127a09083018461210b565b9695505050505050565b6000602082840312156127bc57600080fd5b8151611205816120ac565b6000828210156127d9576127d9612641565b500390565b634e487b7160e01b600052603160045260246000fdfea2646970667358221220872aba8dfd0aadcaa80949fee856b1dc510d5dddf93f83cb6138effe34757aa364736f6c634300080d0033",
  "linkReferences": {},
  "deployedLinkReferences": {}
}