{
  "_format": "hh-sol-artifact-1",
  "contractName": "Minter",
  "sourceName": "contracts/Minter.sol",
  "abi": [
    {
      "inputs": [
        {
          "internalType": "address",
          "name": "__voter",
          "type": "address"
        },
        {
          "internalType": "address",
          "name": "__ve",
          "type": "address"
        },
        {
          "internalType": "address",
          "name": "__rewards_distributor",
          "type": "address"
        },
        {
          "internalType": "address",
          "name": "__NFTstakers_rewards",
          "type": "address"
        },
        {
          "internalType": "address",
          "name": "__Traders_rewards",
          "type": "address"
        }
      ],
      "stateMutability": "nonpayable",
      "type": "constructor"
    },
    {
      "anonymous": false,
      "inputs": [
        {
          "indexed": true,
          "internalType": "address",
          "name": "sender",
          "type": "address"
        },
        {
          "indexed": false,
          "internalType": "uint256",
          "name": "weekly",
          "type": "uint256"
        },
        {
          "indexed": false,
          "internalType": "uint256",
          "name": "circulating_supply",
          "type": "uint256"
        },
        {
          "indexed": false,
          "internalType": "uint256",
          "name": "circulating_emission",
          "type": "uint256"
        }
      ],
      "name": "Mint",
      "type": "event"
    },
    {
      "inputs": [],
      "name": "MAX_TEAM_RATE",
      "outputs": [
        {
          "internalType": "uint256",
          "name": "",
          "type": "uint256"
        }
      ],
      "stateMutability": "view",
      "type": "function"
    },
    {
      "inputs": [],
      "name": "_Loxo",
      "outputs": [
        {
          "internalType": "contract ILoxo",
          "name": "",
          "type": "address"
        }
      ],
      "stateMutability": "view",
      "type": "function"
    },
    {
      "inputs": [],
      "name": "_NFTstakers_rewards",
      "outputs": [
        {
          "internalType": "address",
          "name": "",
          "type": "address"
        }
      ],
      "stateMutability": "view",
      "type": "function"
    },
    {
      "inputs": [],
      "name": "_Traders_rewards",
      "outputs": [
        {
          "internalType": "address",
          "name": "",
          "type": "address"
        }
      ],
      "stateMutability": "view",
      "type": "function"
    },
    {
      "inputs": [],
      "name": "_rewards_distributor",
      "outputs": [
        {
          "internalType": "contract IRewardsDistributor",
          "name": "",
          "type": "address"
        }
      ],
      "stateMutability": "view",
      "type": "function"
    },
    {
      "inputs": [],
      "name": "_ve",
      "outputs": [
        {
          "internalType": "contract IVotingEscrow",
          "name": "",
          "type": "address"
        }
      ],
      "stateMutability": "view",
      "type": "function"
    },
    {
      "inputs": [],
      "name": "_voter",
      "outputs": [
        {
          "internalType": "contract IVoter",
          "name": "",
          "type": "address"
        }
      ],
      "stateMutability": "view",
      "type": "function"
    },
    {
      "inputs": [],
      "name": "acceptTeam",
      "outputs": [],
      "stateMutability": "nonpayable",
      "type": "function"
    },
    {
      "inputs": [],
      "name": "active_period",
      "outputs": [
        {
          "internalType": "uint256",
          "name": "",
          "type": "uint256"
        }
      ],
      "stateMutability": "view",
      "type": "function"
    },
    {
      "inputs": [
        {
          "internalType": "uint256",
          "name": "_weeklyMint",
          "type": "uint256"
        }
      ],
      "name": "calculate_NFT_Staker_Reward",
      "outputs": [
        {
          "internalType": "uint256",
          "name": "",
          "type": "uint256"
        }
      ],
      "stateMutability": "view",
      "type": "function"
    },
    {
      "inputs": [
        {
          "internalType": "uint256",
          "name": "_weeklyMint",
          "type": "uint256"
        }
      ],
      "name": "calculate_Traders_Reward",
      "outputs": [
        {
          "internalType": "uint256",
          "name": "",
          "type": "uint256"
        }
      ],
      "stateMutability": "view",
      "type": "function"
    },
    {
      "inputs": [],
      "name": "calculate_emission",
      "outputs": [
        {
          "internalType": "uint256",
          "name": "",
          "type": "uint256"
        }
      ],
      "stateMutability": "view",
      "type": "function"
    },
    {
      "inputs": [
        {
          "internalType": "uint256",
          "name": "_weeklyMint",
          "type": "uint256"
        }
      ],
      "name": "calculate_rebase",
      "outputs": [
        {
          "internalType": "uint256",
          "name": "",
          "type": "uint256"
        }
      ],
      "stateMutability": "view",
      "type": "function"
    },
    {
      "inputs": [],
      "name": "check",
      "outputs": [
        {
          "internalType": "bool",
          "name": "",
          "type": "bool"
        }
      ],
      "stateMutability": "view",
      "type": "function"
    },
    {
      "inputs": [],
      "name": "circulating_emission",
      "outputs": [
        {
          "internalType": "uint256",
          "name": "",
          "type": "uint256"
        }
      ],
      "stateMutability": "view",
      "type": "function"
    },
    {
      "inputs": [],
      "name": "circulating_supply",
      "outputs": [
        {
          "internalType": "uint256",
          "name": "",
          "type": "uint256"
        }
      ],
      "stateMutability": "view",
      "type": "function"
    },
    {
      "inputs": [
        {
          "internalType": "address[]",
          "name": "claimants",
          "type": "address[]"
        },
        {
          "internalType": "uint256[]",
          "name": "amounts",
          "type": "uint256[]"
        },
        {
          "internalType": "uint256",
          "name": "max",
          "type": "uint256"
        }
      ],
      "name": "initialize",
      "outputs": [],
      "stateMutability": "nonpayable",
      "type": "function"
    },
    {
      "inputs": [],
      "name": "isFirstMint",
      "outputs": [
        {
          "internalType": "bool",
          "name": "",
          "type": "bool"
        }
      ],
      "stateMutability": "view",
      "type": "function"
    },
    {
      "inputs": [],
      "name": "pendingTeam",
      "outputs": [
        {
          "internalType": "address",
          "name": "",
          "type": "address"
        }
      ],
      "stateMutability": "view",
      "type": "function"
    },
    {
      "inputs": [],
      "name": "period",
      "outputs": [
        {
          "internalType": "uint256",
          "name": "",
          "type": "uint256"
        }
      ],
      "stateMutability": "view",
      "type": "function"
    },
    {
      "inputs": [
        {
          "internalType": "uint256",
          "name": "_emission",
          "type": "uint256"
        }
      ],
      "name": "setEmission",
      "outputs": [],
      "stateMutability": "nonpayable",
      "type": "function"
    },
    {
      "inputs": [
        {
          "internalType": "uint256",
          "name": "_NFTStakersReward",
          "type": "uint256"
        }
      ],
      "name": "setNFTStaker",
      "outputs": [],
      "stateMutability": "nonpayable",
      "type": "function"
    },
    {
      "inputs": [
        {
          "internalType": "address",
          "name": "__NFTstakers",
          "type": "address"
        }
      ],
      "name": "setNFTstakers",
      "outputs": [],
      "stateMutability": "nonpayable",
      "type": "function"
    },
    {
      "inputs": [
        {
          "internalType": "uint256",
          "name": "_rebase",
          "type": "uint256"
        }
      ],
      "name": "setRebase",
      "outputs": [],
      "stateMutability": "nonpayable",
      "type": "function"
    },
    {
      "inputs": [
        {
          "internalType": "address",
          "name": "_team",
          "type": "address"
        }
      ],
      "name": "setTeam",
      "outputs": [],
      "stateMutability": "nonpayable",
      "type": "function"
    },
    {
      "inputs": [
        {
          "internalType": "uint256",
          "name": "_teamRate",
          "type": "uint256"
        }
      ],
      "name": "setTeamRate",
      "outputs": [],
      "stateMutability": "nonpayable",
      "type": "function"
    },
    {
      "inputs": [
        {
          "internalType": "uint256",
          "name": "_TradersReward",
          "type": "uint256"
        }
      ],
      "name": "setTradersMAX",
      "outputs": [],
      "stateMutability": "nonpayable",
      "type": "function"
    },
    {
      "inputs": [
        {
          "internalType": "address",
          "name": "__voter",
          "type": "address"
        }
      ],
      "name": "setVoter",
      "outputs": [],
      "stateMutability": "nonpayable",
      "type": "function"
    },
    {
      "inputs": [],
      "name": "team",
      "outputs": [
        {
          "internalType": "address",
          "name": "",
          "type": "address"
        }
      ],
      "stateMutability": "view",
      "type": "function"
    },
    {
      "inputs": [],
      "name": "teamRate",
      "outputs": [
        {
          "internalType": "uint256",
          "name": "",
          "type": "uint256"
        }
      ],
      "stateMutability": "view",
      "type": "function"
    },
    {
      "inputs": [],
      "name": "update_period",
      "outputs": [
        {
          "internalType": "uint256",
          "name": "",
          "type": "uint256"
        }
      ],
      "stateMutability": "nonpayable",
      "type": "function"
    },
    {
      "inputs": [],
      "name": "weekly",
      "outputs": [
        {
          "internalType": "uint256",
          "name": "",
          "type": "uint256"
        }
      ],
      "stateMutability": "view",
      "type": "function"
    },
    {
      "inputs": [],
      "name": "weekly_emission",
      "outputs": [
        {
          "internalType": "uint256",
          "name": "",
          "type": "uint256"
        }
      ],
      "stateMutability": "view",
      "type": "function"
    }
  ],
  "bytecode": "0x60e06040526103de600155606460025560326003556028600455694f68ca6d8cd91c6000006006553480156200003457600080fd5b5060405162001db238038062001db28339810160408190526200005791620001a2565b60088054336001600160a01b03199182168117909255600980549091169091179055600a60055560408051637e062a3560e11b815290516001600160a01b0386169163fc0c546a9160048281019260209291908290030181865afa158015620000c4573d6000803e3d6000fd5b505050506040513d601f19601f82011682018060405250810190620000ea919062000212565b6001600160a01b03908116608052600d80546001600160a01b03199081168884161790915585821660a052600b80548216858416179055600c8054909116838316179055831660c0526202a30080620001458160026200024d565b6200015190426200026f565b6200015d91906200028a565b6200016991906200024d565b60075550506000805460ff1916600117905550620002ad915050565b80516001600160a01b03811681146200019d57600080fd5b919050565b600080600080600060a08688031215620001bb57600080fd5b620001c68662000185565b9450620001d66020870162000185565b9350620001e66040870162000185565b9250620001f66060870162000185565b9150620002066080870162000185565b90509295509295909350565b6000602082840312156200022557600080fd5b620002308262000185565b9392505050565b634e487b7160e01b600052601160045260246000fd5b60008160001904831182151516156200026a576200026a62000237565b500290565b6000821982111562000285576200028562000237565b500190565b600082620002a857634e487b7160e01b600052601260045260246000fd5b500490565b60805160a05160c051611a3b62000377600039600081816102d901528181611322015281816113c9015261143c0152600081816103550152818161066c0152818161071801528181610874015281816109d601528181610ba30152610de5015260008181610284015281816105df0152818161069c015281816108fa01528181610a5c01528181610c2901528181610e67015281816110080152818161108701528181611151015281816111f2015281816112930152818161135101526114d40152611a3b6000f3fe608060405234801561001057600080fd5b50600436106101fb5760003560e01c80638dd598fb1161011a578063d1399608116100ad578063e038c75a1161007c578063e038c75a14610427578063ed29fc111461042f578063ef78d4fd14610437578063fd51263f1461043f578063fde7ef4f1461045257600080fd5b8063d1399608146103e5578063d248687f146103ee578063ddce102f14610401578063de3e34921461041457600080fd5b8063a9abf7ec116100e9578063a9abf7ec146103b5578063b5cc143a146103c2578063cfc6c8ff146103ca578063d0e4c61d146103d257600080fd5b80638dd598fb14610350578063919840ad14610377578063a129cfbf1461038f578063a6e46d98146103a257600080fd5b80633db9b42a1161019257806359d46ffc1161016157806359d46ffc1461030e57806378ef7f0214610321578063851708131461032a57806385f2aef21461033d57600080fd5b80633db9b42a146102ae5780634718d877146102c15780634b1cd5da146102d45780634bc2a657146102fb57600080fd5b806326cfc17b116101ce57806326cfc17b146102635780632e8f7b1f1461026c57806333b875b21461027f57806336d96faf146102a657600080fd5b806301c8e6fd14610200578063095cf5c61461021b5780631eebae8014610230578063235724dd14610238575b600080fd5b610208603281565b6040519081526020015b60405180910390f35b61022e6102293660046116f9565b610465565b005b6102086104ba565b600c5461024b906001600160a01b031681565b6040516001600160a01b039091168152602001610212565b61020860065481565b61022e61027a366004611714565b6104e2565b61024b7f000000000000000000000000000000000000000000000000000000000000000081565b610208610532565b600d5461024b906001600160a01b031681565b600b5461024b906001600160a01b031681565b61024b7f000000000000000000000000000000000000000000000000000000000000000081565b61022e6103093660046116f9565b610547565b600a5461024b906001600160a01b031681565b61020860055481565b61022e610338366004611803565b6105a6565b60095461024b906001600160a01b031681565b61024b7f000000000000000000000000000000000000000000000000000000000000000081565b61037f61083e565b6040519015158152602001610212565b61020861039d366004611714565b61086f565b6102086103b0366004611714565b6109d1565b60005461037f9060ff1681565b61022e610b13565b610208610b84565b6102086103e0366004611714565b610b9e565b61020860075481565b61022e6103fc3660046116f9565b610ce0565b61022e61040f366004611714565b610d3f565b61022e610422366004611714565b610d90565b610208610de1565b610208610ef1565b61020861160d565b61022e61044d366004611714565b611627565b61022e610460366004611714565b611678565b6009546001600160a01b031633146104985760405162461bcd60e51b815260040161048f906118cc565b60405180910390fd5b600a80546001600160a01b0319166001600160a01b0392909216919091179055565b60006103e860026104c9610de1565b6104d39190611904565b6104dd9190611923565b905090565b6009546001600160a01b0316331461050c5760405162461bcd60e51b815260040161048f906118cc565b603281111561052d5760405162461bcd60e51b815260040161048f90611945565b600555565b60006103e86001546006546104d39190611904565b6001600160a01b03811661055a57600080fd5b6009546001600160a01b031633146105845760405162461bcd60e51b815260040161048f906118cc565b600d80546001600160a01b0319166001600160a01b0392909216919091179055565b6008546001600160a01b031633146105bd57600080fd5b801561080e576040516340c10f1960e01b8152306004820152602481018290527f00000000000000000000000000000000000000000000000000000000000000006001600160a01b0316906340c10f19906044016020604051808303816000875af1158015610630573d6000803e3d6000fd5b505050506040513d601f19601f82011682018060405250810190610654919061196c565b5060405163095ea7b360e01b81526001600160a01b037f00000000000000000000000000000000000000000000000000000000000000008116600483015260001960248301527f0000000000000000000000000000000000000000000000000000000000000000169063095ea7b3906044016020604051808303816000875af11580156106e5573d6000803e3d6000fd5b505050506040513d601f19601f82011682018060405250810190610709919061196c565b5060005b835181101561080c577f00000000000000000000000000000000000000000000000000000000000000006001600160a01b031663d4e54c3b8483815181106107575761075761198e565b60200260200101516303bfc4008785815181106107765761077661198e565b60200260200101516040518463ffffffff1660e01b81526004016107b69392919092835260208301919091526001600160a01b0316604082015260600190565b6020604051808303816000875af11580156107d5573d6000803e3d6000fd5b505050506040513d601f19601f820116820180604052508101906107f991906119a4565b5080610804816119bd565b91505061070d565b505b600880546001600160a01b03191690556202a30061082c8142611923565b6108369190611904565b600755505050565b6007546000906108516202a300826119d6565b421015801561086957506008546001600160a01b0316155b91505090565b6000807f00000000000000000000000000000000000000000000000000000000000000006001600160a01b031663047fc9aa6040518163ffffffff1660e01b8152600401602060405180830381865afa1580156108d0573d6000803e3d6000fd5b505050506040513d601f19601f820116820180604052508101906108f491906119a4565b905060007f00000000000000000000000000000000000000000000000000000000000000006001600160a01b03166318160ddd6040518163ffffffff1660e01b8152600401602060405180830381865afa158015610956573d6000803e3d6000fd5b505050506040513d601f19601f8201168201806040525081019061097a91906119a4565b905060008161098b6103e885611904565b6109959190611923565b905060025481106109c4576103e8600254866109b19190611904565b6109bb9190611923565b95945050505050565b6103e86109b18287611904565b6000807f00000000000000000000000000000000000000000000000000000000000000006001600160a01b031663047fc9aa6040518163ffffffff1660e01b8152600401602060405180830381865afa158015610a32573d6000803e3d6000fd5b505050506040513d601f19601f82011682018060405250810190610a5691906119a4565b905060007f00000000000000000000000000000000000000000000000000000000000000006001600160a01b03166318160ddd6040518163ffffffff1660e01b8152600401602060405180830381865afa158015610ab8573d6000803e3d6000fd5b505050506040513d601f19601f82011682018060405250810190610adc91906119a4565b9050600081610aed6103e885611904565b610af79190611923565b905060035481106109c4576103e8600354866109b19190611904565b600a546001600160a01b03163314610b605760405162461bcd60e51b815260206004820152601060248201526f6e6f742070656e64696e67207465616d60801b604482015260640161048f565b600a54600980546001600160a01b0319166001600160a01b03909216919091179055565b60006104dd610b91610532565b610b996104ba565b6116c9565b6000807f00000000000000000000000000000000000000000000000000000000000000006001600160a01b031663047fc9aa6040518163ffffffff1660e01b8152600401602060405180830381865afa158015610bff573d6000803e3d6000fd5b505050506040513d601f19601f82011682018060405250810190610c2391906119a4565b905060007f00000000000000000000000000000000000000000000000000000000000000006001600160a01b03166318160ddd6040518163ffffffff1660e01b8152600401602060405180830381865afa158015610c85573d6000803e3d6000fd5b505050506040513d601f19601f82011682018060405250810190610ca991906119a4565b9050600081610cba6103e885611904565b610cc49190611923565b905060045481106109c4576103e8600454866109b19190611904565b6001600160a01b038116610cf357600080fd5b6009546001600160a01b03163314610d1d5760405162461bcd60e51b815260040161048f906118cc565b600b80546001600160a01b0319166001600160a01b0392909216919091179055565b6009546001600160a01b03163314610d695760405162461bcd60e51b815260040161048f906118cc565b6103e8811115610d8b5760405162461bcd60e51b815260040161048f90611945565b600155565b6009546001600160a01b03163314610dba5760405162461bcd60e51b815260040161048f906118cc565b6103e8811115610ddc5760405162461bcd60e51b815260040161048f90611945565b600255565b60007f00000000000000000000000000000000000000000000000000000000000000006001600160a01b031663047fc9aa6040518163ffffffff1660e01b8152600401602060405180830381865afa158015610e41573d6000803e3d6000fd5b505050506040513d601f19601f82011682018060405250810190610e6591906119a4565b7f00000000000000000000000000000000000000000000000000000000000000006001600160a01b03166318160ddd6040518163ffffffff1660e01b8152600401602060405180830381865afa158015610ec3573d6000803e3d6000fd5b505050506040513d601f19601f82011682018060405250810190610ee791906119a4565b6104dd91906119ee565b600754600090610f046202a300826119d6565b4210158015610f1c57506008546001600160a01b0316155b15611608576202a300610f2f8142611923565b610f399190611904565b600781905560005490915060ff16610f5b57610f53610b84565b600655610f66565b6000805460ff191690555b6000610f7360065461086f565b90506000610f826006546109d1565b90506000610f91600654610b9e565b905060006103e8600554600654610fa89190611904565b610fb29190611923565b6006549091506000828486610fc789866119ee565b610fd191906119ee565b610fdb91906119ee565b610fe591906119ee565b6040516370a0823160e01b81523060048201529091506000906001600160a01b037f000000000000000000000000000000000000000000000000000000000000000016906370a0823190602401602060405180830381865afa15801561104f573d6000803e3d6000fd5b505050506040513d601f19601f8201168201806040525081019061107391906119a4565b905082811015611128576001600160a01b037f0000000000000000000000000000000000000000000000000000000000000000166340c10f19306110b784876119ee565b6040516001600160e01b031960e085901b1681526001600160a01b03909216600483015260248201526044016020604051808303816000875af1158015611102573d6000803e3d6000fd5b505050506040513d601f19601f82011682018060405250810190611126919061196c565b505b60095460405163a9059cbb60e01b81526001600160a01b039182166004820152602481018690527f00000000000000000000000000000000000000000000000000000000000000009091169063a9059cbb906044016020604051808303816000875af115801561119c573d6000803e3d6000fd5b505050506040513d601f19601f820116820180604052508101906111c0919061196c565b6111c957600080fd5b600b5460405163a9059cbb60e01b81526001600160a01b039182166004820152602481018890527f00000000000000000000000000000000000000000000000000000000000000009091169063a9059cbb906044016020604051808303816000875af115801561123d573d6000803e3d6000fd5b505050506040513d601f19601f82011682018060405250810190611261919061196c565b61126a57600080fd5b600c5460405163a9059cbb60e01b81526001600160a01b039182166004820152602481018790527f00000000000000000000000000000000000000000000000000000000000000009091169063a9059cbb906044016020604051808303816000875af11580156112de573d6000803e3d6000fd5b505050506040513d601f19601f82011682018060405250810190611302919061196c565b61130b57600080fd5b60405163a9059cbb60e01b81526001600160a01b037f000000000000000000000000000000000000000000000000000000000000000081166004830152602482018990527f0000000000000000000000000000000000000000000000000000000000000000169063a9059cbb906044016020604051808303816000875af115801561139a573d6000803e3d6000fd5b505050506040513d601f19601f820116820180604052508101906113be919061196c565b6113c757600080fd5b7f00000000000000000000000000000000000000000000000000000000000000006001600160a01b031663811a40fe6040518163ffffffff1660e01b8152600401600060405180830381600087803b15801561142257600080fd5b505af1158015611436573d6000803e3d6000fd5b505050507f00000000000000000000000000000000000000000000000000000000000000006001600160a01b031663b21ed5026040518163ffffffff1660e01b8152600401600060405180830381600087803b15801561149557600080fd5b505af11580156114a9573d6000803e3d6000fd5b5050600d5460405163095ea7b360e01b81526001600160a01b039182166004820152602481018690527f0000000000000000000000000000000000000000000000000000000000000000909116925063095ea7b391506044016020604051808303816000875af1158015611521573d6000803e3d6000fd5b505050506040513d601f19601f82011682018060405250810190611545919061196c565b50600d54604051633c6b16ab60e01b8152600481018490526001600160a01b0390911690633c6b16ab90602401600060405180830381600087803b15801561158c57600080fd5b505af11580156115a0573d6000803e3d6000fd5b50505050336001600160a01b03167fb4c03061fb5b7fed76389d5af8f2e0ddb09f8c70d1333abbb62582835e10accb6006546115da610de1565b6115e26104ba565b6040805193845260208401929092529082015260600160405180910390a2505050505050505b919050565b60006202a30061161d8142611923565b6104dd9190611904565b6009546001600160a01b031633146116515760405162461bcd60e51b815260040161048f906118cc565b6103e88111156116735760405162461bcd60e51b815260040161048f90611945565b600455565b6009546001600160a01b031633146116a25760405162461bcd60e51b815260040161048f906118cc565b6103e88111156116c45760405162461bcd60e51b815260040161048f90611945565b600355565b6000818310156116d957816116db565b825b9392505050565b80356001600160a01b038116811461160857600080fd5b60006020828403121561170b57600080fd5b6116db826116e2565b60006020828403121561172657600080fd5b5035919050565b634e487b7160e01b600052604160045260246000fd5b604051601f8201601f1916810167ffffffffffffffff8111828210171561176c5761176c61172d565b604052919050565b600067ffffffffffffffff82111561178e5761178e61172d565b5060051b60200190565b600082601f8301126117a957600080fd5b813560206117be6117b983611774565b611743565b82815260059290921b840181019181810190868411156117dd57600080fd5b8286015b848110156117f857803583529183019183016117e1565b509695505050505050565b60008060006060848603121561181857600080fd5b833567ffffffffffffffff8082111561183057600080fd5b818601915086601f83011261184457600080fd5b813560206118546117b983611774565b82815260059290921b8401810191818101908a84111561187357600080fd5b948201945b8386101561189857611889866116e2565b82529482019490820190611878565b975050870135925050808211156118ae57600080fd5b506118bb86828701611798565b925050604084013590509250925092565b6020808252600890820152676e6f74207465616d60c01b604082015260600190565b634e487b7160e01b600052601160045260246000fd5b600081600019048311821515161561191e5761191e6118ee565b500290565b60008261194057634e487b7160e01b600052601260045260246000fd5b500490565b6020808252600d908201526c0e4c2e8ca40e8dede40d0d2ced609b1b604082015260600190565b60006020828403121561197e57600080fd5b815180151581146116db57600080fd5b634e487b7160e01b600052603260045260246000fd5b6000602082840312156119b657600080fd5b5051919050565b6000600182016119cf576119cf6118ee565b5060010190565b600082198211156119e9576119e96118ee565b500190565b600082821015611a0057611a006118ee565b50039056fea2646970667358221220078b689bd35cd6368856f4890e66ef0cab3fde72ef1cf517b736ffb4d0e4b86664736f6c634300080d0033",
  "linkReferences": {},
  "deployedLinkReferences": {}
}