{
  "_format": "hh-sol-artifact-1",
  "contractName": "StakingNFTFeeConverter",
  "sourceName": "contracts/StakingNFTFeeConverter.sol",
  "abi": [
    {
      "inputs": [],
      "stateMutability": "nonpayable",
      "type": "constructor"
    },
    {
      "anonymous": false,
      "inputs": [
        {
          "indexed": true,
          "internalType": "address",
          "name": "_pair",
          "type": "address"
        },
        {
          "indexed": false,
          "internalType": "uint256",
          "name": "timestamp",
          "type": "uint256"
        }
      ],
      "name": "ClaimFee",
      "type": "event"
    },
    {
      "anonymous": false,
      "inputs": [
        {
          "indexed": true,
          "internalType": "address",
          "name": "_pair",
          "type": "address"
        },
        {
          "indexed": false,
          "internalType": "uint256",
          "name": "timestamp",
          "type": "uint256"
        }
      ],
      "name": "ClaimFeeError",
      "type": "event"
    },
    {
      "anonymous": false,
      "inputs": [
        {
          "indexed": false,
          "internalType": "uint256",
          "name": "_timestamp",
          "type": "uint256"
        },
        {
          "indexed": false,
          "internalType": "uint256",
          "name": "_wIOTXAmount",
          "type": "uint256"
        }
      ],
      "name": "StakingReward",
      "type": "event"
    },
    {
      "anonymous": false,
      "inputs": [
        {
          "indexed": true,
          "internalType": "address",
          "name": "_tokenIn",
          "type": "address"
        },
        {
          "indexed": false,
          "internalType": "uint256",
          "name": "_balanceIn",
          "type": "uint256"
        },
        {
          "indexed": false,
          "internalType": "uint256",
          "name": "timestamp",
          "type": "uint256"
        }
      ],
      "name": "SwapError",
      "type": "event"
    },
    {
      "anonymous": false,
      "inputs": [
        {
          "indexed": false,
          "internalType": "address",
          "name": "oldOwner",
          "type": "address"
        },
        {
          "indexed": false,
          "internalType": "address",
          "name": "newOwner",
          "type": "address"
        }
      ],
      "name": "TransferOwnership",
      "type": "event"
    },
    {
      "inputs": [],
      "name": "_pairs",
      "outputs": [
        {
          "internalType": "address[]",
          "name": "",
          "type": "address[]"
        }
      ],
      "stateMutability": "view",
      "type": "function"
    },
    {
      "inputs": [],
      "name": "_tokens",
      "outputs": [
        {
          "internalType": "address[]",
          "name": "",
          "type": "address[]"
        }
      ],
      "stateMutability": "view",
      "type": "function"
    },
    {
      "inputs": [
        {
          "internalType": "address",
          "name": "token",
          "type": "address"
        },
        {
          "components": [
            {
              "internalType": "address",
              "name": "from",
              "type": "address"
            },
            {
              "internalType": "address",
              "name": "to",
              "type": "address"
            },
            {
              "internalType": "bool",
              "name": "stable",
              "type": "bool"
            }
          ],
          "internalType": "struct IRouter01.route",
          "name": "routes",
          "type": "tuple"
        }
      ],
      "name": "addToken",
      "outputs": [],
      "stateMutability": "nonpayable",
      "type": "function"
    },
    {
      "inputs": [],
      "name": "claimFees",
      "outputs": [],
      "stateMutability": "nonpayable",
      "type": "function"
    },
    {
      "inputs": [
        {
          "internalType": "address",
          "name": "_pair",
          "type": "address"
        }
      ],
      "name": "claimSingleFee",
      "outputs": [],
      "stateMutability": "nonpayable",
      "type": "function"
    },
    {
      "inputs": [
        {
          "internalType": "address",
          "name": "",
          "type": "address"
        }
      ],
      "name": "isKeeper",
      "outputs": [
        {
          "internalType": "bool",
          "name": "",
          "type": "bool"
        }
      ],
      "stateMutability": "view",
      "type": "function"
    },
    {
      "inputs": [
        {
          "internalType": "address",
          "name": "",
          "type": "address"
        }
      ],
      "name": "isToken",
      "outputs": [
        {
          "internalType": "bool",
          "name": "",
          "type": "bool"
        }
      ],
      "stateMutability": "view",
      "type": "function"
    },
    {
      "inputs": [],
      "name": "lastRewardtime",
      "outputs": [
        {
          "internalType": "uint256",
          "name": "",
          "type": "uint256"
        }
      ],
      "stateMutability": "view",
      "type": "function"
    },
    {
      "inputs": [],
      "name": "masterchef",
      "outputs": [
        {
          "internalType": "address",
          "name": "",
          "type": "address"
        }
      ],
      "stateMutability": "view",
      "type": "function"
    },
    {
      "inputs": [],
      "name": "owner",
      "outputs": [
        {
          "internalType": "address",
          "name": "",
          "type": "address"
        }
      ],
      "stateMutability": "view",
      "type": "function"
    },
    {
      "inputs": [],
      "name": "pairFactory",
      "outputs": [
        {
          "internalType": "address",
          "name": "",
          "type": "address"
        }
      ],
      "stateMutability": "view",
      "type": "function"
    },
    {
      "inputs": [
        {
          "internalType": "uint256",
          "name": "",
          "type": "uint256"
        }
      ],
      "name": "pairs",
      "outputs": [
        {
          "internalType": "address",
          "name": "",
          "type": "address"
        }
      ],
      "stateMutability": "view",
      "type": "function"
    },
    {
      "inputs": [
        {
          "internalType": "address",
          "name": "_keeper",
          "type": "address"
        }
      ],
      "name": "removeKeeper",
      "outputs": [],
      "stateMutability": "nonpayable",
      "type": "function"
    },
    {
      "inputs": [
        {
          "internalType": "address",
          "name": "token",
          "type": "address"
        }
      ],
      "name": "removeToken",
      "outputs": [],
      "stateMutability": "nonpayable",
      "type": "function"
    },
    {
      "inputs": [],
      "name": "router",
      "outputs": [
        {
          "internalType": "address",
          "name": "",
          "type": "address"
        }
      ],
      "stateMutability": "view",
      "type": "function"
    },
    {
      "inputs": [],
      "name": "setDistribution",
      "outputs": [],
      "stateMutability": "nonpayable",
      "type": "function"
    },
    {
      "inputs": [
        {
          "internalType": "address",
          "name": "_keeper",
          "type": "address"
        }
      ],
      "name": "setKeeper",
      "outputs": [],
      "stateMutability": "nonpayable",
      "type": "function"
    },
    {
      "inputs": [
        {
          "internalType": "address",
          "name": "_masterchef",
          "type": "address"
        }
      ],
      "name": "setMasterchef",
      "outputs": [],
      "stateMutability": "nonpayable",
      "type": "function"
    },
    {
      "inputs": [
        {
          "internalType": "address[]",
          "name": "__pairs",
          "type": "address[]"
        }
      ],
      "name": "setPair",
      "outputs": [],
      "stateMutability": "nonpayable",
      "type": "function"
    },
    {
      "inputs": [
        {
          "internalType": "address",
          "name": "_pairFactory",
          "type": "address"
        }
      ],
      "name": "setPairFactory",
      "outputs": [],
      "stateMutability": "nonpayable",
      "type": "function"
    },
    {
      "inputs": [
        {
          "internalType": "address",
          "name": "_router",
          "type": "address"
        }
      ],
      "name": "setRouter",
      "outputs": [],
      "stateMutability": "nonpayable",
      "type": "function"
    },
    {
      "inputs": [
        {
          "internalType": "address",
          "name": "token",
          "type": "address"
        },
        {
          "components": [
            {
              "internalType": "address",
              "name": "from",
              "type": "address"
            },
            {
              "internalType": "address",
              "name": "to",
              "type": "address"
            },
            {
              "internalType": "bool",
              "name": "stable",
              "type": "bool"
            }
          ],
          "internalType": "struct IRouter01.route",
          "name": "routes",
          "type": "tuple"
        }
      ],
      "name": "setRoutesFor",
      "outputs": [],
      "stateMutability": "nonpayable",
      "type": "function"
    },
    {
      "inputs": [],
      "name": "swap",
      "outputs": [],
      "stateMutability": "nonpayable",
      "type": "function"
    },
    {
      "inputs": [
        {
          "internalType": "uint256",
          "name": "amountIn",
          "type": "uint256"
        },
        {
          "internalType": "uint256",
          "name": "amountOutMin",
          "type": "uint256"
        },
        {
          "components": [
            {
              "internalType": "address",
              "name": "from",
              "type": "address"
            },
            {
              "internalType": "address",
              "name": "to",
              "type": "address"
            },
            {
              "internalType": "bool",
              "name": "stable",
              "type": "bool"
            }
          ],
          "internalType": "struct IRouter01.route[]",
          "name": "_routes",
          "type": "tuple[]"
        },
        {
          "internalType": "uint256",
          "name": "deadline",
          "type": "uint256"
        }
      ],
      "name": "swapManual",
      "outputs": [
        {
          "internalType": "uint256[]",
          "name": "amounts",
          "type": "uint256[]"
        }
      ],
      "stateMutability": "nonpayable",
      "type": "function"
    },
    {
      "inputs": [
        {
          "internalType": "address",
          "name": "",
          "type": "address"
        }
      ],
      "name": "tokenToRoutes",
      "outputs": [
        {
          "internalType": "address",
          "name": "from",
          "type": "address"
        },
        {
          "internalType": "address",
          "name": "to",
          "type": "address"
        },
        {
          "internalType": "bool",
          "name": "stable",
          "type": "bool"
        }
      ],
      "stateMutability": "view",
      "type": "function"
    },
    {
      "inputs": [
        {
          "internalType": "uint256",
          "name": "",
          "type": "uint256"
        }
      ],
      "name": "tokens",
      "outputs": [
        {
          "internalType": "address",
          "name": "",
          "type": "address"
        }
      ],
      "stateMutability": "view",
      "type": "function"
    },
    {
      "inputs": [
        {
          "internalType": "address",
          "name": "newOwner",
          "type": "address"
        }
      ],
      "name": "transferOwnership",
      "outputs": [],
      "stateMutability": "nonpayable",
      "type": "function"
    },
    {
      "inputs": [],
      "name": "wIOTX",
      "outputs": [
        {
          "internalType": "address",
          "name": "",
          "type": "address"
        }
      ],
      "stateMutability": "view",
      "type": "function"
    },
    {
      "inputs": [
        {
          "internalType": "address",
          "name": "_token",
          "type": "address"
        }
      ],
      "name": "withdrawERC20",
      "outputs": [],
      "stateMutability": "nonpayable",
      "type": "function"
    }
  ],
  "bytecode": "0x608060405234801561001057600080fd5b50600380546001600160a01b0319908116331790915560008055600280549091167387b873224ead2a8cbbb7cfb39b18a795e7da8cc7179055612396806100586000396000f3fe608060405234801561001057600080fd5b50600436106101ce5760003560e01c80638970d84c11610104578063bd98194c116100a2578063f2fde38b11610071578063f2fde38b14610439578063f4f3b2001461044c578063f887ea401461045f578063fb1db2781461047257600080fd5b8063bd98194c146103f8578063c0d786551461040b578063d294f0931461041e578063e14f870d1461042657600080fd5b8063933baa86116100de578063933baa86146103a85780639fbf5771146103bb578063a0d91a28146103ce578063b91ac788146103e557600080fd5b80638970d84c1461037a5780638da5cb5b146103825780638e6e38461461039557600080fd5b80636ba42aaa1161017157806374f6b2c51161014b57806374f6b2c5146103375780637964bac91461033f5780638119c065146103525780638594e9e61461035a57600080fd5b80636ba42aaa146102ee578063748747e61461031157806374e741f81461032457600080fd5b80634b55c2c6116101ad5780634b55c2c6146102335780634f64b2be1461029b578063586960dd146102c65780635fa7b584146102db57600080fd5b8062a0ce06146101d357806314ae9f2e146101e857806319f37361146101fb575b600080fd5b6101e66101e1366004611d9b565b610485565b005b6101e66101f6366004611e3a565b610583565b61021e610209366004611e3a565b60086020526000908152604090205460ff1681565b60405190151581526020015b60405180910390f35b610273610241366004611e3a565b600a60205260009081526040902080546001909101546001600160a01b0391821691811690600160a01b900460ff1683565b604080516001600160a01b03948516815293909216602084015215159082015260600161022a565b6102ae6102a9366004611e5e565b61060b565b6040516001600160a01b03909116815260200161022a565b6102ce610635565b60405161022a9190611e77565b6101e66102e9366004611e3a565b610697565b61021e6102fc366004611e3a565b600b6020526000908152604090205460ff1681565b6101e661031f366004611e3a565b61087b565b6002546102ae906001600160a01b031681565b6101e6610902565b6101e661034d366004611e3a565b610a80565b6101e6610af2565b61036d610368366004611ec4565b610f00565b60405161022a9190611f4f565b6102ce610fd6565b6003546102ae906001600160a01b031681565b6101e66103a3366004611e3a565b611036565b6101e66103b6366004611e3a565b6110e8565b6101e66103c9366004611f95565b61115a565b6103d760005481565b60405190815260200161022a565b6102ae6103f3366004611e5e565b61127b565b6101e6610406366004611f95565b61128b565b6101e6610419366004611e3a565b611379565b6101e66113eb565b6005546102ae906001600160a01b031681565b6101e6610447366004611e3a565b61161f565b6101e661045a366004611e3a565b61170f565b6004546102ae906001600160a01b031681565b6001546102ae906001600160a01b031681565b6003546001600160a01b031633146104b85760405162461bcd60e51b81526004016104af90612030565b60405180910390fd5b60005b815181101561057f5760006001600160a01b03168282815181106104e1576104e1612055565b60200260200101516001600160a01b0316036104fc57600080fd5b61051e82828151811061051157610511612055565b60200260200101516117c4565b600782828151811061053257610532612055565b60209081029190910181015182546001810184556000938452919092200180546001600160a01b0319166001600160a01b039092169190911790558061057781612081565b9150506104bb565b5050565b6003546001600160a01b031633146105ad5760405162461bcd60e51b81526004016104af90612030565b6001600160a01b0381166105c057600080fd5b6001600160a01b0381166000908152600b602052604090205460ff1615156001146105ea57600080fd5b6001600160a01b03166000908152600b60205260409020805460ff19169055565b6006818154811061061b57600080fd5b6000918252602090912001546001600160a01b0316905081565b6060600780548060200260200160405190810160405280929190818152602001828054801561068d57602002820191906000526020600020905b81546001600160a01b0316815260019091019060200180831161066f575b5050505050905090565b6003546001600160a01b031633146106c15760405162461bcd60e51b81526004016104af90612030565b6001600160a01b0381166106d457600080fd5b6001600160a01b03811660009081526008602052604090205460ff1615156001146106fe57600080fd5b6001600160a01b03811660009081526009602090815260408083208054600a845282852080546001600160a01b03199081168255600180830180546001600160a81b03199081168255958990558354909216909255805490931690925560089093529220805460ff191690556006549091829161077b919061209a565b036107b7576006805480610791576107916120b1565b600082815260209020810160001990810180546001600160a01b03191690550190555050565b60068054600091906107cb9060019061209a565b815481106107db576107db612055565b600091825260209091200154600680546001600160a01b03909216925082918490811061080a5761080a612055565b600091825260208083209190910180546001600160a01b0319166001600160a01b0394851617905591831681526009909152604090208290556006805480610854576108546120b1565b600082815260209020810160001990810180546001600160a01b0319169055019055505050565b6003546001600160a01b031633146108a55760405162461bcd60e51b81526004016104af90612030565b6001600160a01b0381166108b857600080fd5b6001600160a01b0381166000908152600b602052604090205460ff16156108de57600080fd5b6001600160a01b03166000908152600b60205260409020805460ff19166001179055565b336000908152600b602052604090205460ff1615156001148061092f57506003546001600160a01b031633145b61094b5760405162461bcd60e51b81526004016104af906120c7565b6002546040516370a0823160e01b81523060048201526000916001600160a01b0316906370a0823190602401602060405180830381865afa158015610994573d6000803e3d6000fd5b505050506040513d601f19601f820116820180604052508101906109b891906120eb565b6002546001549192506109d8916001600160a01b03918216911683611af0565b600154604051639e2b33db60e01b815260048101839052600060248201526001600160a01b0390911690639e2b33db90604401600060405180830381600087803b158015610a2557600080fd5b505af1158015610a39573d6000803e3d6000fd5b505042600081905560408051918252602082018590527f4b7716bc5b5b26ece4410befaf3e3f5432de88e4593fdc339eaef715d0a0489c935001905060405180910390a150565b6003546001600160a01b03163314610aaa5760405162461bcd60e51b81526004016104af90612030565b6001600160a01b038116610ad05760405162461bcd60e51b81526004016104af90612104565b600580546001600160a01b0319166001600160a01b0392909216919091179055565b336000908152600b602052604090205460ff16151560011480610b1f57506003546001600160a01b031633145b610b3b5760405162461bcd60e51b81526004016104af906120c7565b60408051600180825281830190925260009182918291829190816020015b6040805160608101825260008082526020808301829052928201528252600019909201910181610b59579050509050600091505b600654821015610dc45760068281548110610baa57610baa612055565b6000918252602090912001546040516370a0823160e01b81523060048201526001600160a01b03909116935083906370a0823190602401602060405180830381865afa158015610bfe573d6000803e3d6000fd5b505050506040513d601f19601f82011682018060405250810190610c2291906120eb565b9350600084118015610c4c57506001600160a01b03831660009081526008602052604090205460ff165b15610db2576001600160a01b038381166000908152600a60209081526040808320815160608101835281548616815260019091015494851692810192909252600160a01b90930460ff161515928101929092528251839190610cb057610cb0612055565b6020908102919091010152600454610cd49084906001600160a01b03166000611be9565b600454610cec9084906001600160a01b031686611be9565b60048054604051631e82ecdb60e31b81526001600160a01b039091169163f41766d891610d2491889160019187913091429101612124565b6000604051808303816000875af1925050508015610d6457506040513d6000823e601f3d908101601f19168201604052610d6191908101906121b9565b60015b610db057604080518581524260208201526001600160a01b038516917f24bb57c4c135223eb3fa5d03c9aa5958f103cc3ec9b2d7c8d35fffad65779d06910160405180910390a2610db2565b505b81610dbc81612081565b925050610b8d565b6002546040516370a0823160e01b81523060048201526001600160a01b03909116906370a0823190602401602060405180830381865afa158015610e0c573d6000803e3d6000fd5b505050506040513d601f19601f82011682018060405250810190610e3091906120eb565b93508315610ebb57600254600154610e55916001600160a01b03908116911686611af0565b600154604051639e2b33db60e01b815260048101869052600060248201526001600160a01b0390911690639e2b33db90604401600060405180830381600087803b158015610ea257600080fd5b505af1158015610eb6573d6000803e3d6000fd5b505050505b42600081905560408051918252602082018690527f4b7716bc5b5b26ece4410befaf3e3f5432de88e4593fdc339eaef715d0a0489c910160405180910390a150505050565b336000908152600b602052604090205460609060ff16151560011480610f3057506003546001600160a01b031633145b610f4c5760405162461bcd60e51b81526004016104af906120c7565b60048054604051631e82ecdb60e31b81526001600160a01b039091169163f41766d891610f85918a918a918a918a9130918b910161223f565b6000604051808303816000875af1158015610fa4573d6000803e3d6000fd5b505050506040513d6000823e601f3d908101601f19168201604052610fcc91908101906121b9565b9695505050505050565b6060600680548060200260200160405190810160405280929190818152602001828054801561068d576020028201919060005260206000209081546001600160a01b0316815260019091019060200180831161066f575050505050905090565b336000908152600b602052604090205460ff1615156001148061106357506003546001600160a01b031633145b61107f5760405162461bcd60e51b81526004016104af906120c7565b6001600160a01b03811661109257600080fd5b806001600160a01b031663f083be3b6040518163ffffffff1660e01b8152600401600060405180830381600087803b1580156110cd57600080fd5b505af11580156110e1573d6000803e3d6000fd5b5050505050565b6003546001600160a01b031633146111125760405162461bcd60e51b81526004016104af90612030565b6001600160a01b0381166111385760405162461bcd60e51b81526004016104af90612104565b600180546001600160a01b0319166001600160a01b0392909216919091179055565b6003546001600160a01b031633146111845760405162461bcd60e51b81526004016104af90612030565b6001600160a01b03821661119757600080fd5b6001600160a01b03821660009081526008602052604090205460ff16156111bd57600080fd5b6001600160a01b039182166000818152600860209081526040808320805460ff19166001908117909155600a8352818420865181549089166001600160a01b0319918216178255878501519183018054988501511515600160a01b026001600160a81b031990991692909916919091179690961790965560068054600990935290832082905594810185559390527ff652222313e28459528d920b65115c16c04f3efc82aaedc97be59f3f377c0d3f90920180549091169091179055565b6007818154811061061b57600080fd5b6003546001600160a01b031633146112b55760405162461bcd60e51b81526004016104af90612030565b6001600160a01b0382166112c857600080fd5b6001600160a01b03821660009081526008602052604090205460ff1615156001146112f257600080fd5b816001600160a01b031681600001516001600160a01b03161461131457600080fd5b6001600160a01b039182166000908152600a6020908152604091829020835181549086166001600160a01b0319909116178155908301516001909101805492909301511515600160a01b026001600160a81b0319909216931692909217919091179055565b6003546001600160a01b031633146113a35760405162461bcd60e51b81526004016104af90612030565b6001600160a01b0381166113c95760405162461bcd60e51b81526004016104af90612104565b600480546001600160a01b0319166001600160a01b0392909216919091179055565b336000908152600b602052604090205460ff1615156001148061141857506003546001600160a01b031633145b6114345760405162461bcd60e51b81526004016104af906120c7565b600754600090818167ffffffffffffffff81111561145457611454611d18565b60405190808252806020026020018201604052801561147d578160200160208202803683370190505b5060078054604080516020808402820181019092528281529394508301828280156114d157602002820191906000526020600020905b81546001600160a01b031681526001909101906020018083116114b3575b505050505090505b8183101561161a578083815181106114f3576114f3612055565b60200260200101516001600160a01b031663f083be3b6040518163ffffffff1660e01b8152600401600060405180830381600087803b15801561153557600080fd5b505af1925050508015611546575060015b6115ab5780838151811061155c5761155c612055565b60200260200101516001600160a01b03167fe1563b4dfb06394fe84449e66b5c42f40347d03a3e1398ffeeb85a298cc338ea4260405161159e91815260200190565b60405180910390a2611608565b8083815181106115bd576115bd612055565b60200260200101516001600160a01b03167ff40b9ca28516abde647ef8ed0e7b155e16347eb4d8dd6eb29989ed2c0c3d27e8426040516115ff91815260200190565b60405180910390a25b8261161281612081565b9350506114d9565b505050565b6003546001600160a01b031633146116495760405162461bcd60e51b81526004016104af90612030565b6001600160a01b0381166116ae5760405162461bcd60e51b815260206004820152602660248201527f4f776e61626c653a206e6577206f776e657220697320746865207a65726f206160448201526564647265737360d01b60648201526084016104af565b600380546001600160a01b038381166001600160a01b031983168117909355604080519190921680825260208201939093527f5c486528ec3e3f0ea91181cff8116f02bfa350e03b8b6f12e00765adbb5af85c910160405180910390a15050565b6003546001600160a01b031633146117395760405162461bcd60e51b81526004016104af90612030565b6001600160a01b03811661174c57600080fd5b6040516370a0823160e01b81523060048201526000906001600160a01b038316906370a0823190602401602060405180830381865afa158015611793573d6000803e3d6000fd5b505050506040513d601f19601f820116820180604052508101906117b791906120eb565b905061057f823383611af0565b6001600160a01b0381166117d757600080fd5b6000816001600160a01b0316630dfe16816040518163ffffffff1660e01b8152600401602060405180830381865afa158015611817573d6000803e3d6000fd5b505050506040513d601f19601f8201168201806040525081019061183b91906122eb565b90506000826001600160a01b031663d21220a76040518163ffffffff1660e01b8152600401602060405180830381865afa15801561187d573d6000803e3d6000fd5b505050506040513d601f19601f820116820180604052508101906118a191906122eb565b90506001600160a01b0382166118b657600080fd5b6001600160a01b0381166118c957600080fd5b60408051606081018252600080825260208201819052918101919091526002546001600160a01b0384811691161480159061191d57506001600160a01b03831660009081526008602052604090205460ff16155b156119e8576001600160a01b038084168083526002548216602080850191825260006040808701828152858352600a8452818320885181549089166001600160a01b031991821617825595516001918201805493511515600160a01b026001600160a81b031990941691909916179190911790965560088352808220805460ff1916871790556006805460099094529082208390559482018555939093527ff652222313e28459528d920b65115c16c04f3efc82aaedc97be59f3f377c0d3f90920180549092161790555b6002546001600160a01b03838116911614801590611a1f57506001600160a01b03821660009081526008602052604090205460ff16155b15611aea576001600160a01b038083168083526002548216602080850191825260006040808701828152858352600a8452818320885181549089166001600160a01b031991821617825595516001918201805493511515600160a01b026001600160a81b031990941691909916179190911790965560088352808220805460ff1916871790556006805460099094529082208390559482018555939093527ff652222313e28459528d920b65115c16c04f3efc82aaedc97be59f3f377c0d3f90920180549092161790555b50505050565b6000836001600160a01b03163b11611b0757600080fd5b6040516001600160a01b03838116602483015260448201839052600091829186169063a9059cbb60e01b906064015b60408051601f198184030181529181526020820180516001600160e01b03166001600160e01b0319909416939093179092529051611b749190612308565b6000604051808303816000865af19150503d8060008114611bb1576040519150601f19603f3d011682016040523d82523d6000602084013e611bb6565b606091505b5091509150818015611be0575080511580611be0575080806020019051810190611be09190612343565b6110e157600080fd5b6000836001600160a01b03163b11611c0057600080fd5b801580611c7a5750604051636eb1769f60e11b81523060048201526001600160a01b03838116602483015284169063dd62ed3e90604401602060405180830381865afa158015611c54573d6000803e3d6000fd5b505050506040513d601f19601f82011682018060405250810190611c7891906120eb565b155b611ce55760405162461bcd60e51b815260206004820152603660248201527f5361666545524332303a20617070726f76652066726f6d206e6f6e2d7a65726f60448201527520746f206e6f6e2d7a65726f20616c6c6f77616e636560501b60648201526084016104af565b6040516001600160a01b03838116602483015260448201839052600091829186169063095ea7b360e01b90606401611b36565b634e487b7160e01b600052604160045260246000fd5b604051601f8201601f1916810167ffffffffffffffff81118282101715611d5757611d57611d18565b604052919050565b600067ffffffffffffffff821115611d7957611d79611d18565b5060051b60200190565b6001600160a01b0381168114611d9857600080fd5b50565b60006020808385031215611dae57600080fd5b823567ffffffffffffffff811115611dc557600080fd5b8301601f81018513611dd657600080fd5b8035611de9611de482611d5f565b611d2e565b81815260059190911b82018301908381019087831115611e0857600080fd5b928401925b82841015611e2f578335611e2081611d83565b82529284019290840190611e0d565b979650505050505050565b600060208284031215611e4c57600080fd5b8135611e5781611d83565b9392505050565b600060208284031215611e7057600080fd5b5035919050565b6020808252825182820181905260009190848201906040850190845b81811015611eb85783516001600160a01b031683529284019291840191600101611e93565b50909695505050505050565b600080600080600060808688031215611edc57600080fd5b8535945060208601359350604086013567ffffffffffffffff80821115611f0257600080fd5b818801915088601f830112611f1657600080fd5b813581811115611f2557600080fd5b896020606083028501011115611f3a57600080fd5b96999598505060200195606001359392505050565b6020808252825182820181905260009190848201906040850190845b81811015611eb857835183529284019291840191600101611f6b565b8015158114611d9857600080fd5b6000808284036080811215611fa957600080fd5b8335611fb481611d83565b92506060601f1982011215611fc857600080fd5b506040516060810181811067ffffffffffffffff82111715611fec57611fec611d18565b6040526020840135611ffd81611d83565b8152604084013561200d81611d83565b6020820152606084013561202081611f87565b6040820152919491935090915050565b6020808252600b908201526a1b9bdd08185b1b1bddd95960aa1b604082015260600190565b634e487b7160e01b600052603260045260246000fd5b634e487b7160e01b600052601160045260246000fd5b6000600182016120935761209361206b565b5060010190565b6000828210156120ac576120ac61206b565b500390565b634e487b7160e01b600052603160045260246000fd5b6020808252600a90820152693737ba1035b2b2b832b960b11b604082015260600190565b6000602082840312156120fd57600080fd5b5051919050565b60208082526006908201526506164647220360d41b604082015260600190565b600060a0820187835260208781850152604060a08186015282885180855260c087019150838a01945060005b8181101561218d57855180516001600160a01b03908116855286820151168685015284015115158484015294840194606090920191600101612150565b50506001600160a01b038816606087015293506121a992505050565b8260808301529695505050505050565b600060208083850312156121cc57600080fd5b825167ffffffffffffffff8111156121e357600080fd5b8301601f810185136121f457600080fd5b8051612202611de482611d5f565b81815260059190911b8201830190838101908783111561222157600080fd5b928401925b82841015611e2f57835182529284019290840190612226565b600060a0820188835260208881850152604060a0818601528288845260c08601905089935060005b898110156122bf57843561227a81611d83565b6001600160a01b039081168352858501359061229582611d83565b1682850152848301356122a781611f87565b15158284015260609485019490910190600101612267565b506001600160a01b038816606087015293506122da92505050565b826080830152979650505050505050565b6000602082840312156122fd57600080fd5b8151611e5781611d83565b6000825160005b81811015612329576020818601810151858301520161230f565b81811115612338576000828501525b509190910192915050565b60006020828403121561235557600080fd5b8151611e5781611f8756fea26469706673582212205053f4115402dbdf06235bd931a1d33311be4888e064b63d88ae3dc5c37dbf0c64736f6c634300080d0033",
  "linkReferences": {},
  "deployedLinkReferences": {}
}