{
  "_format": "hh-sol-artifact-1",
  "contractName": "TraderRewards",
  "sourceName": "contracts/TradersReward.sol",
  "abi": [
    {
      "inputs": [
        {
          "internalType": "contract IERC20",
          "name": "_rewardToken",
          "type": "address"
        },
        {
          "internalType": "address",
          "name": "_fundAddress",
          "type": "address"
        }
      ],
      "stateMutability": "nonpayable",
      "type": "constructor"
    },
    {
      "anonymous": false,
      "inputs": [
        {
          "indexed": false,
          "internalType": "uint256",
          "name": "newDeadline",
          "type": "uint256"
        }
      ],
      "name": "DeadlineUpdated",
      "type": "event"
    },
    {
      "anonymous": false,
      "inputs": [
        {
          "indexed": true,
          "internalType": "uint256",
          "name": "epoch",
          "type": "uint256"
        },
        {
          "indexed": false,
          "internalType": "string",
          "name": "dataURI",
          "type": "string"
        }
      ],
      "name": "EpochDataURIUpdated",
      "type": "event"
    },
    {
      "anonymous": false,
      "inputs": [
        {
          "indexed": false,
          "internalType": "address",
          "name": "newFundAddress",
          "type": "address"
        }
      ],
      "name": "FundAddressUpdated",
      "type": "event"
    },
    {
      "anonymous": false,
      "inputs": [
        {
          "indexed": true,
          "internalType": "address",
          "name": "previousOwner",
          "type": "address"
        },
        {
          "indexed": true,
          "internalType": "address",
          "name": "newOwner",
          "type": "address"
        }
      ],
      "name": "OwnershipTransferred",
      "type": "event"
    },
    {
      "anonymous": false,
      "inputs": [
        {
          "indexed": true,
          "internalType": "address",
          "name": "trader",
          "type": "address"
        },
        {
          "indexed": false,
          "internalType": "uint256",
          "name": "reward",
          "type": "uint256"
        }
      ],
      "name": "RewardClaimed",
      "type": "event"
    },
    {
      "anonymous": false,
      "inputs": [
        {
          "indexed": false,
          "internalType": "uint256",
          "name": "epoch",
          "type": "uint256"
        },
        {
          "indexed": false,
          "internalType": "bytes32",
          "name": "merkleRoot",
          "type": "bytes32"
        }
      ],
      "name": "RewardsUpdated",
      "type": "event"
    },
    {
      "anonymous": false,
      "inputs": [
        {
          "indexed": false,
          "internalType": "uint256",
          "name": "epoch",
          "type": "uint256"
        },
        {
          "indexed": false,
          "internalType": "uint256",
          "name": "amount",
          "type": "uint256"
        }
      ],
      "name": "UnclaimedRewardsWithdrawn",
      "type": "event"
    },
    {
      "inputs": [],
      "name": "CLAIM_DEADLINE",
      "outputs": [
        {
          "internalType": "uint256",
          "name": "",
          "type": "uint256"
        }
      ],
      "stateMutability": "view",
      "type": "function"
    },
    {
      "inputs": [],
      "name": "EPOCH_DURATION",
      "outputs": [
        {
          "internalType": "uint256",
          "name": "",
          "type": "uint256"
        }
      ],
      "stateMutability": "view",
      "type": "function"
    },
    {
      "inputs": [
        {
          "internalType": "address[]",
          "name": "_keepers",
          "type": "address[]"
        }
      ],
      "name": "addKeeper",
      "outputs": [],
      "stateMutability": "nonpayable",
      "type": "function"
    },
    {
      "inputs": [
        {
          "internalType": "uint256",
          "name": "epoch",
          "type": "uint256"
        },
        {
          "internalType": "uint256",
          "name": "rewardAmount",
          "type": "uint256"
        },
        {
          "internalType": "bytes32[]",
          "name": "merkleProof",
          "type": "bytes32[]"
        }
      ],
      "name": "claimReward",
      "outputs": [],
      "stateMutability": "nonpayable",
      "type": "function"
    },
    {
      "inputs": [
        {
          "internalType": "address",
          "name": "",
          "type": "address"
        },
        {
          "internalType": "uint256",
          "name": "",
          "type": "uint256"
        }
      ],
      "name": "claimedRewards",
      "outputs": [
        {
          "internalType": "uint256",
          "name": "",
          "type": "uint256"
        }
      ],
      "stateMutability": "view",
      "type": "function"
    },
    {
      "inputs": [],
      "name": "currentEpoch",
      "outputs": [
        {
          "internalType": "uint256",
          "name": "",
          "type": "uint256"
        }
      ],
      "stateMutability": "view",
      "type": "function"
    },
    {
      "inputs": [
        {
          "internalType": "uint256",
          "name": "",
          "type": "uint256"
        }
      ],
      "name": "epochDataURIs",
      "outputs": [
        {
          "internalType": "string",
          "name": "",
          "type": "string"
        }
      ],
      "stateMutability": "view",
      "type": "function"
    },
    {
      "inputs": [
        {
          "internalType": "uint256",
          "name": "",
          "type": "uint256"
        }
      ],
      "name": "epochMerkleRoots",
      "outputs": [
        {
          "internalType": "bytes32",
          "name": "",
          "type": "bytes32"
        }
      ],
      "stateMutability": "view",
      "type": "function"
    },
    {
      "inputs": [],
      "name": "fundAddress",
      "outputs": [
        {
          "internalType": "address",
          "name": "",
          "type": "address"
        }
      ],
      "stateMutability": "view",
      "type": "function"
    },
    {
      "inputs": [
        {
          "internalType": "address",
          "name": "",
          "type": "address"
        }
      ],
      "name": "isKeeper",
      "outputs": [
        {
          "internalType": "bool",
          "name": "",
          "type": "bool"
        }
      ],
      "stateMutability": "view",
      "type": "function"
    },
    {
      "inputs": [],
      "name": "lastUpdateTime",
      "outputs": [
        {
          "internalType": "uint256",
          "name": "",
          "type": "uint256"
        }
      ],
      "stateMutability": "view",
      "type": "function"
    },
    {
      "inputs": [],
      "name": "owner",
      "outputs": [
        {
          "internalType": "address",
          "name": "",
          "type": "address"
        }
      ],
      "stateMutability": "view",
      "type": "function"
    },
    {
      "inputs": [
        {
          "internalType": "address[]",
          "name": "_keepers",
          "type": "address[]"
        }
      ],
      "name": "removeKeeper",
      "outputs": [],
      "stateMutability": "nonpayable",
      "type": "function"
    },
    {
      "inputs": [],
      "name": "renounceOwnership",
      "outputs": [],
      "stateMutability": "nonpayable",
      "type": "function"
    },
    {
      "inputs": [],
      "name": "rewardToken",
      "outputs": [
        {
          "internalType": "contract IERC20",
          "name": "",
          "type": "address"
        }
      ],
      "stateMutability": "view",
      "type": "function"
    },
    {
      "inputs": [],
      "name": "rewardTokenBalance",
      "outputs": [
        {
          "internalType": "uint256",
          "name": "",
          "type": "uint256"
        }
      ],
      "stateMutability": "view",
      "type": "function"
    },
    {
      "inputs": [
        {
          "internalType": "uint256",
          "name": "",
          "type": "uint256"
        }
      ],
      "name": "totalClaimedPerEpoch",
      "outputs": [
        {
          "internalType": "uint256",
          "name": "",
          "type": "uint256"
        }
      ],
      "stateMutability": "view",
      "type": "function"
    },
    {
      "inputs": [
        {
          "internalType": "uint256",
          "name": "",
          "type": "uint256"
        }
      ],
      "name": "totalRewardsPerEpoch",
      "outputs": [
        {
          "internalType": "uint256",
          "name": "",
          "type": "uint256"
        }
      ],
      "stateMutability": "view",
      "type": "function"
    },
    {
      "inputs": [
        {
          "internalType": "address",
          "name": "newOwner",
          "type": "address"
        }
      ],
      "name": "transferOwnership",
      "outputs": [],
      "stateMutability": "nonpayable",
      "type": "function"
    },
    {
      "inputs": [
        {
          "internalType": "uint256",
          "name": "_epochNumber",
          "type": "uint256"
        }
      ],
      "name": "updateDeadline",
      "outputs": [],
      "stateMutability": "nonpayable",
      "type": "function"
    },
    {
      "inputs": [
        {
          "internalType": "uint256",
          "name": "epoch",
          "type": "uint256"
        },
        {
          "internalType": "string",
          "name": "newDataURI",
          "type": "string"
        }
      ],
      "name": "updateEpochDataURI",
      "outputs": [],
      "stateMutability": "nonpayable",
      "type": "function"
    },
    {
      "inputs": [
        {
          "internalType": "address",
          "name": "_newFundAddress",
          "type": "address"
        }
      ],
      "name": "updateFundAddress",
      "outputs": [],
      "stateMutability": "nonpayable",
      "type": "function"
    },
    {
      "inputs": [
        {
          "internalType": "bytes32",
          "name": "merkleRoot",
          "type": "bytes32"
        }
      ],
      "name": "updateRewards",
      "outputs": [],
      "stateMutability": "nonpayable",
      "type": "function"
    },
    {
      "inputs": [],
      "name": "withdrawERC20",
      "outputs": [],
      "stateMutability": "nonpayable",
      "type": "function"
    }
  ],
  "bytecode": "0x608060405260026009553480156200001657600080fd5b506040516200166c3803806200166c8339810160408190526200003991620000df565b620000443362000076565b600780546001600160a01b039384166001600160a01b031991821617909155600880549290931691161790556200011e565b600080546001600160a01b038381166001600160a01b0319831681178455604051919092169283917f8be0079c531659141344cd1fd0a4f28419497f9722a3daafe3b4186f6b6457e09190a35050565b6001600160a01b0381168114620000dc57600080fd5b50565b60008060408385031215620000f357600080fd5b82516200010081620000c6565b60208401519092506200011381620000c6565b809150509250929050565b61153e806200012e6000396000f3fe608060405234801561001057600080fd5b50600436106101585760003560e01c80637542b4d3116100c3578063b179f7d91161007c578063b179f7d9146102e7578063c8f33c9114610307578063e82bef2914610310578063f2fde38b14610323578063f7c618c114610336578063fb831b9a1461034957600080fd5b80637542b4d31461028157806375824f2314610294578063766718081461029c5780638da5cb5b146102a55780639821f5f2146102ca578063a70b9f0c146102dd57600080fd5b80634ab37b5e116101155780634ab37b5e146101e05780635b58c70c146102005780636ba42aaa146102135780636f6ae514146102465780636fce823414610266578063715018a61461027957600080fd5b80631d5459f71461015d57806321834eb2146101725780632bf1dec81461019b5780632ed6d5e8146101ae57806342af1884146101b657806342f81580146101c9575b600080fd5b61017061016b366004611149565b610374565b005b61018561018036600461116b565b61041e565b60405161019291906111b4565b60405180910390f35b6101706101a936600461116b565b6104b8565b610170610583565b6101706101c436600461116b565b610677565b6101d260095481565b604051908152602001610192565b6101d26101ee36600461116b565b60046020526000908152604090205481565b61017061020e3660046111e7565b610705565b610236610221366004611149565b600a6020526000908152604090205460ff1681565b6040519015158152602001610192565b6101d261025436600461116b565b60056020526000908152604090205481565b610170610274366004611279565b6107f8565b61017061088e565b61017061028f366004611279565b6108a2565b6101d2610931565b6101d260065481565b6000546001600160a01b03165b6040516001600160a01b039091168152602001610192565b6101706102d836600461133e565b6109a3565b6101d262093a8081565b6101d26102f536600461116b565b60016020526000908152604090205481565b6101d2600b5481565b6008546102b2906001600160a01b031681565b610170610331366004611149565b610c22565b6007546102b2906001600160a01b031681565b6101d26103573660046113c1565b600360209081526000928352604080842090915290825290205481565b61037c610c9b565b6001600160a01b0381166103c95760405162461bcd60e51b815260206004820152600f60248201526e496e76616c6964206164647265737360881b60448201526064015b60405180910390fd5b600880546001600160a01b0319166001600160a01b0383169081179091556040519081527f6bed6474711943f2d27e5ea867d18cf848a8dab37cc30943bc20c38b12494ab4906020015b60405180910390a150565b60026020526000908152604090208054610437906113eb565b80601f0160208091040260200160405190810160405280929190818152602001828054610463906113eb565b80156104b05780601f10610485576101008083540402835291602001916104b0565b820191906000526020600020905b81548152906001019060200180831161049357829003601f168201915b505050505081565b6000546001600160a01b03163314806104e05750336000908152600a602052604090205460ff165b6105195760405162461bcd60e51b815260206004820152600a6024820152693737ba1035b2b2b832b960b11b60448201526064016103c0565b60016006600082825461052c919061143b565b90915550506006805460009081526001602090815260409182902084905542600b55915481519081529182018390527ff82acf27d898453283fc3acf9d284f9c4cca03ce3033cd0a0f139ee979fe53629101610413565b61058b610c9b565b6007546040516370a0823160e01b81523060048201526000916001600160a01b0316906370a0823190602401602060405180830381865afa1580156105d4573d6000803e3d6000fd5b505050506040513d601f19601f820116820180604052508101906105f89190611453565b60075460085460405163a9059cbb60e01b81526001600160a01b03918216600482015260248101849052929350169063a9059cbb906044016020604051808303816000875af115801561064f573d6000803e3d6000fd5b505050506040513d601f19601f82011682018060405250810190610673919061146c565b5050565b61067f610c9b565b60028110156106d05760405162461bcd60e51b815260206004820152601e60248201527f636c61696d20706572696f64206c657373207468656e20322065706f6368000060448201526064016103c0565b60098190556040518181527fdb00f0341e024be397e058a193a27b85cc3e7f921640be77ddf155c9f8d37c5a90602001610413565b61070d610c9b565b60065483111561075f5760405162461bcd60e51b815260206004820152601b60248201527f43616e6e6f7420757064617465206675747572652065706f636873000000000060448201526064016103c0565b8061079f5760405162461bcd60e51b815260206004820152601060248201526f496e76616c696420495046532055524960801b60448201526064016103c0565b60008381526002602052604090206107b8908383611094565b50827f45e9143c38c01ba6808ddf4501a6959dec1b182ba7e7a6f35faad9360fa7914e83836040516107eb92919061148e565b60405180910390a2505050565b610800610c9b565b80516000905b80821015610889576000838381518110610822576108226114bd565b6020908102919091018101516001600160a01b0381166000908152600a90925260409091205490915060ff16610876576001600160a01b0381166000908152600a60205260409020805460ff191660011790555b5081610881816114d3565b925050610806565b505050565b610896610c9b565b6108a06000610cf5565b565b6108aa610c9b565b80516000905b808210156108895760008383815181106108cc576108cc6114bd565b6020908102919091018101516001600160a01b0381166000908152600a90925260409091205490915060ff161561091e576001600160a01b0381166000908152600a60205260409020805460ff191690555b5081610929816114d3565b9250506108b0565b6007546040516370a0823160e01b81523060048201526000916001600160a01b0316906370a0823190602401602060405180830381865afa15801561097a573d6000803e3d6000fd5b505050506040513d601f19601f8201168201806040525081019061099e9190611453565b905090565b6006548410610a065760405162461bcd60e51b815260206004820152602960248201527f43616e6e6f7420636c61696d20666f72206f6e676f696e67206f72206675747560448201526872652065706f63687360b81b60648201526084016103c0565b600954610a13908561143b565b6006541115610a735760405162461bcd60e51b815260206004820152602660248201527f436c61696d20646561646c696e6520657863656564656420666f722074686973604482015265040cae0dec6d60d31b60648201526084016103c0565b33600090815260036020908152604080832087845290915290205415610ae95760405162461bcd60e51b815260206004820152602560248201527f52657761726420616c726561647920636c61696d656420666f722074686973206044820152640cae0dec6d60db1b60648201526084016103c0565b6040516bffffffffffffffffffffffff193360601b16602082015260348101849052600090605401604051602081830303815290604052805190602001209050610b7483838080602002602001604051908101604052809392919081815260200183836020028082843760009201829052508a8152600160205260409020549250859150610d459050565b610bb05760405162461bcd60e51b815260206004820152600d60248201526c24b73b30b634b210383937b7b360991b60448201526064016103c0565b3360008181526003602090815260408083208984529091529020859055600754610be6916001600160a01b039091169086610df4565b60405184815233907f106f923f993c2149d49b4255ff723acafa1f2d94393f561d3eda32ae348f72419060200160405180910390a25050505050565b610c2a610c9b565b6001600160a01b038116610c8f5760405162461bcd60e51b815260206004820152602660248201527f4f776e61626c653a206e6577206f776e657220697320746865207a65726f206160448201526564647265737360d01b60648201526084016103c0565b610c9881610cf5565b50565b6000546001600160a01b031633146108a05760405162461bcd60e51b815260206004820181905260248201527f4f776e61626c653a2063616c6c6572206973206e6f7420746865206f776e657260448201526064016103c0565b600080546001600160a01b038381166001600160a01b0319831681178455604051919092169283917f8be0079c531659141344cd1fd0a4f28419497f9722a3daafe3b4186f6b6457e09190a35050565b600081815b8551811015610de9576000868281518110610d6757610d676114bd565b60200260200101519050808311610da9576040805160208101859052908101829052606001604051602081830303815290604052805190602001209250610dd6565b60408051602081018390529081018490526060016040516020818303038152906040528051906020012092505b5080610de1816114d3565b915050610d4a565b509092149392505050565b604080516001600160a01b03848116602483015260448083018590528351808403909101815260649092018352602080830180516001600160e01b031663a9059cbb60e01b17905283518085019094528084527f5361666545524332303a206c6f772d6c6576656c2063616c6c206661696c65649084015261088992869291600091610e84918516908490610f04565b9050805160001480610ea5575080806020019051810190610ea5919061146c565b6108895760405162461bcd60e51b815260206004820152602a60248201527f5361666545524332303a204552433230206f7065726174696f6e20646964206e6044820152691bdd081cdd58d8d9595960b21b60648201526084016103c0565b6060610f138484600085610f1b565b949350505050565b606082471015610f7c5760405162461bcd60e51b815260206004820152602660248201527f416464726573733a20696e73756666696369656e742062616c616e636520666f6044820152651c8818d85b1b60d21b60648201526084016103c0565b600080866001600160a01b03168587604051610f9891906114ec565b60006040518083038185875af1925050503d8060008114610fd5576040519150601f19603f3d011682016040523d82523d6000602084013e610fda565b606091505b5091509150610feb87838387610ff6565b979650505050505050565b6060831561106557825160000361105e576001600160a01b0385163b61105e5760405162461bcd60e51b815260206004820152601d60248201527f416464726573733a2063616c6c20746f206e6f6e2d636f6e747261637400000060448201526064016103c0565b5081610f13565b610f13838381511561107a5781518083602001fd5b8060405162461bcd60e51b81526004016103c091906111b4565b8280546110a0906113eb565b90600052602060002090601f0160209004810192826110c25760008555611108565b82601f106110db5782800160ff19823516178555611108565b82800160010185558215611108579182015b828111156111085782358255916020019190600101906110ed565b50611114929150611118565b5090565b5b808211156111145760008155600101611119565b80356001600160a01b038116811461114457600080fd5b919050565b60006020828403121561115b57600080fd5b6111648261112d565b9392505050565b60006020828403121561117d57600080fd5b5035919050565b60005b8381101561119f578181015183820152602001611187565b838111156111ae576000848401525b50505050565b60208152600082518060208401526111d3816040850160208701611184565b601f01601f19169190910160400192915050565b6000806000604084860312156111fc57600080fd5b83359250602084013567ffffffffffffffff8082111561121b57600080fd5b818601915086601f83011261122f57600080fd5b81358181111561123e57600080fd5b87602082850101111561125057600080fd5b6020830194508093505050509250925092565b634e487b7160e01b600052604160045260246000fd5b6000602080838503121561128c57600080fd5b823567ffffffffffffffff808211156112a457600080fd5b818501915085601f8301126112b857600080fd5b8135818111156112ca576112ca611263565b8060051b604051601f19603f830116810181811085821117156112ef576112ef611263565b60405291825284820192508381018501918883111561130d57600080fd5b938501935b82851015611332576113238561112d565b84529385019392850192611312565b98975050505050505050565b6000806000806060858703121561135457600080fd5b8435935060208501359250604085013567ffffffffffffffff8082111561137a57600080fd5b818701915087601f83011261138e57600080fd5b81358181111561139d57600080fd5b8860208260051b85010111156113b257600080fd5b95989497505060200194505050565b600080604083850312156113d457600080fd5b6113dd8361112d565b946020939093013593505050565b600181811c908216806113ff57607f821691505b60208210810361141f57634e487b7160e01b600052602260045260246000fd5b50919050565b634e487b7160e01b600052601160045260246000fd5b6000821982111561144e5761144e611425565b500190565b60006020828403121561146557600080fd5b5051919050565b60006020828403121561147e57600080fd5b8151801515811461116457600080fd5b60208152816020820152818360408301376000818301604090810191909152601f909201601f19160101919050565b634e487b7160e01b600052603260045260246000fd5b6000600182016114e5576114e5611425565b5060010190565b600082516114fe818460208701611184565b919091019291505056fea2646970667358221220df5a343d165e5aabd1eaa248eac4dc6bb98e18b7ced582c430cc728eb6e162c264736f6c634300080d0033",
  "linkReferences": {},
  "deployedLinkReferences": {}
}