{
  "_format": "hh-sol-artifact-1",
  "contractName": "SimpleAirdropDAO2",
  "sourceName": "contracts/SimpleAirdropDAO2.sol",
  "abi": [
    {
      "inputs": [],
      "stateMutability": "nonpayable",
      "type": "constructor"
    },
    {
      "anonymous": false,
      "inputs": [
        {
          "indexed": false,
          "internalType": "uint256",
          "name": "amount",
          "type": "uint256"
        }
      ],
      "name": "Deposit",
      "type": "event"
    },
    {
      "anonymous": false,
      "inputs": [
        {
          "indexed": false,
          "internalType": "uint256",
          "name": "balance",
          "type": "uint256"
        },
        {
          "indexed": false,
          "internalType": "uint256",
          "name": "vesting_period",
          "type": "uint256"
        },
        {
          "indexed": false,
          "internalType": "uint256",
          "name": "tokenPerSec",
          "type": "uint256"
        }
      ],
      "name": "VestingUpdate",
      "type": "event"
    },
    {
      "inputs": [],
      "name": "LOXO",
      "outputs": [
        {
          "internalType": "address",
          "name": "",
          "type": "address"
        }
      ],
      "stateMutability": "view",
      "type": "function"
    },
    {
      "inputs": [],
      "name": "amountPerUser",
      "outputs": [
        {
          "internalType": "uint256",
          "name": "",
          "type": "uint256"
        }
      ],
      "stateMutability": "view",
      "type": "function"
    },
    {
      "inputs": [
        {
          "internalType": "address[]",
          "name": "users",
          "type": "address[]"
        }
      ],
      "name": "distributeAirdrop",
      "outputs": [],
      "stateMutability": "nonpayable",
      "type": "function"
    },
    {
      "inputs": [],
      "name": "owner",
      "outputs": [
        {
          "internalType": "address",
          "name": "",
          "type": "address"
        }
      ],
      "stateMutability": "view",
      "type": "function"
    },
    {
      "inputs": [],
      "name": "secondOwner",
      "outputs": [
        {
          "internalType": "address",
          "name": "",
          "type": "address"
        }
      ],
      "stateMutability": "view",
      "type": "function"
    },
    {
      "inputs": [
        {
          "internalType": "uint256",
          "name": "_amount",
          "type": "uint256"
        }
      ],
      "name": "setAmountPerUser",
      "outputs": [],
      "stateMutability": "nonpayable",
      "type": "function"
    },
    {
      "inputs": [
        {
          "internalType": "address",
          "name": "_owner",
          "type": "address"
        }
      ],
      "name": "setOwner",
      "outputs": [],
      "stateMutability": "nonpayable",
      "type": "function"
    },
    {
      "inputs": [
        {
          "internalType": "address",
          "name": "_owner",
          "type": "address"
        }
      ],
      "name": "setOwner2",
      "outputs": [],
      "stateMutability": "nonpayable",
      "type": "function"
    },
    {
      "inputs": [],
      "name": "ve",
      "outputs": [
        {
          "internalType": "address",
          "name": "",
          "type": "address"
        }
      ],
      "stateMutability": "view",
      "type": "function"
    },
    {
      "inputs": [
        {
          "internalType": "address",
          "name": "_token",
          "type": "address"
        }
      ],
      "name": "withdrawERC20",
      "outputs": [],
      "stateMutability": "nonpayable",
      "type": "function"
    }
  ],
  "bytecode": "0x608060405234801561001057600080fd5b50600080546001600160a01b0319908116331790915560028054821673fbbf371c9b0b994eebfcc977cef603f7f31c070d17905560038054821673f4c8e32eadec4bfe97e0f595add0f4450a863a1117905560018054909116731c6c2498854662fdeadbc4f14ea2f30ca305104b17905568056bc75e2d63100000600455610aaf8061009d6000396000f3fe608060405234801561001057600080fd5b506004361061009e5760003560e01c8063866131d211610066578063866131d2146101255780638da5cb5b14610138578063c827c7161461014b578063d3fdcd111461015e578063f4f3b2001461017157600080fd5b806313af4035146100a35780631f850716146100b85780635825884f146100e857806368a9f31c146100fb5780637ae662a31461010e575b600080fd5b6100b66100b1366004610849565b610184565b005b6002546100cb906001600160a01b031681565b6040516001600160a01b0390911681526020015b60405180910390f35b6100b66100f6366004610849565b610201565b6001546100cb906001600160a01b031681565b61011760045481565b6040519081526020016100df565b6100b661013336600461086b565b610275565b6000546100cb906001600160a01b031681565b6003546100cb906001600160a01b031681565b6100b661016c36600461089a565b6102b9565b6100b661017f366004610849565b6104b6565b6000546001600160a01b03163314806101a757506001546001600160a01b031633145b6101cc5760405162461bcd60e51b81526004016101c39061095f565b60405180910390fd5b6001600160a01b0381166101df57600080fd5b600080546001600160a01b0319166001600160a01b0392909216919091179055565b6000546001600160a01b031633148061022457506001546001600160a01b031633145b6102405760405162461bcd60e51b81526004016101c39061095f565b6001600160a01b03811661025357600080fd5b600180546001600160a01b0319166001600160a01b0392909216919091179055565b6000546001600160a01b031633148061029857506001546001600160a01b031633145b6102b45760405162461bcd60e51b81526004016101c39061095f565b600455565b6000546001600160a01b03163314806102dc57506001546001600160a01b031633145b6102f85760405162461bcd60e51b81526004016101c39061095f565b6000805b82518210156104b15782828151811061031757610317610982565b602090810291909101015160035460025460405163095ea7b360e01b81526001600160a01b03918216600482015260006024820152929350169063095ea7b3906044016020604051808303816000875af1158015610379573d6000803e3d6000fd5b505050506040513d601f19601f8201168201806040525081019061039d9190610998565b506003546002546004805460405163095ea7b360e01b81526001600160a01b0393841692810192909252602482015291169063095ea7b3906044016020604051808303816000875af11580156103f7573d6000803e3d6000fd5b505050506040513d601f19601f8201168201806040525081019061041b9190610998565b506002546004805460405163d4e54c3b60e01b8152918201526303c2670060248201526001600160a01b0383811660448301529091169063d4e54c3b906064016020604051808303816000875af115801561047a573d6000803e3d6000fd5b505050506040513d601f19601f8201168201806040525081019061049e91906109ba565b50816104a9816109d3565b9250506102fc565b505050565b6000546001600160a01b03163314806104d957506001546001600160a01b031633145b6104f55760405162461bcd60e51b81526004016101c39061095f565b6001600160a01b03811661050857600080fd5b6040516370a0823160e01b81523060048201526000906001600160a01b038316906370a0823190602401602060405180830381865afa15801561054f573d6000803e3d6000fd5b505050506040513d601f19601f8201168201806040525081019061057391906109ba565b90506105896001600160a01b038316338361058d565b5050565b604080516001600160a01b03848116602483015260448083018590528351808403909101815260649092018352602080830180516001600160e01b031663a9059cbb60e01b17905283518085019094528084527f5361666545524332303a206c6f772d6c6576656c2063616c6c206661696c6564908401526104b19286929160009161061d91851690849061069d565b905080516000148061063e57508080602001905181019061063e9190610998565b6104b15760405162461bcd60e51b815260206004820152602a60248201527f5361666545524332303a204552433230206f7065726174696f6e20646964206e6044820152691bdd081cdd58d8d9595960b21b60648201526084016101c3565b60606106ac84846000856106b4565b949350505050565b6060824710156107155760405162461bcd60e51b815260206004820152602660248201527f416464726573733a20696e73756666696369656e742062616c616e636520666f6044820152651c8818d85b1b60d21b60648201526084016101c3565b600080866001600160a01b031685876040516107319190610a2a565b60006040518083038185875af1925050503d806000811461076e576040519150601f19603f3d011682016040523d82523d6000602084013e610773565b606091505b50915091506107848783838761078f565b979650505050505050565b606083156107fe5782516000036107f7576001600160a01b0385163b6107f75760405162461bcd60e51b815260206004820152601d60248201527f416464726573733a2063616c6c20746f206e6f6e2d636f6e747261637400000060448201526064016101c3565b50816106ac565b6106ac83838151156108135781518083602001fd5b8060405162461bcd60e51b81526004016101c39190610a46565b80356001600160a01b038116811461084457600080fd5b919050565b60006020828403121561085b57600080fd5b6108648261082d565b9392505050565b60006020828403121561087d57600080fd5b5035919050565b634e487b7160e01b600052604160045260246000fd5b600060208083850312156108ad57600080fd5b823567ffffffffffffffff808211156108c557600080fd5b818501915085601f8301126108d957600080fd5b8135818111156108eb576108eb610884565b8060051b604051601f19603f8301168101818110858211171561091057610910610884565b60405291825284820192508381018501918883111561092e57600080fd5b938501935b82851015610953576109448561082d565b84529385019392850192610933565b98975050505050505050565b6020808252600990820152683737ba1037bbb732b960b91b604082015260600190565b634e487b7160e01b600052603260045260246000fd5b6000602082840312156109aa57600080fd5b8151801515811461086457600080fd5b6000602082840312156109cc57600080fd5b5051919050565b6000600182016109f357634e487b7160e01b600052601160045260246000fd5b5060010190565b60005b83811015610a155781810151838201526020016109fd565b83811115610a24576000848401525b50505050565b60008251610a3c8184602087016109fa565b9190910192915050565b6020815260008251806020840152610a658160408501602087016109fa565b601f01601f1916919091016040019291505056fea2646970667358221220a6abaa78ca75cf8c2baed61da35f7bb609d59575eba36cf7c12207ce58a3317c64736f6c634300080d0033",
  "linkReferences": {},
  "deployedLinkReferences": {}
}