{
  "_format": "hh-sol-artifact-1",
  "contractName": "PancakeMigrator",
  "sourceName": "contracts/PancakeMigrator.sol",
  "abi": [
    {
      "inputs": [
        {
          "internalType": "address",
          "name": "_pairFactory",
          "type": "address"
        },
        {
          "internalType": "address",
          "name": "_thRouter",
          "type": "address"
        }
      ],
      "stateMutability": "nonpayable",
      "type": "constructor"
    },
    {
      "inputs": [
        {
          "internalType": "address",
          "name": "_lp",
          "type": "address"
        },
        {
          "internalType": "uint256",
          "name": "_amount",
          "type": "uint256"
        },
        {
          "internalType": "bool",
          "name": "stable",
          "type": "bool"
        }
      ],
      "name": "migrate",
      "outputs": [],
      "stateMutability": "nonpayable",
      "type": "function"
    },
    {
      "inputs": [],
      "name": "pairFactory",
      "outputs": [
        {
          "internalType": "contract IPairFactory",
          "name": "",
          "type": "address"
        }
      ],
      "stateMutability": "view",
      "type": "function"
    },
    {
      "inputs": [],
      "name": "pcFactory",
      "outputs": [
        {
          "internalType": "address",
          "name": "",
          "type": "address"
        }
      ],
      "stateMutability": "view",
      "type": "function"
    },
    {
      "inputs": [],
      "name": "pcRouter",
      "outputs": [
        {
          "internalType": "address",
          "name": "",
          "type": "address"
        }
      ],
      "stateMutability": "view",
      "type": "function"
    },
    {
      "inputs": [],
      "name": "thRouter",
      "outputs": [
        {
          "internalType": "contract IRouter01",
          "name": "",
          "type": "address"
        }
      ],
      "stateMutability": "view",
      "type": "function"
    }
  ],
  "bytecode": "0x6080604052600180546001600160a01b03199081167310ed43c718714eb63d5aa57b78b54704e256024e179091556002805490911673ca143ce32fe78f1f7019d7d551a6402fc5350c7317905534801561005857600080fd5b50604051610d34380380610d34833981016040819052610077916100c9565b6001600055600380546001600160a01b039384166001600160a01b031991821617909155600480549290931691161790556100fc565b80516001600160a01b03811681146100c457600080fd5b919050565b600080604083850312156100dc57600080fd5b6100e5836100ad565b91506100f3602084016100ad565b90509250929050565b610c298061010b6000396000f3fe608060405234801561001057600080fd5b50600436106100575760003560e01c80631d5c4c521461005c578063481429e4146100715780636a13a36c146100a0578063926ef24c146100b3578063e14f870d146100c6575b600080fd5b61006f61006a366004610a8a565b6100d9565b005b600254610084906001600160a01b031681565b6040516001600160a01b03909116815260200160405180910390f35b600454610084906001600160a01b031681565b600154610084906001600160a01b031681565b600354610084906001600160a01b031681565b6100e1610505565b6040516370a0823160e01b815233600482015282906001600160a01b038516906370a0823190602401602060405180830381865afa158015610127573d6000803e3d6000fd5b505050506040513d601f19601f8201168201806040525081019061014b9190610acc565b10156101885760405162461bcd60e51b815260206004820152600760248201526617d85b5bdd5b9d60ca1b60448201526064015b60405180910390fd5b6000836001600160a01b0316630dfe16816040518163ffffffff1660e01b8152600401602060405180830381865afa1580156101c8573d6000803e3d6000fd5b505050506040513d601f19601f820116820180604052508101906101ec9190610ae5565b90506000846001600160a01b031663d21220a76040518163ffffffff1660e01b8152600401602060405180830381865afa15801561022e573d6000803e3d6000fd5b505050506040513d601f19601f820116820180604052508101906102529190610ae5565b90506102608583838761055e565b6040516370a0823160e01b81523060048201526000906001600160a01b038416906370a0823190602401602060405180830381865afa1580156102a7573d6000803e3d6000fd5b505050506040513d601f19601f820116820180604052508101906102cb9190610acc565b6040516370a0823160e01b81523060048201529091506000906001600160a01b038416906370a0823190602401602060405180830381865afa158015610315573d6000803e3d6000fd5b505050506040513d601f19601f820116820180604052508101906103399190610acc565b60048054604051635a47ddc360e01b81526001600160a01b0388811693820193909352868316602482015288151560448201526064810186905260848101849052600160a4820181905260c48201523360e4820152426101048201529293501690635a47ddc390610124016060604051808303816000875af11580156103c3573d6000803e3d6000fd5b505050506040513d601f19601f820116820180604052508101906103e79190610b09565b50506040516370a0823160e01b81523060048201526001600160a01b03861691506370a0823190602401602060405180830381865afa15801561042e573d6000803e3d6000fd5b505050506040513d601f19601f820116820180604052508101906104529190610acc565b9150811561046e5761046e6001600160a01b0385163384610649565b6040516370a0823160e01b81523060048201526001600160a01b038416906370a0823190602401602060405180830381865afa1580156104b2573d6000803e3d6000fd5b505050506040513d601f19601f820116820180604052508101906104d69190610acc565b905080156104f2576104f26001600160a01b0384163384610649565b505050506105006001600055565b505050565b6002600054036105575760405162461bcd60e51b815260206004820152601f60248201527f5265656e7472616e637947756172643a207265656e7472616e742063616c6c00604482015260640161017f565b6002600055565b6105736001600160a01b0385163330846106ac565b60015461058e906001600160a01b03868116911660006106ea565b6001546105a8906001600160a01b038681169116836106ea565b60018054604051635d5155ef60e11b81526001600160a01b0386811660048301528581166024830152604482018590526064820184905260848201939093523060a48201524260c482015291169063baa2abde9060e40160408051808303816000875af115801561061d573d6000803e3d6000fd5b505050506040513d601f19601f820116820180604052508101906106419190610b37565b505050505050565b6040516001600160a01b03831660248201526044810182905261050090849063a9059cbb60e01b906064015b60408051601f198184030181529190526020810180516001600160e01b03166001600160e01b0319909316929092179091526107ff565b6040516001600160a01b03808516602483015283166044820152606481018290526106e49085906323b872dd60e01b90608401610675565b50505050565b8015806107645750604051636eb1769f60e11b81523060048201526001600160a01b03838116602483015284169063dd62ed3e90604401602060405180830381865afa15801561073e573d6000803e3d6000fd5b505050506040513d601f19601f820116820180604052508101906107629190610acc565b155b6107cf5760405162461bcd60e51b815260206004820152603660248201527f5361666545524332303a20617070726f76652066726f6d206e6f6e2d7a65726f60448201527520746f206e6f6e2d7a65726f20616c6c6f77616e636560501b606482015260840161017f565b6040516001600160a01b03831660248201526044810182905261050090849063095ea7b360e01b90606401610675565b6000610854826040518060400160405280602081526020017f5361666545524332303a206c6f772d6c6576656c2063616c6c206661696c6564815250856001600160a01b03166108d49092919063ffffffff16565b90508051600014806108755750808060200190518101906108759190610b5b565b6105005760405162461bcd60e51b815260206004820152602a60248201527f5361666545524332303a204552433230206f7065726174696f6e20646964206e6044820152691bdd081cdd58d8d9595960b21b606482015260840161017f565b60606108e384846000856108eb565b949350505050565b60608247101561094c5760405162461bcd60e51b815260206004820152602660248201527f416464726573733a20696e73756666696369656e742062616c616e636520666f6044820152651c8818d85b1b60d21b606482015260840161017f565b600080866001600160a01b031685876040516109689190610ba4565b60006040518083038185875af1925050503d80600081146109a5576040519150601f19603f3d011682016040523d82523d6000602084013e6109aa565b606091505b50915091506109bb878383876109c6565b979650505050505050565b60608315610a35578251600003610a2e576001600160a01b0385163b610a2e5760405162461bcd60e51b815260206004820152601d60248201527f416464726573733a2063616c6c20746f206e6f6e2d636f6e7472616374000000604482015260640161017f565b50816108e3565b6108e38383815115610a4a5781518083602001fd5b8060405162461bcd60e51b815260040161017f9190610bc0565b6001600160a01b0381168114610a7957600080fd5b50565b8015158114610a7957600080fd5b600080600060608486031215610a9f57600080fd5b8335610aaa81610a64565b9250602084013591506040840135610ac181610a7c565b809150509250925092565b600060208284031215610ade57600080fd5b5051919050565b600060208284031215610af757600080fd5b8151610b0281610a64565b9392505050565b600080600060608486031215610b1e57600080fd5b8351925060208401519150604084015190509250925092565b60008060408385031215610b4a57600080fd5b505080516020909101519092909150565b600060208284031215610b6d57600080fd5b8151610b0281610a7c565b60005b83811015610b93578181015183820152602001610b7b565b838111156106e45750506000910152565b60008251610bb6818460208701610b78565b9190910192915050565b6020815260008251806020840152610bdf816040850160208701610b78565b601f01601f1916919091016040019291505056fea26469706673582212204d17e3d099f2de9d0e2134ed12a69b6b9fd621f1adae7b4ab53b0645d9e54d5964736f6c634300080d0033",
  "linkReferences": {},
  "deployedLinkReferences": {}
}