{
  "_format": "hh-sol-artifact-1",
  "contractName": "MerkleTreeLoxNFT",
  "sourceName": "contracts/MerkleTree/MerkleTreeTHENFT.sol",
  "abi": [
    {
      "inputs": [
        {
          "internalType": "address",
          "name": "_airdropClaim",
          "type": "address"
        }
      ],
      "stateMutability": "nonpayable",
      "type": "constructor"
    },
    {
      "inputs": [
        {
          "internalType": "address",
          "name": "_who",
          "type": "address"
        }
      ],
      "name": "AlreadyClaimed",
      "type": "error"
    },
    {
      "inputs": [
        {
          "internalType": "address",
          "name": "_who",
          "type": "address"
        },
        {
          "internalType": "uint256",
          "name": "_amnt",
          "type": "uint256"
        }
      ],
      "name": "NotInMerkle",
      "type": "error"
    },
    {
      "anonymous": false,
      "inputs": [
        {
          "indexed": true,
          "internalType": "address",
          "name": "who",
          "type": "address"
        },
        {
          "indexed": true,
          "internalType": "address",
          "name": "to",
          "type": "address"
        },
        {
          "indexed": false,
          "internalType": "uint256",
          "name": "amount",
          "type": "uint256"
        }
      ],
      "name": "ClaimSet",
      "type": "event"
    },
    {
      "inputs": [],
      "name": "_init",
      "outputs": [],
      "stateMutability": "nonpayable",
      "type": "function"
    },
    {
      "inputs": [],
      "name": "airdropClaim",
      "outputs": [
        {
          "internalType": "address",
          "name": "",
          "type": "address"
        }
      ],
      "stateMutability": "view",
      "type": "function"
    },
    {
      "inputs": [
        {
          "internalType": "address",
          "name": "to",
          "type": "address"
        },
        {
          "internalType": "uint256",
          "name": "amount",
          "type": "uint256"
        },
        {
          "internalType": "bytes32[]",
          "name": "proof",
          "type": "bytes32[]"
        }
      ],
      "name": "claim",
      "outputs": [],
      "stateMutability": "nonpayable",
      "type": "function"
    },
    {
      "inputs": [
        {
          "internalType": "address",
          "name": "",
          "type": "address"
        }
      ],
      "name": "hasClaimed",
      "outputs": [
        {
          "internalType": "bool",
          "name": "",
          "type": "bool"
        }
      ],
      "stateMutability": "view",
      "type": "function"
    },
    {
      "inputs": [],
      "name": "info",
      "outputs": [
        {
          "internalType": "string",
          "name": "",
          "type": "string"
        }
      ],
      "stateMutability": "view",
      "type": "function"
    },
    {
      "inputs": [],
      "name": "init",
      "outputs": [
        {
          "internalType": "bool",
          "name": "",
          "type": "bool"
        }
      ],
      "stateMutability": "view",
      "type": "function"
    },
    {
      "inputs": [],
      "name": "merkleRoot",
      "outputs": [
        {
          "internalType": "bytes32",
          "name": "",
          "type": "bytes32"
        }
      ],
      "stateMutability": "view",
      "type": "function"
    },
    {
      "inputs": [],
      "name": "owner",
      "outputs": [
        {
          "internalType": "address",
          "name": "",
          "type": "address"
        }
      ],
      "stateMutability": "view",
      "type": "function"
    },
    {
      "inputs": [
        {
          "internalType": "bytes32",
          "name": "_merkleRoot",
          "type": "bytes32"
        }
      ],
      "name": "setMerkleRoot",
      "outputs": [],
      "stateMutability": "nonpayable",
      "type": "function"
    },
    {
      "inputs": [
        {
          "internalType": "address",
          "name": "_owner",
          "type": "address"
        }
      ],
      "name": "setOwner",
      "outputs": [],
      "stateMutability": "nonpayable",
      "type": "function"
    }
  ],
  "bytecode": "0x60c0604052601960809081527f4d65726b6c6554726565204c6f784e46542041697264726f700000000000000060a05260049061003c9082610137565b5034801561004957600080fd5b50604051610a3e380380610a3e833981016040819052610068916101f6565b600180546001600160a01b039092166001600160a01b03199283161790556002805490911633179055610226565b634e487b7160e01b600052604160045260246000fd5b600181811c908216806100c057607f821691505b6020821081036100e057634e487b7160e01b600052602260045260246000fd5b50919050565b601f821115610132576000816000526020600020601f850160051c8101602086101561010f5750805b601f850160051c820191505b8181101561012e5782815560010161011b565b5050505b505050565b81516001600160401b0381111561015057610150610096565b6101648161015e84546100ac565b846100e6565b602080601f83116001811461019957600084156101815750858301515b600019600386901b1c1916600185901b17855561012e565b600085815260208120601f198616915b828110156101c8578886015182559484019460019091019084016101a9565b50858210156101e65787850151600019600388901b60f8161c191681555b5050505050600190811b01905550565b60006020828403121561020857600080fd5b81516001600160a01b038116811461021f57600080fd5b9392505050565b610809806102356000396000f3fe608060405234801561001057600080fd5b506004361061009e5760003560e01c80637cb64759116100665780637cb647591461012f5780638da5cb5b14610142578063b349b9731461016d578063b6d6ed4e14610175578063e1c7392a1461018857600080fd5b806313af4035146100a35780632eb4a7ab146100b8578063370158ea146100d45780633d13f874146100e957806373b2e80e146100fc575b600080fd5b6100b66100b1366004610611565b61019c565b005b6100c160005481565b6040519081526020015b60405180910390f35b6100dc610204565b6040516100cb919061062c565b6100b66100f736600461067b565b610292565b61011f61010a366004610611565b60036020526000908152604090205460ff1681565b60405190151581526020016100cb565b6100b661013d366004610705565b6104a9565b600254610155906001600160a01b031681565b6040516001600160a01b0390911681526020016100cb565b6100b66104f5565b600154610155906001600160a01b031681565b60025461011f90600160a01b900460ff1681565b6002546001600160a01b031633146101cf5760405162461bcd60e51b81526004016101c69061071e565b60405180910390fd5b6001600160a01b0381166101e257600080fd5b600280546001600160a01b0319166001600160a01b0392909216919091179055565b6004805461021190610741565b80601f016020809104026020016040519081016040528092919081815260200182805461023d90610741565b801561028a5780601f1061025f5761010080835404028352916020019161028a565b820191906000526020600020905b81548152906001019060200180831161026d57829003601f168201915b505050505081565b600254600160a01b900460ff166102d95760405162461bcd60e51b815260206004820152600b60248201526a1b9bdd081cdd185c9d195960aa1b60448201526064016101c6565b3360009081526003602052604090205460ff161561030c57604051632058b6db60e01b81523360048201526024016101c6565b6040516bffffffffffffffffffffffff193360601b16602082015260348101849052600090605401604051602081830303815290604052805190602001209050600061038d848480806020026020016040519081016040528093929190818152602001838360200280828437600092018290525054925086915061056a9050565b9050806103b65760405163057365dd60e31b8152336004820152602481018690526044016101c6565b6001546040516304f4b51360e51b8152336004820152602481018790526001600160a01b0388811660448301526000921690639e96a260906064016020604051808303816000875af1158015610410573d6000803e3d6000fd5b505050506040513d601f19601f82011682018060405250810190610434919061077b565b90508061044057600080fd5b3360008181526003602052604090819020805460ff19166001179055516001600160a01b03891691907fdc2005f113f1c2ccd6bd35df2a16954f0ff4e029277b9d76ea10b0b3b29ae96490610498908a815260200190565b60405180910390a350505050505050565b6002546001600160a01b031633146104d35760405162461bcd60e51b81526004016101c69061071e565b806104f05760405162461bcd60e51b81526004016101c69061079d565b600055565b6002546001600160a01b0316331461051f5760405162461bcd60e51b81526004016101c69061071e565b600254600160a01b900460ff161561053657600080fd5b6000546105555760405162461bcd60e51b81526004016101c69061079d565b6002805460ff60a01b1916600160a01b179055565b6000826105778584610580565b14949350505050565b600081815b84518110156105bb576105b1828683815181106105a4576105a46107bd565b60200260200101516105c3565b9150600101610585565b509392505050565b60008183106105df5760008281526020849052604090206105ee565b60008381526020839052604090205b9392505050565b80356001600160a01b038116811461060c57600080fd5b919050565b60006020828403121561062357600080fd5b6105ee826105f5565b60006020808352835180602085015260005b8181101561065a5785810183015185820160400152820161063e565b506000604082860101526040601f19601f8301168501019250505092915050565b6000806000806060858703121561069157600080fd5b61069a856105f5565b935060208501359250604085013567ffffffffffffffff808211156106be57600080fd5b818701915087601f8301126106d257600080fd5b8135818111156106e157600080fd5b8860208260051b85010111156106f657600080fd5b95989497505060200194505050565b60006020828403121561071757600080fd5b5035919050565b6020808252600990820152683737ba1037bbb732b960b91b604082015260600190565b600181811c9082168061075557607f821691505b60208210810361077557634e487b7160e01b600052602260045260246000fd5b50919050565b60006020828403121561078d57600080fd5b815180151581146105ee57600080fd5b6020808252600690820152650726f6f7420360d41b604082015260600190565b634e487b7160e01b600052603260045260246000fdfea26469706673582212205a0eac0e990c63f81e67b358e9f33def7979d5c41ff4afd5b94b9cace0bf466264736f6c63430008180033",
  "linkReferences": {},
  "deployedLinkReferences": {}
}