{
  "_format": "hh-sol-artifact-1",
  "contractName": "AirdropClaim",
  "sourceName": "contracts/MerkleTree/AirdropClaim.sol",
  "abi": [
    {
      "inputs": [
        {
          "internalType": "address",
          "name": "_token",
          "type": "address"
        },
        {
          "internalType": "address",
          "name": "_ve",
          "type": "address"
        }
      ],
      "stateMutability": "nonpayable",
      "type": "constructor"
    },
    {
      "anonymous": false,
      "inputs": [
        {
          "indexed": false,
          "internalType": "uint256",
          "name": "amount",
          "type": "uint256"
        }
      ],
      "name": "Deposit",
      "type": "event"
    },
    {
      "anonymous": false,
      "inputs": [
        {
          "indexed": false,
          "internalType": "uint256",
          "name": "amount",
          "type": "uint256"
        }
      ],
      "name": "Withdraw",
      "type": "event"
    },
    {
      "inputs": [],
      "name": "DISTRIBUTION_PERIOD",
      "outputs": [
        {
          "internalType": "uint256",
          "name": "",
          "type": "uint256"
        }
      ],
      "stateMutability": "view",
      "type": "function"
    },
    {
      "inputs": [],
      "name": "LOCK_TIME",
      "outputs": [
        {
          "internalType": "uint256",
          "name": "",
          "type": "uint256"
        }
      ],
      "stateMutability": "view",
      "type": "function"
    },
    {
      "inputs": [],
      "name": "claim",
      "outputs": [],
      "stateMutability": "nonpayable",
      "type": "function"
    },
    {
      "inputs": [],
      "name": "claimVe",
      "outputs": [],
      "stateMutability": "nonpayable",
      "type": "function"
    },
    {
      "inputs": [
        {
          "internalType": "address",
          "name": "user",
          "type": "address"
        }
      ],
      "name": "claimable",
      "outputs": [
        {
          "internalType": "uint256",
          "name": "_claimable",
          "type": "uint256"
        }
      ],
      "stateMutability": "view",
      "type": "function"
    },
    {
      "inputs": [
        {
          "internalType": "address",
          "name": "account",
          "type": "address"
        }
      ],
      "name": "claimableVe",
      "outputs": [
        {
          "internalType": "uint256",
          "name": "_claimable",
          "type": "uint256"
        }
      ],
      "stateMutability": "view",
      "type": "function"
    },
    {
      "inputs": [
        {
          "internalType": "uint256",
          "name": "amount",
          "type": "uint256"
        }
      ],
      "name": "deposit",
      "outputs": [],
      "stateMutability": "nonpayable",
      "type": "function"
    },
    {
      "inputs": [
        {
          "internalType": "address",
          "name": "",
          "type": "address"
        }
      ],
      "name": "depositors",
      "outputs": [
        {
          "internalType": "bool",
          "name": "",
          "type": "bool"
        }
      ],
      "stateMutability": "view",
      "type": "function"
    },
    {
      "inputs": [],
      "name": "init",
      "outputs": [
        {
          "internalType": "bool",
          "name": "",
          "type": "bool"
        }
      ],
      "stateMutability": "view",
      "type": "function"
    },
    {
      "inputs": [
        {
          "internalType": "uint256",
          "name": "startTimestamp_",
          "type": "uint256"
        }
      ],
      "name": "initialize",
      "outputs": [],
      "stateMutability": "nonpayable",
      "type": "function"
    },
    {
      "inputs": [],
      "name": "merkle",
      "outputs": [
        {
          "internalType": "address",
          "name": "",
          "type": "address"
        }
      ],
      "stateMutability": "view",
      "type": "function"
    },
    {
      "inputs": [],
      "name": "owner",
      "outputs": [
        {
          "internalType": "address",
          "name": "",
          "type": "address"
        }
      ],
      "stateMutability": "view",
      "type": "function"
    },
    {
      "inputs": [
        {
          "internalType": "address",
          "name": "depositor",
          "type": "address"
        }
      ],
      "name": "setDepositor",
      "outputs": [],
      "stateMutability": "nonpayable",
      "type": "function"
    },
    {
      "inputs": [
        {
          "internalType": "address",
          "name": "_merkle",
          "type": "address"
        }
      ],
      "name": "setMerkleTreeContract",
      "outputs": [],
      "stateMutability": "nonpayable",
      "type": "function"
    },
    {
      "inputs": [
        {
          "internalType": "address",
          "name": "_owner",
          "type": "address"
        }
      ],
      "name": "setOwner",
      "outputs": [],
      "stateMutability": "nonpayable",
      "type": "function"
    },
    {
      "inputs": [
        {
          "internalType": "address",
          "name": "_who",
          "type": "address"
        },
        {
          "internalType": "address",
          "name": "_to",
          "type": "address"
        },
        {
          "internalType": "uint256",
          "name": "_amount",
          "type": "uint256"
        },
        {
          "internalType": "uint256",
          "name": "_veAmount",
          "type": "uint256"
        }
      ],
      "name": "setUserInfoAndClaim",
      "outputs": [
        {
          "internalType": "bool",
          "name": "status",
          "type": "bool"
        }
      ],
      "stateMutability": "nonpayable",
      "type": "function"
    },
    {
      "inputs": [
        {
          "internalType": "address",
          "name": "_who",
          "type": "address"
        },
        {
          "internalType": "address",
          "name": "_to",
          "type": "address"
        },
        {
          "internalType": "uint256",
          "name": "_amount",
          "type": "uint256"
        },
        {
          "internalType": "uint256",
          "name": "_veAmount",
          "type": "uint256"
        }
      ],
      "name": "setUserInfoAndClaimVe",
      "outputs": [
        {
          "internalType": "bool",
          "name": "status",
          "type": "bool"
        }
      ],
      "stateMutability": "nonpayable",
      "type": "function"
    },
    {
      "inputs": [],
      "name": "startTimestamp",
      "outputs": [
        {
          "internalType": "uint256",
          "name": "",
          "type": "uint256"
        }
      ],
      "stateMutability": "view",
      "type": "function"
    },
    {
      "inputs": [],
      "name": "token",
      "outputs": [
        {
          "internalType": "contract IERC20",
          "name": "",
          "type": "address"
        }
      ],
      "stateMutability": "view",
      "type": "function"
    },
    {
      "inputs": [
        {
          "internalType": "address",
          "name": "",
          "type": "address"
        }
      ],
      "name": "users",
      "outputs": [
        {
          "internalType": "uint256",
          "name": "lastTimestamp",
          "type": "uint256"
        },
        {
          "internalType": "address",
          "name": "to",
          "type": "address"
        },
        {
          "internalType": "uint256",
          "name": "lockedAmount",
          "type": "uint256"
        },
        {
          "internalType": "uint256",
          "name": "lockedClaimed",
          "type": "uint256"
        },
        {
          "internalType": "uint256",
          "name": "totalAmount",
          "type": "uint256"
        },
        {
          "internalType": "uint256",
          "name": "tokenPerSec",
          "type": "uint256"
        },
        {
          "internalType": "uint256",
          "name": "claimed",
          "type": "uint256"
        }
      ],
      "stateMutability": "view",
      "type": "function"
    },
    {
      "inputs": [
        {
          "internalType": "address",
          "name": "",
          "type": "address"
        }
      ],
      "name": "usersFlag",
      "outputs": [
        {
          "internalType": "bool",
          "name": "",
          "type": "bool"
        }
      ],
      "stateMutability": "view",
      "type": "function"
    },
    {
      "inputs": [],
      "name": "ve",
      "outputs": [
        {
          "internalType": "address",
          "name": "",
          "type": "address"
        }
      ],
      "stateMutability": "view",
      "type": "function"
    },
    {
      "inputs": [
        {
          "internalType": "uint256",
          "name": "amount",
          "type": "uint256"
        },
        {
          "internalType": "address",
          "name": "_token",
          "type": "address"
        },
        {
          "internalType": "address",
          "name": "_to",
          "type": "address"
        }
      ],
      "name": "withdraw",
      "outputs": [],
      "stateMutability": "nonpayable",
      "type": "function"
    }
  ],
  "bytecode": "0x60806040523480156200001157600080fd5b5060405162001c1c38038062001c1c833981016040819052620000349162000093565b6001600055600380546001600160a01b03199081163317909155600680546001600160a01b0394851690831617905560048054929093169116179055620000cb565b80516001600160a01b03811681146200008e57600080fd5b919050565b60008060408385031215620000a757600080fd5b620000b28362000076565b9150620000c26020840162000076565b90509250929050565b611b4180620000db6000396000f3fe608060405234801561001057600080fd5b506004361061014d5760003560e01c8063a87430ba116100c3578063e1c7392a1161007c578063e1c7392a1461033a578063e6fd48bc14610347578063eed75f6d14610350578063f2c098b714610373578063fc0c546a14610386578063fe4b84df1461039957600080fd5b8063a87430ba14610252578063b092deb1146102e4578063b460af94146102ee578063b6b55f2514610301578063c584b9b514610314578063d729429a1461032757600080fd5b8063402914f511610115578063402914f5146101f0578063413d9c3a146102115780634e71d92d1461021c5780635fa1c30f146102245780638da5cb5b1461022c5780638f6aac2d1461023f57600080fd5b806306ad05ab1461015257806306e6712c1461016757806313af40351461019f57806314f65d93146101b25780631f850716146101c5575b600080fd5b6101656101603660046118da565b6103ac565b005b61018a6101753660046118da565b60086020526000908152604090205460ff1681565b60405190151581526020015b60405180910390f35b6101656101ad3660046118da565b610414565b61018a6101c03660046118f5565b610473565b6004546101d8906001600160a01b031681565b6040516001600160a01b039091168152602001610196565b6102036101fe3660046118da565b61078d565b604051908152602001610196565b6102036303bfc40081565b610165610921565b610165610ba1565b6003546101d8906001600160a01b031681565b61018a61024d3660046118f5565b610eed565b6102a76102603660046118da565b600760205260009081526040902080546001820154600283015460038401546004850154600586015460069096015494956001600160a01b03909416949293919290919087565b604080519788526001600160a01b039096166020880152948601939093526060850191909152608084015260a083015260c082015260e001610196565b61020362ed4e0081565b6101656102fc366004611937565b61135f565b61016561030f366004611973565b6113e1565b6005546101d8906001600160a01b031681565b6102036103353660046118da565b611465565b60015461018a9060ff1681565b61020360025481565b61018a61035e3660046118da565b60096020526000908152604090205460ff1681565b6101656103813660046118da565b611508565b6006546101d8906001600160a01b031681565b6101656103a7366004611973565b61157c565b6003546001600160a01b031633146103df5760405162461bcd60e51b81526004016103d69061198c565b60405180910390fd5b6001600160a01b0381166103f257600080fd5b600580546001600160a01b0319166001600160a01b0392909216919091179055565b6003546001600160a01b0316331461043e5760405162461bcd60e51b81526004016103d69061198c565b6001600160a01b03811661045157600080fd5b600380546001600160a01b0319166001600160a01b0392909216919091179055565b6005546000906001600160a01b031633146104a05760405162461bcd60e51b81526004016103d69061198c565b6104a86115c7565b6001600160a01b0385166104ce5760405162461bcd60e51b81526004016103d6906119af565b6001600160a01b0384166104f45760405162461bcd60e51b81526004016103d6906119af565b6000831161052d5760405162461bcd60e51b81526020600482015260066024820152650616d6e7420360d41b60448201526064016103d6565b6001600160a01b03851660009081526008602052604090205460ff161561057e5760405162461bcd60e51b815260206004820152600560248201526421666c616760d81b60448201526064016103d6565b60015460ff166105bb5760405162461bcd60e51b81526020600482015260086024820152671b9bdd081a5b9a5d60c21b60448201526064016103d6565b600254429081116106015760405162461bcd60e51b815260206004820152601060248201526f185a5c991c9bdc081b9bc81cdd185c9d60821b60448201526064016103d6565b600061061062ed4e00866119e5565b9050600081600254846106239190611a07565b61062d9190611a1e565b905060006040518060e00160405280858152602001896001600160a01b031681526020018781526020016000815260200188815260200184815260200183815250905080600760008b6001600160a01b03166001600160a01b031681526020019081526020016000206000820151816000015560208201518160010160006101000a8154816001600160a01b0302191690836001600160a01b0316021790555060408201518160020155606082015181600301556080820151816004015560a0820151816005015560c082015181600601559050506001600860008b6001600160a01b03166001600160a01b0316815260200190815260200160002060006101000a81548160ff0219169083151502179055506107738883600660009054906101000a90046001600160a01b03166001600160a01b03166116209092919063ffffffff16565b60019450505050506107856001600055565b949350505050565b6001600160a01b03811660009081526008602052604081205460ff166107b257600080fd5b6001600160a01b03808316600090815260076020908152604091829020825160e08101845281548152600182015490941691840191909152600280820154928401929092526003810154606084015260048101546080840152600581015460a08401526006015460c08301525461082d9062ed4e0090611a3d565b815111156108715760405162461bcd60e51b81526020600482015260116024820152701d1a5b594e8818db185a5b595908185b1b607a1b60448201526064016103d6565b80608001518160c0015111156108bd5760405162461bcd60e51b8152602060048201526011602482015270185b5b9d0e8818db185a5b595908185b1b607a1b60448201526064016103d6565b60025442906108d09062ed4e0090611a3d565b8111156108eb5762ed4e006002546108e89190611a3d565b90505b81516000906108fa9083611a07565b90506000811161090957600080fd5b60a08301516109189082611a1e565b95945050505050565b6109296115c7565b3360009081526008602052604090205460ff1661094557600080fd5b33600090815260076020908152604091829020825160e0810184528154815260018201546001600160a01b031692810192909252600280820154938301939093526003810154606083015260048101546080830152600581015460a08301526006015460c082015290546109bd9062ed4e0090611a3d565b81511115610a015760405162461bcd60e51b81526020600482015260116024820152701d1a5b594e8818db185a5b595908185b1b607a1b60448201526064016103d6565b80608001518160c001511115610a4d5760405162461bcd60e51b8152602060048201526011602482015270185b5b9d0e8818db185a5b595908185b1b607a1b60448201526064016103d6565b60208101516002544290610a659062ed4e0090611a3d565b811115610a805762ed4e00600254610a7d9190611a3d565b90505b8251600090610a8f9083611a07565b905060008111610a9e57600080fd5b60008460a0015182610ab09190611a1e565b83865260c0860180519192508291610ac9908390611a3d565b905250608085015160c08601511115610b185760405162461bcd60e51b815260206004820152601160248201527018db185a5b5959080f881d1bdd105b5b9d607a1b60448201526064016103d6565b3360009081526007602090815260409182902087518155908701516001820180546001600160a01b0319166001600160a01b03928316179055918701516002820155606087015160038201556080870151600482015560a0870151600582015560c087015160069182015554610b9091168583611620565b5050505050610b9f6001600055565b565b610ba96115c7565b3360009081526008602052604090205460ff16610bc557600080fd5b33600090815260076020908152604091829020825160e0810184528154815260018201546001600160a01b031692810192909252600281015492820183905260038101546060830181905260048201546080840152600582015460a084015260069091015460c0830152909111610c6c5760405162461bcd60e51b815260206004820152600b60248201526a18db185a5b595908185b1b60aa1b60448201526064016103d6565b600081606001518260400151610c829190611a07565b90508082606001818151610c969190611a3d565b905250604082015160608301511115610ce35760405162461bcd60e51b815260206004820152600f60248201526e18db185a5b5959080f881d1bdd185b608a1b60448201526064016103d6565b3360009081526007602090815260409182902084518155908401516001820180546001600160a01b0319166001600160a01b0380841691909117909155928501516002830155606085015160038301556080850151600483015560a0850151600583015560c08501516006928301559054610d6092169083611620565b6006546004805460405163095ea7b360e01b81526001600160a01b0391821692810192909252600060248301529091169063095ea7b3906044016020604051808303816000875af1158015610db9573d6000803e3d6000fd5b505050506040513d601f19601f82011682018060405250810190610ddd9190611a55565b506006546004805460405163095ea7b360e01b81526001600160a01b0391821692810192909252602482018490529091169063095ea7b3906044016020604051808303816000875af1158015610e37573d6000803e3d6000fd5b505050506040513d601f19601f82011682018060405250810190610e5b9190611a55565b5060048054602084015160405163d4e54c3b60e01b81529283018490526303bfc40060248401526001600160a01b039081166044840152169063d4e54c3b906064016020604051808303816000875af1158015610ebc573d6000803e3d6000fd5b505050506040513d601f19601f82011682018060405250810190610ee09190611a77565b505050610b9f6001600055565b6005546000906001600160a01b03163314610f1a5760405162461bcd60e51b81526004016103d69061198c565b610f226115c7565b6001600160a01b038516610f485760405162461bcd60e51b81526004016103d6906119af565b6001600160a01b038416610f6e5760405162461bcd60e51b81526004016103d6906119af565b60008311610fa75760405162461bcd60e51b81526020600482015260066024820152650616d6e7420360d41b60448201526064016103d6565b6001600160a01b03851660009081526008602052604090205460ff1615610ff85760405162461bcd60e51b815260206004820152600560248201526421666c616760d81b60448201526064016103d6565b60015460ff166110355760405162461bcd60e51b81526020600482015260086024820152671b9bdd081a5b9a5d60c21b60448201526064016103d6565b6002544290811161107b5760405162461bcd60e51b815260206004820152601060248201526f185a5c991c9bdc081b9bc81cdd185c9d60821b60448201526064016103d6565b600061108a62ed4e00866119e5565b905060006040518060e001604052806002548152602001886001600160a01b031681526020018681526020018681526020018781526020018381526020016000815250905080600760008a6001600160a01b03166001600160a01b031681526020019081526020016000206000820151816000015560208201518160010160006101000a8154816001600160a01b0302191690836001600160a01b0316021790555060408201518160020155606082015181600301556080820151816004015560a0820151816005015560c082015181600601559050506001600860008a6001600160a01b03166001600160a01b0316815260200190815260200160002060006101000a81548160ff0219169083151502179055506111d28786600660009054906101000a90046001600160a01b03166001600160a01b03166116209092919063ffffffff16565b6006546004805460405163095ea7b360e01b81526001600160a01b0391821692810192909252600060248301529091169063095ea7b3906044016020604051808303816000875af115801561122b573d6000803e3d6000fd5b505050506040513d601f19601f8201168201806040525081019061124f9190611a55565b506006546004805460405163095ea7b360e01b81526001600160a01b0391821692810192909252602482018890529091169063095ea7b3906044016020604051808303816000875af11580156112a9573d6000803e3d6000fd5b505050506040513d601f19601f820116820180604052508101906112cd9190611a55565b506004805460405163d4e54c3b60e01b81529182018790526303bfc40060248301526001600160a01b038981166044840152169063d4e54c3b906064016020604051808303816000875af1158015611329573d6000803e3d6000fd5b505050506040513d601f19601f8201168201806040525081019061134d9190611a77565b50600193505050506107856001600055565b3360009081526009602052604090205460ff1615156001148061138c57506003546001600160a01b031633145b61139557600080fd5b6113a96001600160a01b0383168285611620565b6040518381527f5b6b431d4476a211bb7d41c20d1aab9ae2321deee0d20be3d9fc9b1093fa6e3d9060200160405180910390a1505050565b3360009081526009602052604090205460ff1615156001148061140e57506003546001600160a01b031633145b61141757600080fd5b60065461142f906001600160a01b0316333084611688565b6040518181527f4d6ce1e535dbade1c23defba91e23b8f791ce5edc0cc320257a2b364e4e384269060200160405180910390a150565b6001600160a01b03811660009081526008602052604081205460ff1661148a57600080fd5b6001600160a01b03808316600090815260076020908152604091829020825160e08101845281548152600182015490941691840191909152600281015491830182905260038101546060840181905260048201546080850152600582015460a085015260069091015460c084015261150191611a07565b9392505050565b6003546001600160a01b031633146115325760405162461bcd60e51b81526004016103d69061198c565b6001600160a01b03811660009081526009602052604090205460ff161561155857600080fd5b6001600160a01b03166000908152600960205260409020805460ff19166001179055565b6003546001600160a01b031633146115a65760405162461bcd60e51b81526004016103d69061198c565b60015460ff16156115b657600080fd5b6001805460ff191681179055600255565b6002600054036116195760405162461bcd60e51b815260206004820152601f60248201527f5265656e7472616e637947756172643a207265656e7472616e742063616c6c0060448201526064016103d6565b6002600055565b6040516001600160a01b03831660248201526044810182905261168390849063a9059cbb60e01b906064015b60408051601f198184030181529190526020810180516001600160e01b03166001600160e01b0319909316929092179091526116c6565b505050565b6040516001600160a01b03808516602483015283166044820152606481018290526116c09085906323b872dd60e01b9060840161164c565b50505050565b600061171b826040518060400160405280602081526020017f5361666545524332303a206c6f772d6c6576656c2063616c6c206661696c6564815250856001600160a01b031661179b9092919063ffffffff16565b905080516000148061173c57508080602001905181019061173c9190611a55565b6116835760405162461bcd60e51b815260206004820152602a60248201527f5361666545524332303a204552433230206f7065726174696f6e20646964206e6044820152691bdd081cdd58d8d9595960b21b60648201526084016103d6565b6060610785848460008585600080866001600160a01b031685876040516117c29190611abc565b60006040518083038185875af1925050503d80600081146117ff576040519150601f19603f3d011682016040523d82523d6000602084013e611804565b606091505b509150915061181587838387611820565b979650505050505050565b6060831561188f578251600003611888576001600160a01b0385163b6118885760405162461bcd60e51b815260206004820152601d60248201527f416464726573733a2063616c6c20746f206e6f6e2d636f6e747261637400000060448201526064016103d6565b5081610785565b61078583838151156118a45781518083602001fd5b8060405162461bcd60e51b81526004016103d69190611ad8565b80356001600160a01b03811681146118d557600080fd5b919050565b6000602082840312156118ec57600080fd5b611501826118be565b6000806000806080858703121561190b57600080fd5b611914856118be565b9350611922602086016118be565b93969395505050506040820135916060013590565b60008060006060848603121561194c57600080fd5b8335925061195c602085016118be565b915061196a604085016118be565b90509250925092565b60006020828403121561198557600080fd5b5035919050565b6020808252600990820152683737ba1037bbb732b960b91b604082015260600190565b60208082526006908201526506164647220360d41b604082015260600190565b634e487b7160e01b600052601160045260246000fd5b600082611a0257634e487b7160e01b600052601260045260246000fd5b500490565b600082821015611a1957611a196119cf565b500390565b6000816000190483118215151615611a3857611a386119cf565b500290565b60008219821115611a5057611a506119cf565b500190565b600060208284031215611a6757600080fd5b8151801515811461150157600080fd5b600060208284031215611a8957600080fd5b5051919050565b60005b83811015611aab578181015183820152602001611a93565b838111156116c05750506000910152565b60008251611ace818460208701611a90565b9190910192915050565b6020815260008251806020840152611af7816040850160208701611a90565b601f01601f1916919091016040019291505056fea264697066735822122097b1b638bfe9239034460c04f9e7c8d073eabec5530989bb4c58bc39c1edebe264736f6c634300080d0033",
  "linkReferences": {},
  "deployedLinkReferences": {}
}