{
  "_format": "hh-sol-artifact-1",
  "contractName": "RewardAPI",
  "sourceName": "contracts/APIHelper/RewardAPI.sol",
  "abi": [
    {
      "inputs": [],
      "stateMutability": "nonpayable",
      "type": "constructor"
    },
    {
      "anonymous": false,
      "inputs": [
        {
          "indexed": false,
          "internalType": "uint8",
          "name": "version",
          "type": "uint8"
        }
      ],
      "name": "Initialized",
      "type": "event"
    },
    {
      "inputs": [
        {
          "internalType": "address",
          "name": "_token",
          "type": "address"
        }
      ],
      "name": "addNotReward",
      "outputs": [],
      "stateMutability": "nonpayable",
      "type": "function"
    },
    {
      "inputs": [
        {
          "internalType": "uint256",
          "name": "tokenId",
          "type": "uint256"
        },
        {
          "internalType": "address[]",
          "name": "pairs",
          "type": "address[]"
        }
      ],
      "name": "getExpectedClaimForNextEpoch",
      "outputs": [
        {
          "components": [
            {
              "components": [
                {
                  "internalType": "address[]",
                  "name": "tokens",
                  "type": "address[]"
                },
                {
                  "internalType": "string[]",
                  "name": "symbols",
                  "type": "string[]"
                },
                {
                  "internalType": "uint256[]",
                  "name": "decimals",
                  "type": "uint256[]"
                },
                {
                  "internalType": "uint256[]",
                  "name": "amounts",
                  "type": "uint256[]"
                }
              ],
              "internalType": "struct RewardAPI.Bribes[]",
              "name": "bribes",
              "type": "tuple[]"
            }
          ],
          "internalType": "struct RewardAPI.Rewards[]",
          "name": "",
          "type": "tuple[]"
        }
      ],
      "stateMutability": "view",
      "type": "function"
    },
    {
      "inputs": [
        {
          "internalType": "address",
          "name": "pair",
          "type": "address"
        }
      ],
      "name": "getPairBribe",
      "outputs": [
        {
          "components": [
            {
              "internalType": "address[]",
              "name": "tokens",
              "type": "address[]"
            },
            {
              "internalType": "string[]",
              "name": "symbols",
              "type": "string[]"
            },
            {
              "internalType": "uint256[]",
              "name": "decimals",
              "type": "uint256[]"
            },
            {
              "internalType": "uint256[]",
              "name": "amounts",
              "type": "uint256[]"
            }
          ],
          "internalType": "struct RewardAPI.Bribes[]",
          "name": "",
          "type": "tuple[]"
        }
      ],
      "stateMutability": "view",
      "type": "function"
    },
    {
      "inputs": [
        {
          "internalType": "uint256",
          "name": "offset",
          "type": "uint256"
        },
        {
          "internalType": "uint256",
          "name": "limit",
          "type": "uint256"
        }
      ],
      "name": "getPairsBribeRewards",
      "outputs": [
        {
          "components": [
            {
              "internalType": "address",
              "name": "pair",
              "type": "address"
            },
            {
              "components": [
                {
                  "internalType": "address[]",
                  "name": "tokens",
                  "type": "address[]"
                },
                {
                  "internalType": "string[]",
                  "name": "symbols",
                  "type": "string[]"
                },
                {
                  "internalType": "uint256[]",
                  "name": "decimals",
                  "type": "uint256[]"
                },
                {
                  "internalType": "uint256[]",
                  "name": "amounts",
                  "type": "uint256[]"
                }
              ],
              "internalType": "struct RewardAPI.Bribes[]",
              "name": "bribes",
              "type": "tuple[]"
            }
          ],
          "internalType": "struct RewardAPI.PairsBribeRewards[]",
          "name": "",
          "type": "tuple[]"
        }
      ],
      "stateMutability": "view",
      "type": "function"
    },
    {
      "inputs": [
        {
          "internalType": "address",
          "name": "_voter",
          "type": "address"
        }
      ],
      "name": "initialize",
      "outputs": [],
      "stateMutability": "nonpayable",
      "type": "function"
    },
    {
      "inputs": [
        {
          "internalType": "address",
          "name": "",
          "type": "address"
        }
      ],
      "name": "notReward",
      "outputs": [
        {
          "internalType": "bool",
          "name": "",
          "type": "bool"
        }
      ],
      "stateMutability": "view",
      "type": "function"
    },
    {
      "inputs": [],
      "name": "owner",
      "outputs": [
        {
          "internalType": "address",
          "name": "",
          "type": "address"
        }
      ],
      "stateMutability": "view",
      "type": "function"
    },
    {
      "inputs": [],
      "name": "pairFactory",
      "outputs": [
        {
          "internalType": "contract IPairFactory",
          "name": "",
          "type": "address"
        }
      ],
      "stateMutability": "view",
      "type": "function"
    },
    {
      "inputs": [
        {
          "internalType": "address",
          "name": "_token",
          "type": "address"
        }
      ],
      "name": "removeNotReward",
      "outputs": [],
      "stateMutability": "nonpayable",
      "type": "function"
    },
    {
      "inputs": [
        {
          "internalType": "address",
          "name": "_owner",
          "type": "address"
        }
      ],
      "name": "setOwner",
      "outputs": [],
      "stateMutability": "nonpayable",
      "type": "function"
    },
    {
      "inputs": [
        {
          "internalType": "address",
          "name": "_voter",
          "type": "address"
        }
      ],
      "name": "setVoter",
      "outputs": [],
      "stateMutability": "nonpayable",
      "type": "function"
    },
    {
      "inputs": [],
      "name": "underlyingToken",
      "outputs": [
        {
          "internalType": "address",
          "name": "",
          "type": "address"
        }
      ],
      "stateMutability": "view",
      "type": "function"
    },
    {
      "inputs": [],
      "name": "voter",
      "outputs": [
        {
          "internalType": "contract IVoter",
          "name": "",
          "type": "address"
        }
      ],
      "stateMutability": "view",
      "type": "function"
    }
  ],
  "bytecode": "0x608060405234801561001057600080fd5b506121ae806100206000396000f3fe608060405234801561001057600080fd5b50600436106100cf5760003560e01c8063639fdb6c1161008c578063a81d9e5111610066578063a81d9e51146101b8578063c4d66de8146101eb578063e14f870d146101fe578063f8d7fd681461021757600080fd5b8063639fdb6c146101725780638da5cb5b146101925780638fbc1b5a146101a557600080fd5b806313af4035146100d45780632495a599146100e957806333c281ab1461011957806346c96aac1461012c5780634bc2a6571461013f578063515f678a14610152575b600080fd5b6100e76100e2366004611b5b565b610237565b005b6002546100fc906001600160a01b031681565b6040516001600160a01b0390911681526020015b60405180910390f35b6100e7610127366004611b5b565b6102cd565b6001546100fc906001600160a01b031681565b6100e761014d366004611b5b565b61031b565b610165610160366004611b7f565b610510565b6040516101109190611d5c565b610185610180366004611b5b565b610758565b6040516101109190611dd9565b6003546100fc906001600160a01b031681565b6100e76101b3366004611b5b565b61095c565b6101db6101c6366004611b5b565b60046020526000908152604090205460ff1681565b6040519015158152602001610110565b6100e76101f9366004611b5b565b6109a7565b6000546100fc906201000090046001600160a01b031681565b61022a610225366004611e32565b610c8c565b6040516101109190611eef565b6003546001600160a01b0316331461026a5760405162461bcd60e51b815260040161026190611f59565b60405180910390fd5b6001600160a01b0381166102ab5760405162461bcd60e51b81526020600482015260086024820152673d32b937a0b2323960c11b6044820152606401610261565b600380546001600160a01b0319166001600160a01b0392909216919091179055565b6003546001600160a01b031633146102f75760405162461bcd60e51b815260040161026190611f59565b6001600160a01b03166000908152600460205260409020805460ff19166001179055565b6003546001600160a01b031633146103455760405162461bcd60e51b815260040161026190611f59565b6001600160a01b0381166103865760405162461bcd60e51b81526020600482015260086024820152673d32b937a0b2323960c11b6044820152606401610261565b600180546001600160a01b0319166001600160a01b0383169081179091556040805163c45a015560e01b8152905163c45a0155916004808201926020929091908290030181865afa1580156103df573d6000803e3d6000fd5b505050506040513d601f19601f820116820180604052508101906104039190611f7c565b6000805462010000600160b01b031916620100006001600160a01b039384160217905560015460408051638dd598fb60e01b815290519190921691638dd598fb9160048083019260209291908290030181865afa158015610468573d6000803e3d6000fd5b505050506040513d601f19601f8201168201806040525081019061048c9190611f7c565b6001600160a01b031663fc0c546a6040518163ffffffff1660e01b8152600401602060405180830381865afa1580156104c9573d6000803e3d6000fd5b505050506040513d601f19601f820116820180604052508101906104ed9190611f7c565b600280546001600160a01b0319166001600160a01b039290921691909117905550565b606060008060029054906101000a90046001600160a01b03166001600160a01b031663574f2ba36040518163ffffffff1660e01b8152600401602060405180830381865afa158015610566573d6000803e3d6000fd5b505050506040513d601f19601f8201168201806040525081019061058a9190611f99565b90508084106105da5760408051600080825260208201909252906105d1565b6040805180820190915260008152606060208201528152602001906001900390816105a95790505b50915050610752565b6000816105e78587611fc8565b116105f257836105fc565b6105fc8583611fe0565b90506000816001600160401b0381111561061857610618611dec565b60405190808252806020026020018201604052801561065e57816020015b6040805180820190915260008152606060208201528152602001906001900390816106365790505b50905060005b8281101561074c57600080546201000090046001600160a01b0316631e3dd18b61068e848b611fc8565b6040518263ffffffff1660e01b81526004016106ac91815260200190565b602060405180830381865afa1580156106c9573d6000803e3d6000fd5b505050506040513d601f19601f820116820180604052508101906106ed9190611f7c565b905060006106fa82610758565b90506040518060400160405280836001600160a01b031681526020018281525084848151811061072c5761072c611ff7565b6020026020010181905250505080806107449061200d565b915050610664565b50925050505b92915050565b60408051600280825260608281019093526000918291829190816020015b6107a16040518060800160405280606081526020016060815260200160608152602001606081525090565b8152602001906001900390816107765790505060015460405163b9a09fd560e01b81526001600160a01b03888116600483015292935091169063b9a09fd590602401602060405180830381865afa158015610800573d6000803e3d6000fd5b505050506040513d601f19601f820116820180604052508101906108249190611f7c565b60015460405163ae21c4cb60e01b81526001600160a01b03808416600483015292955091169063ae21c4cb90602401602060405180830381865afa158015610870573d6000803e3d6000fd5b505050506040513d601f19601f820116820180604052508101906108949190611f7c565b915061089f82610f67565b816000815181106108b2576108b2611ff7565b6020908102919091010152600154604051637572079360e11b81526001600160a01b0385811660048301529091169063eae40f2690602401602060405180830381865afa158015610907573d6000803e3d6000fd5b505050506040513d601f19601f8201168201806040525081019061092b9190611f7c565b915061093682610f67565b8160018151811061094957610949611ff7565b6020908102919091010152949350505050565b6003546001600160a01b031633146109865760405162461bcd60e51b815260040161026190611f59565b6001600160a01b03166000908152600460205260409020805460ff19169055565b600054610100900460ff16158080156109c75750600054600160ff909116105b806109e15750303b1580156109e1575060005460ff166001145b610a445760405162461bcd60e51b815260206004820152602e60248201527f496e697469616c697a61626c653a20636f6e747261637420697320616c72656160448201526d191e481a5b9a5d1a585b1a5e995960921b6064820152608401610261565b6000805460ff191660011790558015610a67576000805461ff0019166101001790555b600380546001600160a01b03199081163317909155600180546001600160a01b0385169216821790556040805163c45a015560e01b8152905163c45a0155916004808201926020929091908290030181865afa158015610acb573d6000803e3d6000fd5b505050506040513d601f19601f82011682018060405250810190610aef9190611f7c565b6000805462010000600160b01b031916620100006001600160a01b039384160217905560015460408051638dd598fb60e01b815290519190921691638dd598fb9160048083019260209291908290030181865afa158015610b54573d6000803e3d6000fd5b505050506040513d601f19601f82011682018060405250810190610b789190611f7c565b6001600160a01b031663fc0c546a6040518163ffffffff1660e01b8152600401602060405180830381865afa158015610bb5573d6000803e3d6000fd5b505050506040513d601f19601f82011682018060405250810190610bd99190611f7c565b600280546001600160a01b0319166001600160a01b039290921691909117905573f0308d005717858756acaa6b3dcd4d0de4a1ca5460005260046020527f98064dd0ce096a748f2ddaf4d7af5c1cb30acb72c61f40282d505e14af7c2e02805460ff191660011790558015610c88576000805461ff0019169055604051600181527f7f26b83ff96e1f2b6a682f133852f6798a09c465da95921460cefb38474024989060200160405180910390a15b5050565b8051604080516002808252606082810190935291926000929091839182918291816020015b610cdc6040518060800160405280606081526020016060815260200160608152602001606081525090565b815260200190600190039081610cb15790505090506000846001600160401b03811115610d0b57610d0b611dec565b604051908082528060200260200182016040528015610d4b57816020015b604080516020810190915260608152815260200190600190039081610d295790505b509050600095505b84861015610f5b5760015488516001600160a01b039091169063b9a09fd5908a9089908110610d8457610d84611ff7565b60200260200101516040518263ffffffff1660e01b8152600401610db791906001600160a01b0391909116815260200190565b602060405180830381865afa158015610dd4573d6000803e3d6000fd5b505050506040513d601f19601f82011682018060405250810190610df89190611f7c565b60015460405163ae21c4cb60e01b81526001600160a01b03808416600483015292965091169063ae21c4cb90602401602060405180830381865afa158015610e44573d6000803e3d6000fd5b505050506040513d601f19601f82011682018060405250810190610e689190611f7c565b9250610e7489846114d4565b82600081518110610e8757610e87611ff7565b6020908102919091010152600154604051637572079360e11b81526001600160a01b0386811660048301529091169063eae40f2690602401602060405180830381865afa158015610edc573d6000803e3d6000fd5b505050506040513d601f19601f82011682018060405250810190610f009190611f7c565b9250610f0c89846114d4565b82600181518110610f1f57610f1f611ff7565b602002602001018190525081818781518110610f3d57610f3d611ff7565b60209081029190910101515285610f538161200d565b965050610d53565b98975050505050505050565b610f926040518060800160405280606081526020016060815260200160608152602001606081525090565b6000826001600160a01b031663e68863966040518163ffffffff1660e01b8152600401602060405180830381865afa158015610fd2573d6000803e3d6000fd5b505050506040513d601f19601f82011682018060405250810190610ff69190611f99565b90506000816001600160401b0381111561101257611012611dec565b60405190808252806020026020018201604052801561103b578160200160208202803683370190505b5090506000826001600160401b0381111561105857611058611dec565b604051908082528060200260200182016040528015611081578160200160208202803683370190505b5090506000836001600160401b0381111561109e5761109e611dec565b6040519080825280602002602001820160405280156110d157816020015b60608152602001906001900390816110bc5790505b5090506000846001600160401b038111156110ee576110ee611dec565b604051908082528060200260200182016040528015611117578160200160208202803683370190505b5090506000876001600160a01b03166365c5f94a6040518163ffffffff1660e01b8152600401602060405180830381865afa15801561115a573d6000803e3d6000fd5b505050506040513d601f19601f8201168201806040525081019061117e9190611f99565b90506000806111a760405180606001604052806000815260200160008152602001600081525090565b888310156114b557604051637bb7bed160e01b8152600481018490526001600160a01b038c1690637bb7bed190602401602060405180830381865afa1580156111f4573d6000803e3d6000fd5b505050506040513d601f19601f820116820180604052508101906112189190611f7c565b91508187848151811061122d5761122d611ff7565b6001600160a01b0392831660209182029290920181019190915290831660009081526004909152604090205460ff161561130757600088848151811061127557611275611ff7565b602002602001018181525050600087848151811061129557611295611ff7565b60200260200101906001600160a01b031690816001600160a01b031681525050604051806020016040528060008152508684815181106112d7576112d7611ff7565b602002602001018190525060008584815181106112f6576112f6611ff7565b6020026020010181815250506114a3565b816001600160a01b03166395d89b416040518163ffffffff1660e01b8152600401600060405180830381865afa158015611345573d6000803e3d6000fd5b505050506040513d6000823e601f3d908101601f1916820160405261136d9190810190612026565b86848151811061137f5761137f611ff7565b6020026020010181905250816001600160a01b031663313ce5676040518163ffffffff1660e01b8152600401602060405180830381865afa1580156113c8573d6000803e3d6000fd5b505050506040513d601f19601f820116820180604052508101906113ec91906120b9565b60ff1685848151811061140157611401611ff7565b6020908102919091010152604051631c0ba43160e11b81526001600160a01b038381166004830152602482018690528c1690633817486290604401606060405180830381865afa158015611459573d6000803e3d6000fd5b505050506040513d601f19601f8201168201806040525081019061147d91906120dc565b9050806020015188848151811061149657611496611ff7565b6020026020010181815250505b826114ad8161200d565b9350506111a7565b5050509286526060860193909352602085015250604083015250919050565b6114ff6040518060800160405280606081526020016060815260200160608152602001606081525090565b6000826001600160a01b031663e68863966040518163ffffffff1660e01b8152600401602060405180830381865afa15801561153f573d6000803e3d6000fd5b505050506040513d601f19601f820116820180604052508101906115639190611f99565b90506000816001600160401b0381111561157f5761157f611dec565b6040519080825280602002602001820160405280156115a8578160200160208202803683370190505b5090506000826001600160401b038111156115c5576115c5611dec565b6040519080825280602002602001820160405280156115ee578160200160208202803683370190505b5090506000836001600160401b0381111561160b5761160b611dec565b60405190808252806020026020018201604052801561163e57816020015b60608152602001906001900390816116295790505b5090506000846001600160401b0381111561165b5761165b611dec565b604051908082528060200260200182016040528015611684578160200160208202803683370190505b5090506000876001600160a01b031663a4a3e0356040518163ffffffff1660e01b8152600401602060405180830381865afa1580156116c7573d6000803e3d6000fd5b505050506040513d601f19601f820116820180604052508101906116eb9190611f99565b9050600080896001600160a01b031663981b24d0846040518263ffffffff1660e01b815260040161171e91815260200190565b602060405180830381865afa15801561173b573d6000803e3d6000fd5b505050506040513d601f19601f8201168201806040525081019061175f9190611f99565b60405163853c8aeb60e01b8152600481018d9052602481018590529091506000906001600160a01b038c169063853c8aeb90604401602060405180830381865afa1580156117b1573d6000803e3d6000fd5b505050506040513d601f19601f820116820180604052508101906117d59190611f99565b905060006117fd60405180606001604052806000815260200160008152602001600081525090565b8a851015611b2157604051637bb7bed160e01b8152600481018690526001600160a01b038e1690637bb7bed190602401602060405180830381865afa15801561184a573d6000803e3d6000fd5b505050506040513d601f19601f8201168201806040525081019061186e9190611f7c565b91508189868151811061188357611883611ff7565b6001600160a01b03909216602092830291909101909101528215806118c057506001600160a01b03821660009081526004602052604090205460ff165b156119375760008a86815181106118d9576118d9611ff7565b6020026020010181815250506040518060200160405280600081525088868151811061190757611907611ff7565b6020026020010181905250600087868151811061192657611926611ff7565b602002602001018181525050611b0f565b816001600160a01b03166395d89b416040518163ffffffff1660e01b8152600401600060405180830381865afa158015611975573d6000803e3d6000fd5b505050506040513d6000823e601f3d908101601f1916820160405261199d9190810190612026565b8886815181106119af576119af611ff7565b6020026020010181905250816001600160a01b031663313ce5676040518163ffffffff1660e01b8152600401602060405180830381865afa1580156119f8573d6000803e3d6000fd5b505050506040513d601f19601f82011682018060405250810190611a1c91906120b9565b60ff16878681518110611a3157611a31611ff7565b6020908102919091010152604051631c0ba43160e11b81526001600160a01b038381166004830152602482018890528e1690633817486290604401606060405180830381865afa158015611a89573d6000803e3d6000fd5b505050506040513d601f19601f82011682018060405250810190611aad91906120dc565b9050670de0b6b3a764000083858360200151670de0b6b3a7640000611ad29190612137565b611adc9190612156565b611ae69190612137565b611af09190612156565b8a8681518110611b0257611b02611ff7565b6020026020010181815250505b84611b198161200d565b9550506117fd565b5050509488525050606086019390935260208501525060408301525092915050565b6001600160a01b0381168114611b5857600080fd5b50565b600060208284031215611b6d57600080fd5b8135611b7881611b43565b9392505050565b60008060408385031215611b9257600080fd5b50508035926020909101359150565b60005b83811015611bbc578181015183820152602001611ba4565b83811115611bcb576000848401525b50505050565b600081518084526020808501808196508360051b8101915082860160005b85811015611c3157828403895281518051808652611c1281888801898501611ba1565b99860199601f01601f1916949094018501935090840190600101611bef565b5091979650505050505050565b600081518084526020808501945080840160005b83811015611c6e57815187529582019590820190600101611c52565b509495945050505050565b600081518084526020808501808196508360051b810191508286016000805b86811015611d4e578385038a52825180516080808852815190880181905260a088019189019085905b80821015611cea5782516001600160a01b03168452928a0192918a019160019190910190611cc1565b5050508782015187820389890152611d028282611bd1565b915050604080830151888303828a0152611d1c8382611c3e565b9250505060608083015192508782038189015250611d3a8183611c3e565b9b88019b9650505091850191600101611c98565b509298975050505050505050565b60006020808301818452808551808352604092508286019150828160051b87010184880160005b83811015611dcb57888303603f19018552815180516001600160a01b03168452870151878401879052611db887850182611c79565b9588019593505090860190600101611d83565b509098975050505050505050565b602081526000611b786020830184611c79565b634e487b7160e01b600052604160045260246000fd5b604051601f8201601f191681016001600160401b0381118282101715611e2a57611e2a611dec565b604052919050565b60008060408385031215611e4557600080fd5b823591506020808401356001600160401b0380821115611e6457600080fd5b818601915086601f830112611e7857600080fd5b813581811115611e8a57611e8a611dec565b8060051b9150611e9b848301611e02565b8181529183018401918481019089841115611eb557600080fd5b938501935b83851015611edf5784359250611ecf83611b43565b8282529385019390850190611eba565b8096505050505050509250929050565b6000602080830181845280855180835260408601915060408160051b870101925083870160005b82811015611f4c57878503603f19018452815151868652611f3987870182611c79565b9550509285019290850190600101611f16565b5092979650505050505050565b6020808252600990820152683737ba1037bbb732b960b91b604082015260600190565b600060208284031215611f8e57600080fd5b8151611b7881611b43565b600060208284031215611fab57600080fd5b5051919050565b634e487b7160e01b600052601160045260246000fd5b60008219821115611fdb57611fdb611fb2565b500190565b600082821015611ff257611ff2611fb2565b500390565b634e487b7160e01b600052603260045260246000fd5b60006001820161201f5761201f611fb2565b5060010190565b60006020828403121561203857600080fd5b81516001600160401b038082111561204f57600080fd5b818401915084601f83011261206357600080fd5b81518181111561207557612075611dec565b612088601f8201601f1916602001611e02565b915080825285602082850101111561209f57600080fd5b6120b0816020840160208601611ba1565b50949350505050565b6000602082840312156120cb57600080fd5b815160ff81168114611b7857600080fd5b6000606082840312156120ee57600080fd5b604051606081018181106001600160401b038211171561211057612110611dec565b80604052508251815260208301516020820152604083015160408201528091505092915050565b600081600019048311821515161561215157612151611fb2565b500290565b60008261217357634e487b7160e01b600052601260045260246000fd5b50049056fea26469706673582212205e086ed49bc4c82d365c320f8d28e996417511a6a67336da61cc2514e674d97564736f6c634300080d0033",
  "linkReferences": {},
  "deployedLinkReferences": {}
}