{
  "_format": "hh-sol-artifact-1",
  "contractName": "MasterChef",
  "sourceName": "contracts/MasterChef.sol",
  "abi": [
    {
      "inputs": [
        {
          "internalType": "contract IERC20",
          "name": "_WIOTX",
          "type": "address"
        },
        {
          "internalType": "address",
          "name": "__ve",
          "type": "address"
        },
        {
          "internalType": "contract IERC721",
          "name": "_NFT",
          "type": "address"
        }
      ],
      "stateMutability": "nonpayable",
      "type": "constructor"
    },
    {
      "anonymous": false,
      "inputs": [
        {
          "indexed": true,
          "internalType": "address",
          "name": "user",
          "type": "address"
        },
        {
          "indexed": false,
          "internalType": "uint256",
          "name": "amount",
          "type": "uint256"
        },
        {
          "indexed": true,
          "internalType": "address",
          "name": "to",
          "type": "address"
        }
      ],
      "name": "Deposit",
      "type": "event"
    },
    {
      "anonymous": false,
      "inputs": [
        {
          "indexed": true,
          "internalType": "address",
          "name": "user",
          "type": "address"
        },
        {
          "indexed": false,
          "internalType": "uint256",
          "name": "pendingWIOTX",
          "type": "uint256"
        },
        {
          "indexed": false,
          "internalType": "uint256",
          "name": "pendingLOXO",
          "type": "uint256"
        }
      ],
      "name": "Harvest",
      "type": "event"
    },
    {
      "anonymous": false,
      "inputs": [
        {
          "indexed": false,
          "internalType": "uint256",
          "name": "limitToLock",
          "type": "uint256"
        }
      ],
      "name": "LogLimit",
      "type": "event"
    },
    {
      "anonymous": false,
      "inputs": [
        {
          "indexed": false,
          "internalType": "uint256",
          "name": "rewardPerSecondWIOTX",
          "type": "uint256"
        },
        {
          "indexed": false,
          "internalType": "uint256",
          "name": "rewardPerSecondLOXO",
          "type": "uint256"
        }
      ],
      "name": "LogRewardPerSecond",
      "type": "event"
    },
    {
      "anonymous": false,
      "inputs": [
        {
          "indexed": false,
          "internalType": "uint256",
          "name": "lastRewardTime",
          "type": "uint256"
        },
        {
          "indexed": false,
          "internalType": "uint256",
          "name": "nftSupply",
          "type": "uint256"
        },
        {
          "indexed": false,
          "internalType": "uint256",
          "name": "rewardPerSecondWIOTX",
          "type": "uint256"
        },
        {
          "indexed": false,
          "internalType": "uint256",
          "name": "rewardPerSecondLOXO",
          "type": "uint256"
        }
      ],
      "name": "LogUpdatePool",
      "type": "event"
    },
    {
      "anonymous": false,
      "inputs": [
        {
          "indexed": true,
          "internalType": "address",
          "name": "previousOwner",
          "type": "address"
        },
        {
          "indexed": true,
          "internalType": "address",
          "name": "newOwner",
          "type": "address"
        }
      ],
      "name": "OwnershipTransferred",
      "type": "event"
    },
    {
      "anonymous": false,
      "inputs": [
        {
          "indexed": true,
          "internalType": "address",
          "name": "user",
          "type": "address"
        },
        {
          "indexed": false,
          "internalType": "uint256",
          "name": "amount",
          "type": "uint256"
        },
        {
          "indexed": true,
          "internalType": "address",
          "name": "to",
          "type": "address"
        }
      ],
      "name": "Withdraw",
      "type": "event"
    },
    {
      "inputs": [],
      "name": "LOXO",
      "outputs": [
        {
          "internalType": "contract ILoxo",
          "name": "",
          "type": "address"
        }
      ],
      "stateMutability": "view",
      "type": "function"
    },
    {
      "inputs": [],
      "name": "NFT",
      "outputs": [
        {
          "internalType": "contract IERC721",
          "name": "",
          "type": "address"
        }
      ],
      "stateMutability": "view",
      "type": "function"
    },
    {
      "inputs": [],
      "name": "WIOTX",
      "outputs": [
        {
          "internalType": "contract IERC20",
          "name": "",
          "type": "address"
        }
      ],
      "stateMutability": "view",
      "type": "function"
    },
    {
      "inputs": [],
      "name": "_ve",
      "outputs": [
        {
          "internalType": "contract IVotingEscrow",
          "name": "",
          "type": "address"
        }
      ],
      "stateMutability": "view",
      "type": "function"
    },
    {
      "inputs": [
        {
          "internalType": "address[]",
          "name": "_keepers",
          "type": "address[]"
        }
      ],
      "name": "addKeeper",
      "outputs": [],
      "stateMutability": "nonpayable",
      "type": "function"
    },
    {
      "inputs": [
        {
          "internalType": "uint256[]",
          "name": "tokenIds",
          "type": "uint256[]"
        }
      ],
      "name": "deposit",
      "outputs": [],
      "stateMutability": "nonpayable",
      "type": "function"
    },
    {
      "inputs": [],
      "name": "distributePeriod",
      "outputs": [
        {
          "internalType": "uint256",
          "name": "",
          "type": "uint256"
        }
      ],
      "stateMutability": "view",
      "type": "function"
    },
    {
      "inputs": [],
      "name": "harvest",
      "outputs": [],
      "stateMutability": "nonpayable",
      "type": "function"
    },
    {
      "inputs": [
        {
          "internalType": "address",
          "name": "",
          "type": "address"
        }
      ],
      "name": "isKeeper",
      "outputs": [
        {
          "internalType": "bool",
          "name": "",
          "type": "bool"
        }
      ],
      "stateMutability": "view",
      "type": "function"
    },
    {
      "inputs": [],
      "name": "lastDistributedTime",
      "outputs": [
        {
          "internalType": "uint256",
          "name": "",
          "type": "uint256"
        }
      ],
      "stateMutability": "view",
      "type": "function"
    },
    {
      "inputs": [
        {
          "internalType": "address",
          "name": "",
          "type": "address"
        },
        {
          "internalType": "address",
          "name": "",
          "type": "address"
        },
        {
          "internalType": "uint256",
          "name": "",
          "type": "uint256"
        },
        {
          "internalType": "bytes",
          "name": "",
          "type": "bytes"
        }
      ],
      "name": "onERC721Received",
      "outputs": [
        {
          "internalType": "bytes4",
          "name": "",
          "type": "bytes4"
        }
      ],
      "stateMutability": "pure",
      "type": "function"
    },
    {
      "inputs": [],
      "name": "owner",
      "outputs": [
        {
          "internalType": "address",
          "name": "",
          "type": "address"
        }
      ],
      "stateMutability": "view",
      "type": "function"
    },
    {
      "inputs": [
        {
          "internalType": "address",
          "name": "_user",
          "type": "address"
        }
      ],
      "name": "pendingReward",
      "outputs": [
        {
          "internalType": "uint256",
          "name": "pendingWIOTX",
          "type": "uint256"
        },
        {
          "internalType": "uint256",
          "name": "pendingLOXO",
          "type": "uint256"
        }
      ],
      "stateMutability": "view",
      "type": "function"
    },
    {
      "inputs": [],
      "name": "poolInfo",
      "outputs": [
        {
          "internalType": "uint256",
          "name": "accRewardPerShareWIOTX",
          "type": "uint256"
        },
        {
          "internalType": "uint256",
          "name": "accRewardPerShareLOXO",
          "type": "uint256"
        },
        {
          "internalType": "uint256",
          "name": "lastRewardTime",
          "type": "uint256"
        }
      ],
      "stateMutability": "view",
      "type": "function"
    },
    {
      "inputs": [
        {
          "internalType": "address[]",
          "name": "_keepers",
          "type": "address[]"
        }
      ],
      "name": "removeKeeper",
      "outputs": [],
      "stateMutability": "nonpayable",
      "type": "function"
    },
    {
      "inputs": [],
      "name": "renounceOwnership",
      "outputs": [],
      "stateMutability": "nonpayable",
      "type": "function"
    },
    {
      "inputs": [],
      "name": "rewardPerSecond",
      "outputs": [
        {
          "internalType": "uint256",
          "name": "",
          "type": "uint256"
        }
      ],
      "stateMutability": "view",
      "type": "function"
    },
    {
      "inputs": [],
      "name": "rewardPerSecondLOXO",
      "outputs": [
        {
          "internalType": "uint256",
          "name": "",
          "type": "uint256"
        }
      ],
      "stateMutability": "view",
      "type": "function"
    },
    {
      "inputs": [
        {
          "internalType": "uint256",
          "name": "amount",
          "type": "uint256"
        },
        {
          "internalType": "uint256",
          "name": "amountLOXO",
          "type": "uint256"
        }
      ],
      "name": "setDistributionRate",
      "outputs": [],
      "stateMutability": "nonpayable",
      "type": "function"
    },
    {
      "inputs": [
        {
          "internalType": "uint256",
          "name": "_limitToLock",
          "type": "uint256"
        }
      ],
      "name": "setLimit",
      "outputs": [],
      "stateMutability": "nonpayable",
      "type": "function"
    },
    {
      "inputs": [
        {
          "internalType": "uint256",
          "name": "_rewardPerSecond",
          "type": "uint256"
        },
        {
          "internalType": "uint256",
          "name": "_rewardPerSecondNewToken",
          "type": "uint256"
        }
      ],
      "name": "setRewardPerSecond",
      "outputs": [],
      "stateMutability": "nonpayable",
      "type": "function"
    },
    {
      "inputs": [
        {
          "internalType": "address",
          "name": "_user",
          "type": "address"
        }
      ],
      "name": "stakedTokenIds",
      "outputs": [
        {
          "internalType": "uint256[]",
          "name": "tokenIds",
          "type": "uint256[]"
        }
      ],
      "stateMutability": "view",
      "type": "function"
    },
    {
      "inputs": [
        {
          "internalType": "uint256",
          "name": "",
          "type": "uint256"
        }
      ],
      "name": "tokenOwner",
      "outputs": [
        {
          "internalType": "address",
          "name": "",
          "type": "address"
        }
      ],
      "stateMutability": "view",
      "type": "function"
    },
    {
      "inputs": [
        {
          "internalType": "address",
          "name": "newOwner",
          "type": "address"
        }
      ],
      "name": "transferOwnership",
      "outputs": [],
      "stateMutability": "nonpayable",
      "type": "function"
    },
    {
      "inputs": [],
      "name": "updatePool",
      "outputs": [
        {
          "components": [
            {
              "internalType": "uint256",
              "name": "accRewardPerShareWIOTX",
              "type": "uint256"
            },
            {
              "internalType": "uint256",
              "name": "accRewardPerShareLOXO",
              "type": "uint256"
            },
            {
              "internalType": "uint256",
              "name": "lastRewardTime",
              "type": "uint256"
            }
          ],
          "internalType": "struct MasterChef.PoolInfo",
          "name": "pool",
          "type": "tuple"
        }
      ],
      "stateMutability": "nonpayable",
      "type": "function"
    },
    {
      "inputs": [
        {
          "internalType": "address",
          "name": "",
          "type": "address"
        }
      ],
      "name": "userInfo",
      "outputs": [
        {
          "internalType": "uint256",
          "name": "amount",
          "type": "uint256"
        },
        {
          "internalType": "int256",
          "name": "rewardDebtWIOTX",
          "type": "int256"
        },
        {
          "internalType": "int256",
          "name": "rewardDebtLOXO",
          "type": "int256"
        },
        {
          "internalType": "int256",
          "name": "rewardDebt",
          "type": "int256"
        }
      ],
      "stateMutability": "view",
      "type": "function"
    },
    {
      "inputs": [
        {
          "internalType": "uint256[]",
          "name": "tokenIds",
          "type": "uint256[]"
        }
      ],
      "name": "withdraw",
      "outputs": [],
      "stateMutability": "nonpayable",
      "type": "function"
    }
  ],
  "bytecode": "0x60c0604052678ac7230489e800006001556101f46002553480156200002357600080fd5b5060405162002373380380620023738339810160408190526200004691620001b2565b620000513362000149565b82600360006101000a8154816001600160a01b0302191690836001600160a01b03160217905550816001600160a01b031663fc0c546a6040518163ffffffff1660e01b8152600401602060405180830381865afa158015620000b7573d6000803e3d6000fd5b505050506040513d601f19601f82011682018060405250810190620000dd919062000206565b6001600160a01b0390811660805291821660a052600480546001600160a01b031916919092161790555062093a80600e5564e8d4a51000600d5560408051606081018252600080825260208201819052429190920181905260058290556006919091556007556200022d565b600080546001600160a01b038381166001600160a01b0319831681178455604051919092169283917f8be0079c531659141344cd1fd0a4f28419497f9722a3daafe3b4186f6b6457e09190a35050565b6001600160a01b0381168114620001af57600080fd5b50565b600080600060608486031215620001c857600080fd5b8351620001d58162000199565b6020850151909350620001e88162000199565b6040850151909250620001fb8162000199565b809150509250925092565b6000602082840312156200021957600080fd5b8151620002268162000199565b9392505050565b60805160a0516120fd620002766000396000818161039b015281816105ea0152610689015260008181610424015281816106190152818161074d015261083301526120fd6000f3fe608060405234801561001057600080fd5b50600436106101a95760003560e01c80637542b4d3116100f95780639e71310311610097578063e3161ddd11610071578063e3161ddd14610446578063f2fde38b14610470578063f40f0f5214610483578063fb873315146104ab57600080fd5b80639e713103146103ec578063b5f578fc1461040c578063c827c7161461041f57600080fd5b80638dd598fb116100d35780638dd598fb146103965780638f10369a146103bd578063983d95ce146103c65780639e2b33db146103d957600080fd5b80637542b4d31461035f5780637c0b8de2146103725780638da5cb5b1461038557600080fd5b80634641257d116101665780635a2f3d09116101405780635a2f3d09146102e45780636ba42aaa146103115780636fce823414610344578063715018a61461035757600080fd5b80634641257d146102c05780634def1c82146102c8578063598b8e71146102d157600080fd5b806311a90be0146101ae57806314b9302e146101de578063150b7a02146101f55780631959a0021461022d5780631caaa4871461028257806327ea6f2b146102ab575b600080fd5b6003546101c1906001600160a01b031681565b6040516001600160a01b0390911681526020015b60405180910390f35b6101e7600e5481565b6040519081526020016101d5565b610214610203366004611c1a565b630a85bd0160e11b95945050505050565b6040516001600160e01b031990911681526020016101d5565b61026261023b366004611cb9565b60096020526000908152604090208054600182015460028301546003909301549192909184565b6040805194855260208501939093529183015260608201526080016101d5565b6101c1610290366004611cd6565b6008602052600090815260409020546001600160a01b031681565b6102be6102b9366004611cd6565b6104b4565b005b6102be6104f7565b6101e7600f5481565b6102be6102df366004611cef565b6108ed565b6005546006546007546102f692919083565b604080519384526020840192909252908201526060016101d5565b61033461031f366004611cb9565b600a6020526000908152604090205460ff1681565b60405190151581526020016101d5565b6102be610352366004611d7a565b610c0a565b6102be610ca0565b6102be61036d366004611d7a565b610cb4565b6004546101c1906001600160a01b031681565b6000546001600160a01b03166101c1565b6101c17f000000000000000000000000000000000000000000000000000000000000000081565b6101e7600b5481565b6102be6103d4366004611cef565b610d43565b6102be6103e7366004611e3f565b6110c5565b6103ff6103fa366004611cb9565b611213565b6040516101d59190611e61565b6102be61041a366004611e3f565b611282565b6101c17f000000000000000000000000000000000000000000000000000000000000000081565b61044e6112da565b60408051825181526020808401519082015291810151908201526060016101d5565b6102be61047e366004611cb9565b6114ac565b610496610491366004611cb9565b611525565b604080519283526020830191909152016101d5565b6101e7600c5481565b6104bc611701565b60018190556040518181527f07c72fe05f634cd3f1a19e31370b95141d6b62ca88ecdacf95fab4968957f5679060200160405180910390a150565b60006105016112da565b336000908152600960205260408120600d548351825494955091939091610528919061175b565b6105329190611ebb565b600d546020850151845492935060009261054b9161175b565b6105559190611ebb565b9050600061057861057385600101548561176e90919063ffffffff16565b6117fb565b9050600061059661057386600201548561176e90919063ffffffff16565b6001860185905560028601849055905081156105c3576003546105c3906001600160a01b0316338461183f565b80156108aa576001548111156108175760405163095ea7b360e01b81526001600160a01b037f000000000000000000000000000000000000000000000000000000000000000081166004830152602482018390527f0000000000000000000000000000000000000000000000000000000000000000169063095ea7b3906044016020604051808303816000875af1158015610662573d6000803e3d6000fd5b505050506040513d601f19601f820116820180604052508101906106869190611edd565b507f00000000000000000000000000000000000000000000000000000000000000006001600160a01b031663d4e54c3b6103e86106ce6002548561175b90919063ffffffff16565b6106d89190611ebb565b6040516001600160e01b031960e084901b16815260048101919091526303bfc40060248201523360448201526064016020604051808303816000875af1158015610726573d6000803e3d6000fd5b505050506040513d601f19601f8201168201806040525081019061074a9190611eff565b507f00000000000000000000000000000000000000000000000000000000000000006001600160a01b031663a9059cbb336103e86107986002546103e86107919190611f18565b869061175b565b6107a29190611ebb565b6040516001600160e01b031960e085901b1681526001600160a01b03909216600483015260248201526044016020604051808303816000875af11580156107ed573d6000803e3d6000fd5b505050506040513d601f19601f820116820180604052508101906108119190611edd565b506108aa565b60405163a9059cbb60e01b8152336004820152602481018290527f00000000000000000000000000000000000000000000000000000000000000006001600160a01b03169063a9059cbb906044016020604051808303816000875af1158015610884573d6000803e3d6000fd5b505050506040513d601f19601f820116820180604052508101906108a89190611edd565b505b604080518381526020810183905233917f71bab65ced2e5750775a0613be067df48ef06cf92a496ebf7663ae0660924954910160405180910390a2505050505050565b60006108f76112da565b3360009081526009602052604090208054919250906109169084611891565b8155600d548251610942919061092d90869061175b565b6109379190611ebb565b60018301549061189d565b6001820155600d546020830151610974919061095f90869061175b565b6109699190611ebb565b60028301549061189d565b600282015560005b83811015610bcb5760045433906001600160a01b0316636352211e8787858181106109a9576109a9611f2f565b905060200201356040518263ffffffff1660e01b81526004016109ce91815260200190565b602060405180830381865afa1580156109eb573d6000803e3d6000fd5b505050506040513d601f19601f82011682018060405250810190610a0f9190611f45565b6001600160a01b031614610a765760405162461bcd60e51b815260206004820152602360248201527f54686973204e544620646f6573206e6f742062656c6f6e6720746f206164647260448201526265737360e81b60648201526084015b60405180910390fd5b6004820154600583016000878785818110610a9357610a93611f2f565b9050602002013581526020019081526020016000208190555081600401858583818110610ac257610ac2611f2f565b83546001810185556000948552602080862092029390930135920191909155503390600890878785818110610af957610af9611f2f565b6020908102929092013583525081019190915260400160002080546001600160a01b0319166001600160a01b03928316179055600454166323b872dd3330888886818110610b4957610b49611f2f565b6040516001600160e01b031960e088901b1681526001600160a01b03958616600482015294909316602485015250602090910201356044820152606401600060405180830381600087803b158015610ba057600080fd5b505af1158015610bb4573d6000803e3d6000fd5b505050508080610bc390611f62565b91505061097c565b50604051838152339081907fe31c7b8d08ee7db0afa68782e1028ef92305caeea8626633ad44d413e30f6b2f906020015b60405180910390a350505050565b610c12611701565b80516000905b80821015610c9b576000838381518110610c3457610c34611f2f565b6020908102919091018101516001600160a01b0381166000908152600a90925260409091205490915060ff16610c88576001600160a01b0381166000908152600a60205260409020805460ff191660011790555b5081610c9381611f62565b925050610c18565b505050565b610ca8611701565b610cb26000611928565b565b610cbc611701565b80516000905b80821015610c9b576000838381518110610cde57610cde611f2f565b6020908102919091018101516001600160a01b0381166000908152600a90925260409091205490915060ff1615610d30576001600160a01b0381166000908152600a60205260409020805460ff191690555b5081610d3b81611f62565b925050610cc2565b6000610d4d6112da565b336000908152600960205260409020600d5482519293509091610d8b9190610d7690869061175b565b610d809190611ebb565b60018301549061176e565b6001820155600d546020830151610dbd9190610da890869061175b565b610db29190611ebb565b60028301549061176e565b60028201558054610dce9084611978565b815560005b83811015611090573360086000878785818110610df257610df2611f2f565b60209081029290920135835250810191909152604001600020546001600160a01b031614610e885760405162461bcd60e51b815260206004820152603c60248201527f4e6674205374616b696e672053797374656d3a2075736572206d75737420626560448201527f20746865206f776e6572206f6620746865207374616b6564206e6674000000006064820152608401610a6d565b6004546001600160a01b03166323b872dd3033888886818110610ead57610ead611f2f565b6040516001600160e01b031960e088901b1681526001600160a01b03958616600482015294909316602485015250602090910201356044820152606401600060405180830381600087803b158015610f0457600080fd5b505af1158015610f18573d6000803e3d6000fd5b50505060048301805460009250610f3190600190611f18565b81548110610f4157610f41611f2f565b906000526020600020015490508083600401846005016000898987818110610f6b57610f6b611f2f565b9050602002013581526020019081526020016000205481548110610f9157610f91611f2f565b9060005260206000200181905550826005016000878785818110610fb757610fb7611f2f565b905060200201358152602001908152602001600020548360050160008381526020019081526020016000208190555082600401805480610ff957610ff9611f7b565b6001900381819060005260206000200160009055905582600501600087878581811061102757611027611f2f565b905060200201358152602001908152602001600020600090556008600087878581811061105657611056611f2f565b6020908102929092013583525081019190915260400160002080546001600160a01b0319169055508061108881611f62565b915050610dd3565b50604051838152339081907f56c54ba9bd38d8fd62012e42c7ee564519b09763c426d331b3661b537ead19b290602001610bfc565b6000546001600160a01b03163314806110ed5750336000908152600a602052604090205460ff165b6111265760405162461bcd60e51b815260206004820152600a6024820152693737ba1035b2b2b832b960b11b6044820152606401610a6d565b61112e6112da565b50600080600f541180156111435750600f5442105b1561116c57600f546000906111589042611978565b600b54909150611168908261175b565b9150505b6111768382611891565b9250600061118f600e548561198490919063ffffffff16565b600b819055600e549091506111a5904290611891565b600f556111b28383611891565b925060006111cb600e548561198490919063ffffffff16565b600c81905560408051848152602081018390529192507fbe47a33cd6366127ff7f67994c3c45621249918a7e2e4ee1e9e153e75bd97888910160405180910390a15050505050565b6001600160a01b03811660009081526009602090815260409182902060040180548351818402810184019094528084526060939283018282801561127657602002820191906000526020600020905b815481526020019060010190808311611262575b50505050509050919050565b61128a611701565b6112926112da565b50600b829055600c81905560408051838152602081018390527fbe47a33cd6366127ff7f67994c3c45621249918a7e2e4ee1e9e153e75bd97888910160405180910390a15050565b6112fe60405180606001604052806000815260200160008152602001600081525090565b506040805160608101825260055481526006546020820152600754918101829052904211156114a957600480546040516370a0823160e01b815230928101929092526000916001600160a01b03909116906370a0823190602401602060405180830381865afa158015611375573d6000803e3d6000fd5b505050506040513d601f19601f820116820180604052508101906113999190611eff565b905080156114465760006113ba83604001514261197890919063ffffffff16565b905060006113d3600b548361175b90919063ffffffff16565b905060006113ec600c548461175b90919063ffffffff16565b90506114186114108561140a600d548661175b90919063ffffffff16565b90611984565b865190611891565b8552600d5461143d9061143290869061140a90859061175b565b602087015190611891565b60208601525050505b426040838101829052835160058190556020808601516006819055600785905583519485529084018590529183015260608201527fcb7325664a4a3b7c7223eefc492a97ca4fdf94d46884621e5a8fae5a04b2b9d29060800160405180910390a1505b90565b6114b4611701565b6001600160a01b0381166115195760405162461bcd60e51b815260206004820152602660248201527f4f776e61626c653a206e6577206f776e657220697320746865207a65726f206160448201526564647265737360d01b6064820152608401610a6d565b61152281611928565b50565b604080516060810182526005548152600654602080830191909152600754828401526001600160a01b03848116600090815260099092528382206004805495516370a0823160e01b815230918101919091529294859493919285929116906370a0823190602401602060405180830381865afa1580156115a9573d6000803e3d6000fd5b505050506040513d601f19601f820116820180604052508101906115cd9190611eff565b8351602085015160408601519293509091421180156115eb57508215155b1561169957600061160986604001514261197890919063ffffffff16565b90506000611622600b548361175b90919063ffffffff16565b9050600061163b600c548461175b90919063ffffffff16565b905061166786611656600d548561175b90919063ffffffff16565b6116609190611ebb565b8690611891565b945061169386611682600d548461175b90919063ffffffff16565b61168c9190611ebb565b8590611891565b93505050505b6116ce6105738560010154600d546116be86896000015461175b90919063ffffffff16565b6116c89190611ebb565b9061176e565b96506116f56105738560020154600d546116be85896000015461175b90919063ffffffff16565b95505050505050915091565b6000546001600160a01b03163314610cb25760405162461bcd60e51b815260206004820181905260248201527f4f776e61626c653a2063616c6c6572206973206e6f7420746865206f776e65726044820152606401610a6d565b60006117678284611f91565b9392505050565b60008061177b8385611fb0565b90506000831215801561178e5750838113155b806117a357506000831280156117a357508381135b6117675760405162461bcd60e51b8152602060048201526024808201527f5369676e6564536166654d6174683a207375627472616374696f6e206f766572604482015263666c6f7760e01b6064820152608401610a6d565b60008082121561183b5760405162461bcd60e51b815260206004820152600b60248201526a0496e7465676572203c20360ac1b6044820152606401610a6d565b5090565b604080516001600160a01b038416602482015260448082018490528251808303909101815260649091019091526020810180516001600160e01b031663a9059cbb60e01b179052610c9b908490611990565b60006117678284611fef565b6000806118aa8385612007565b9050600083121580156118bd5750838112155b806118d257506000831280156118d257508381125b6117675760405162461bcd60e51b815260206004820152602160248201527f5369676e6564536166654d6174683a206164646974696f6e206f766572666c6f6044820152607760f81b6064820152608401610a6d565b600080546001600160a01b038381166001600160a01b0319831681178455604051919092169283917f8be0079c531659141344cd1fd0a4f28419497f9722a3daafe3b4186f6b6457e09190a35050565b60006117678284611f18565b60006117678284611ebb565b60006119e5826040518060400160405280602081526020017f5361666545524332303a206c6f772d6c6576656c2063616c6c206661696c6564815250856001600160a01b0316611a659092919063ffffffff16565b9050805160001480611a06575080806020019051810190611a069190611edd565b610c9b5760405162461bcd60e51b815260206004820152602a60248201527f5361666545524332303a204552433230206f7065726174696f6e20646964206e6044820152691bdd081cdd58d8d9595960b21b6064820152608401610a6d565b6060611a748484600085611a7c565b949350505050565b606082471015611add5760405162461bcd60e51b815260206004820152602660248201527f416464726573733a20696e73756666696369656e742062616c616e636520666f6044820152651c8818d85b1b60d21b6064820152608401610a6d565b600080866001600160a01b03168587604051611af99190612078565b60006040518083038185875af1925050503d8060008114611b36576040519150601f19603f3d011682016040523d82523d6000602084013e611b3b565b606091505b5091509150611b4c87838387611b57565b979650505050505050565b60608315611bc6578251600003611bbf576001600160a01b0385163b611bbf5760405162461bcd60e51b815260206004820152601d60248201527f416464726573733a2063616c6c20746f206e6f6e2d636f6e74726163740000006044820152606401610a6d565b5081611a74565b611a748383815115611bdb5781518083602001fd5b8060405162461bcd60e51b8152600401610a6d9190612094565b6001600160a01b038116811461152257600080fd5b8035611c1581611bf5565b919050565b600080600080600060808688031215611c3257600080fd5b8535611c3d81611bf5565b94506020860135611c4d81611bf5565b935060408601359250606086013567ffffffffffffffff80821115611c7157600080fd5b818801915088601f830112611c8557600080fd5b813581811115611c9457600080fd5b896020828501011115611ca657600080fd5b9699959850939650602001949392505050565b600060208284031215611ccb57600080fd5b813561176781611bf5565b600060208284031215611ce857600080fd5b5035919050565b60008060208385031215611d0257600080fd5b823567ffffffffffffffff80821115611d1a57600080fd5b818501915085601f830112611d2e57600080fd5b813581811115611d3d57600080fd5b8660208260051b8501011115611d5257600080fd5b60209290920196919550909350505050565b634e487b7160e01b600052604160045260246000fd5b60006020808385031215611d8d57600080fd5b823567ffffffffffffffff80821115611da557600080fd5b818501915085601f830112611db957600080fd5b813581811115611dcb57611dcb611d64565b8060051b604051601f19603f83011681018181108582111715611df057611df0611d64565b604052918252848201925083810185019188831115611e0e57600080fd5b938501935b82851015611e3357611e2485611c0a565b84529385019392850192611e13565b98975050505050505050565b60008060408385031215611e5257600080fd5b50508035926020909101359150565b6020808252825182820181905260009190848201906040850190845b81811015611e9957835183529284019291840191600101611e7d565b50909695505050505050565b634e487b7160e01b600052601160045260246000fd5b600082611ed857634e487b7160e01b600052601260045260246000fd5b500490565b600060208284031215611eef57600080fd5b8151801515811461176757600080fd5b600060208284031215611f1157600080fd5b5051919050565b600082821015611f2a57611f2a611ea5565b500390565b634e487b7160e01b600052603260045260246000fd5b600060208284031215611f5757600080fd5b815161176781611bf5565b600060018201611f7457611f74611ea5565b5060010190565b634e487b7160e01b600052603160045260246000fd5b6000816000190483118215151615611fab57611fab611ea5565b500290565b60008083128015600160ff1b850184121615611fce57611fce611ea5565b6001600160ff1b0384018313811615611fe957611fe9611ea5565b50500390565b6000821982111561200257612002611ea5565b500190565b600080821280156001600160ff1b038490038513161561202957612029611ea5565b600160ff1b839003841281161561204257612042611ea5565b50500190565b60005b8381101561206357818101518382015260200161204b565b83811115612072576000848401525b50505050565b6000825161208a818460208701612048565b9190910192915050565b60208152600082518060208401526120b3816040850160208701612048565b601f01601f1916919091016040019291505056fea2646970667358221220b096f922906aa58389b0d7c1ed9b4de068dc69eaf3cfb958a0b28cfcb84c3ca764736f6c634300080d0033",
  "linkReferences": {},
  "deployedLinkReferences": {}
}