{
  "_format": "hh-sol-artifact-1",
  "contractName": "MerkleTree",
  "sourceName": "contracts/MerkleTree.sol",
  "abi": [
    {
      "inputs": [
        {
          "internalType": "address",
          "name": "_veToken",
          "type": "address"
        }
      ],
      "stateMutability": "nonpayable",
      "type": "constructor"
    },
    {
      "inputs": [],
      "name": "EnforcedPause",
      "type": "error"
    },
    {
      "inputs": [],
      "name": "ExpectedPause",
      "type": "error"
    },
    {
      "inputs": [],
      "name": "InvalidInitialization",
      "type": "error"
    },
    {
      "inputs": [
        {
          "internalType": "address",
          "name": "who",
          "type": "address"
        },
        {
          "internalType": "uint256",
          "name": "amount",
          "type": "uint256"
        }
      ],
      "name": "NotInMerkle",
      "type": "error"
    },
    {
      "inputs": [],
      "name": "NotInitializing",
      "type": "error"
    },
    {
      "inputs": [
        {
          "internalType": "address",
          "name": "owner",
          "type": "address"
        }
      ],
      "name": "OwnableInvalidOwner",
      "type": "error"
    },
    {
      "inputs": [
        {
          "internalType": "address",
          "name": "account",
          "type": "address"
        }
      ],
      "name": "OwnableUnauthorizedAccount",
      "type": "error"
    },
    {
      "inputs": [],
      "name": "ReentrancyGuardReentrantCall",
      "type": "error"
    },
    {
      "anonymous": false,
      "inputs": [
        {
          "indexed": true,
          "internalType": "address",
          "name": "who",
          "type": "address"
        },
        {
          "indexed": true,
          "internalType": "address",
          "name": "to",
          "type": "address"
        },
        {
          "indexed": false,
          "internalType": "uint256",
          "name": "amount",
          "type": "uint256"
        }
      ],
      "name": "Claimed",
      "type": "event"
    },
    {
      "anonymous": false,
      "inputs": [
        {
          "indexed": false,
          "internalType": "uint256",
          "name": "amount",
          "type": "uint256"
        }
      ],
      "name": "Deposit",
      "type": "event"
    },
    {
      "anonymous": false,
      "inputs": [
        {
          "indexed": false,
          "internalType": "uint64",
          "name": "version",
          "type": "uint64"
        }
      ],
      "name": "Initialized",
      "type": "event"
    },
    {
      "anonymous": false,
      "inputs": [
        {
          "indexed": true,
          "internalType": "address",
          "name": "previousOwner",
          "type": "address"
        },
        {
          "indexed": true,
          "internalType": "address",
          "name": "newOwner",
          "type": "address"
        }
      ],
      "name": "OwnershipTransferred",
      "type": "event"
    },
    {
      "anonymous": false,
      "inputs": [
        {
          "indexed": false,
          "internalType": "address",
          "name": "account",
          "type": "address"
        }
      ],
      "name": "Paused",
      "type": "event"
    },
    {
      "anonymous": false,
      "inputs": [
        {
          "indexed": false,
          "internalType": "address",
          "name": "account",
          "type": "address"
        }
      ],
      "name": "Unpaused",
      "type": "event"
    },
    {
      "anonymous": false,
      "inputs": [
        {
          "indexed": false,
          "internalType": "uint256",
          "name": "amount",
          "type": "uint256"
        }
      ],
      "name": "Withdraw",
      "type": "event"
    },
    {
      "inputs": [],
      "name": "LOCK_TIME",
      "outputs": [
        {
          "internalType": "uint256",
          "name": "",
          "type": "uint256"
        }
      ],
      "stateMutability": "view",
      "type": "function"
    },
    {
      "inputs": [],
      "name": "balance",
      "outputs": [
        {
          "internalType": "uint256",
          "name": "",
          "type": "uint256"
        }
      ],
      "stateMutability": "view",
      "type": "function"
    },
    {
      "inputs": [
        {
          "internalType": "address",
          "name": "to",
          "type": "address"
        },
        {
          "internalType": "uint256",
          "name": "amount",
          "type": "uint256"
        },
        {
          "internalType": "bytes32[]",
          "name": "proof",
          "type": "bytes32[]"
        }
      ],
      "name": "claim",
      "outputs": [],
      "stateMutability": "nonpayable",
      "type": "function"
    },
    {
      "inputs": [
        {
          "internalType": "uint256",
          "name": "amount",
          "type": "uint256"
        }
      ],
      "name": "deposit",
      "outputs": [],
      "stateMutability": "nonpayable",
      "type": "function"
    },
    {
      "inputs": [
        {
          "internalType": "address",
          "name": "",
          "type": "address"
        }
      ],
      "name": "depositors",
      "outputs": [
        {
          "internalType": "bool",
          "name": "",
          "type": "bool"
        }
      ],
      "stateMutability": "view",
      "type": "function"
    },
    {
      "inputs": [
        {
          "internalType": "address",
          "name": "",
          "type": "address"
        }
      ],
      "name": "hasClaimed",
      "outputs": [
        {
          "internalType": "bool",
          "name": "",
          "type": "bool"
        }
      ],
      "stateMutability": "view",
      "type": "function"
    },
    {
      "inputs": [
        {
          "internalType": "bytes32",
          "name": "_merkleRoot",
          "type": "bytes32"
        }
      ],
      "name": "initialize",
      "outputs": [],
      "stateMutability": "nonpayable",
      "type": "function"
    },
    {
      "inputs": [],
      "name": "merkleRoot",
      "outputs": [
        {
          "internalType": "bytes32",
          "name": "",
          "type": "bytes32"
        }
      ],
      "stateMutability": "view",
      "type": "function"
    },
    {
      "inputs": [],
      "name": "owner",
      "outputs": [
        {
          "internalType": "address",
          "name": "",
          "type": "address"
        }
      ],
      "stateMutability": "view",
      "type": "function"
    },
    {
      "inputs": [],
      "name": "paused",
      "outputs": [
        {
          "internalType": "bool",
          "name": "",
          "type": "bool"
        }
      ],
      "stateMutability": "view",
      "type": "function"
    },
    {
      "inputs": [
        {
          "internalType": "address",
          "name": "depositor",
          "type": "address"
        }
      ],
      "name": "removeDepositor",
      "outputs": [],
      "stateMutability": "nonpayable",
      "type": "function"
    },
    {
      "inputs": [],
      "name": "renounceOwnership",
      "outputs": [],
      "stateMutability": "nonpayable",
      "type": "function"
    },
    {
      "inputs": [
        {
          "internalType": "address",
          "name": "depositor",
          "type": "address"
        }
      ],
      "name": "setDepositor",
      "outputs": [],
      "stateMutability": "nonpayable",
      "type": "function"
    },
    {
      "inputs": [],
      "name": "token",
      "outputs": [
        {
          "internalType": "contract IERC20",
          "name": "",
          "type": "address"
        }
      ],
      "stateMutability": "view",
      "type": "function"
    },
    {
      "inputs": [
        {
          "internalType": "address",
          "name": "newOwner",
          "type": "address"
        }
      ],
      "name": "transferOwnership",
      "outputs": [],
      "stateMutability": "nonpayable",
      "type": "function"
    },
    {
      "inputs": [],
      "name": "veToken",
      "outputs": [
        {
          "internalType": "contract IVotingEscrow",
          "name": "",
          "type": "address"
        }
      ],
      "stateMutability": "view",
      "type": "function"
    },
    {
      "inputs": [
        {
          "internalType": "uint256",
          "name": "amount",
          "type": "uint256"
        },
        {
          "internalType": "address",
          "name": "to",
          "type": "address"
        }
      ],
      "name": "withdraw",
      "outputs": [],
      "stateMutability": "nonpayable",
      "type": "function"
    }
  ],
  "bytecode": "0x60c06040523480156200001157600080fd5b50604051620024e7380380620024e7833981810160405281019062000037919062000451565b33600073ffffffffffffffffffffffffffffffffffffffff168173ffffffffffffffffffffffffffffffffffffffff1603620000ad5760006040517f1e4fbdf7000000000000000000000000000000000000000000000000000000008152600401620000a4919062000494565b60405180910390fd5b620000be816200024560201b60201c565b50600180819055506000600260006101000a81548160ff021916908315150217905550600073ffffffffffffffffffffffffffffffffffffffff168173ffffffffffffffffffffffffffffffffffffffff160362000153576040517f08c379a00000000000000000000000000000000000000000000000000000000081526004016200014a9062000512565b60405180910390fd5b8073ffffffffffffffffffffffffffffffffffffffff1660a08173ffffffffffffffffffffffffffffffffffffffff168152505060a05173ffffffffffffffffffffffffffffffffffffffff1663fc0c546a6040518163ffffffff1660e01b8152600401602060405180830381865afa158015620001d5573d6000803e3d6000fd5b505050506040513d601f19601f82011682018060405250810190620001fb919062000451565b73ffffffffffffffffffffffffffffffffffffffff1660808173ffffffffffffffffffffffffffffffffffffffff16815250506200023e6200030960201b60201c565b5062000534565b60008060009054906101000a900473ffffffffffffffffffffffffffffffffffffffff169050816000806101000a81548173ffffffffffffffffffffffffffffffffffffffff021916908373ffffffffffffffffffffffffffffffffffffffff1602179055508173ffffffffffffffffffffffffffffffffffffffff168173ffffffffffffffffffffffffffffffffffffffff167f8be0079c531659141344cd1fd0a4f28419497f9722a3daafe3b4186f6b6457e060405160405180910390a35050565b620003196200037e60201b60201c565b6001600260006101000a81548160ff0219169083151502179055507f62e78cea01bee320cd4e420270b5ea74000d11b0c9f74754ebdbfc544b05a25862000365620003c860201b60201c565b60405162000374919062000494565b60405180910390a1565b6200038e620003d060201b60201c565b15620003c6576040517fd93c066500000000000000000000000000000000000000000000000000000000815260040160405180910390fd5b565b600033905090565b6000600260009054906101000a900460ff16905090565b600080fd5b600073ffffffffffffffffffffffffffffffffffffffff82169050919050565b60006200041982620003ec565b9050919050565b6200042b816200040c565b81146200043757600080fd5b50565b6000815190506200044b8162000420565b92915050565b6000602082840312156200046a5762000469620003e7565b5b60006200047a848285016200043a565b91505092915050565b6200048e816200040c565b82525050565b6000602082019050620004ab600083018462000483565b92915050565b600082825260208201905092915050565b7f696e76616c6964207665546f6b656e0000000000000000000000000000000000600082015250565b6000620004fa600f83620004b1565b91506200050782620004c2565b602082019050919050565b600060208201905081810360008301526200052d81620004eb565b9050919050565b60805160a051611f4e620005996000396000818161050601528181610824015281816108e401526109670152600081816103e80152818161070b015281816107e8015281816108a801528181610dd301528181610f4901526111f80152611f4e6000f3fe608060405234801561001057600080fd5b506004361061010a5760003560e01c80638b73e606116100a2578063b6b55f2511610071578063b6b55f251461026d578063eed75f6d14610289578063f2c098b7146102b9578063f2fde38b146102d5578063fc0c546a146102f15761010a565b80638b73e606146101f95780638da5cb5b146102155780639498bd7114610233578063b69ef8a81461024f5761010a565b8063413d9c3a116100de578063413d9c3a146101835780635c975abb146101a1578063715018a6146101bf57806373b2e80e146101c95761010a565b8062f714ce1461010f5780632eb4a7ab1461012b5780633b92eb23146101495780633d13f87414610167575b600080fd5b6101296004803603810190610124919061160f565b61030f565b005b6101336104fe565b6040516101409190611668565b60405180910390f35b610151610504565b60405161015e91906116e2565b60405180910390f35b610181600480360381019061017c9190611762565b610528565b005b61018b610ad8565b60405161019891906117e5565b60405180910390f35b6101a9610ae0565b6040516101b6919061181b565b60405180910390f35b6101c7610af7565b005b6101e360048036038101906101de9190611836565b610b0b565b6040516101f0919061181b565b60405180910390f35b610213600480360381019061020e9190611836565b610b2b565b005b61021d610c11565b60405161022a9190611872565b60405180910390f35b61024d600480360381019061024891906118b9565b610c3a565b005b610257610dcf565b60405161026491906117e5565b60405180910390f35b610287600480360381019061028291906118e6565b610e70565b005b6102a3600480360381019061029e9190611836565b611060565b6040516102b0919061181b565b60405180910390f35b6102d360048036038101906102ce9190611836565b611080565b005b6102ef60048036038101906102ea9190611836565b611170565b005b6102f96111f6565b6040516103069190611934565b60405180910390f35b6005600061031b61121a565b73ffffffffffffffffffffffffffffffffffffffff1673ffffffffffffffffffffffffffffffffffffffff16815260200190815260200160002060009054906101000a900460ff16806103a75750610371610c11565b73ffffffffffffffffffffffffffffffffffffffff1661038f61121a565b73ffffffffffffffffffffffffffffffffffffffff16145b6103e6576040517f08c379a00000000000000000000000000000000000000000000000000000000081526004016103dd906119ac565b60405180910390fd5b7f000000000000000000000000000000000000000000000000000000000000000073ffffffffffffffffffffffffffffffffffffffff1663a9059cbb82846040518363ffffffff1660e01b81526004016104419291906119cc565b6020604051808303816000875af1158015610460573d6000803e3d6000fd5b505050506040513d601f19601f820116820180604052508101906104849190611a21565b6104c3576040517f08c379a00000000000000000000000000000000000000000000000000000000081526004016104ba90611a9a565b60405180910390fd5b7f5b6b431d4476a211bb7d41c20d1aab9ae2321deee0d20be3d9fc9b1093fa6e3d826040516104f291906117e5565b60405180910390a15050565b60035481565b7f000000000000000000000000000000000000000000000000000000000000000081565b610530611222565b610538611263565b6004600061054461121a565b73ffffffffffffffffffffffffffffffffffffffff1673ffffffffffffffffffffffffffffffffffffffff16815260200190815260200160002060009054906101000a900460ff16156105cc576040517f08c379a00000000000000000000000000000000000000000000000000000000081526004016105c390611b06565b60405180910390fd5b60006105d661121a565b90508473ffffffffffffffffffffffffffffffffffffffff168173ffffffffffffffffffffffffffffffffffffffff1614610646576040517f08c379a000000000000000000000000000000000000000000000000000000000815260040161063d90611b72565b60405180910390fd5b6000818560405160200161065b929190611bfb565b60405160208183030381529060405280519060200120905060006106c3858580806020026020016040519081016040528093929190818152602001838360200280828437600081840152601f19601f82011690508083019250505050505050600354846112a9565b9050806107095782866040517f2b9b2ee80000000000000000000000000000000000000000000000000000000081526004016107009291906119cc565b60405180910390fd5b7f000000000000000000000000000000000000000000000000000000000000000073ffffffffffffffffffffffffffffffffffffffff1663a9059cbb88886040518363ffffffff1660e01b81526004016107649291906119cc565b6020604051808303816000875af1158015610783573d6000803e3d6000fd5b505050506040513d601f19601f820116820180604052508101906107a79190611a21565b6107e6576040517f08c379a00000000000000000000000000000000000000000000000000000000081526004016107dd90611c73565b60405180910390fd5b7f000000000000000000000000000000000000000000000000000000000000000073ffffffffffffffffffffffffffffffffffffffff1663095ea7b37f000000000000000000000000000000000000000000000000000000000000000060006040518363ffffffff1660e01b8152600401610862929190611cce565b6020604051808303816000875af1158015610881573d6000803e3d6000fd5b505050506040513d601f19601f820116820180604052508101906108a59190611a21565b507f000000000000000000000000000000000000000000000000000000000000000073ffffffffffffffffffffffffffffffffffffffff1663095ea7b37f0000000000000000000000000000000000000000000000000000000000000000886040518363ffffffff1660e01b81526004016109219291906119cc565b6020604051808303816000875af1158015610940573d6000803e3d6000fd5b505050506040513d601f19601f820116820180604052508101906109649190611a21565b507f000000000000000000000000000000000000000000000000000000000000000073ffffffffffffffffffffffffffffffffffffffff1663d4e54c3b876303c267008a6040518463ffffffff1660e01b81526004016109c693929190611cf7565b6020604051808303816000875af11580156109e5573d6000803e3d6000fd5b505050506040513d601f19601f82011682018060405250810190610a099190611d43565b506001600460008573ffffffffffffffffffffffffffffffffffffffff1673ffffffffffffffffffffffffffffffffffffffff16815260200190815260200160002060006101000a81548160ff0219169083151502179055508673ffffffffffffffffffffffffffffffffffffffff168373ffffffffffffffffffffffffffffffffffffffff167ff7a40077ff7a04c7e61f6f26fb13774259ddf1b6bce9ecf26a8276cdd399268388604051610abf91906117e5565b60405180910390a3505050610ad26112c0565b50505050565b6303c2670081565b6000600260009054906101000a900460ff16905090565b610aff6112c9565b610b096000611350565b565b60046020528060005260406000206000915054906101000a900460ff1681565b610b336112c9565b600560008273ffffffffffffffffffffffffffffffffffffffff1673ffffffffffffffffffffffffffffffffffffffff16815260200190815260200160002060009054906101000a900460ff16610bbf576040517f08c379a0000000000000000000000000000000000000000000000000000000008152600401610bb6906119ac565b60405180910390fd5b600560008273ffffffffffffffffffffffffffffffffffffffff1673ffffffffffffffffffffffffffffffffffffffff16815260200190815260200160002060006101000a81549060ff021916905550565b60008060009054906101000a900473ffffffffffffffffffffffffffffffffffffffff16905090565b6000610c44611414565b905060008160000160089054906101000a900460ff1615905060008260000160009054906101000a900467ffffffffffffffff1690506000808267ffffffffffffffff16148015610c925750825b9050600060018367ffffffffffffffff16148015610cc7575060003073ffffffffffffffffffffffffffffffffffffffff163b145b905081158015610cd5575080155b15610d0c576040517ff92ee8a900000000000000000000000000000000000000000000000000000000815260040160405180910390fd5b60018560000160006101000a81548167ffffffffffffffff021916908367ffffffffffffffff1602179055508315610d5c5760018560000160086101000a81548160ff0219169083151502179055505b85600381905550610d6b61143c565b8315610dc75760008560000160086101000a81548160ff0219169083151502179055507fc7f505b2f371ae2175ee4913f4499e1f2633a7b5936321eed1cdaeb6115181d26001604051610dbe9190611dbf565b60405180910390a15b505050505050565b60007f000000000000000000000000000000000000000000000000000000000000000073ffffffffffffffffffffffffffffffffffffffff166370a08231306040518263ffffffff1660e01b8152600401610e2a9190611872565b602060405180830381865afa158015610e47573d6000803e3d6000fd5b505050506040513d601f19601f82011682018060405250810190610e6b9190611d43565b905090565b60056000610e7c61121a565b73ffffffffffffffffffffffffffffffffffffffff1673ffffffffffffffffffffffffffffffffffffffff16815260200190815260200160002060009054906101000a900460ff1680610f085750610ed2610c11565b73ffffffffffffffffffffffffffffffffffffffff16610ef061121a565b73ffffffffffffffffffffffffffffffffffffffff16145b610f47576040517f08c379a0000000000000000000000000000000000000000000000000000000008152600401610f3e906119ac565b60405180910390fd5b7f000000000000000000000000000000000000000000000000000000000000000073ffffffffffffffffffffffffffffffffffffffff166323b872dd3330846040518463ffffffff1660e01b8152600401610fa493929190611dda565b6020604051808303816000875af1158015610fc3573d6000803e3d6000fd5b505050506040513d601f19601f82011682018060405250810190610fe79190611a21565b611026576040517f08c379a000000000000000000000000000000000000000000000000000000000815260040161101d90611e5d565b60405180910390fd5b7f4d6ce1e535dbade1c23defba91e23b8f791ce5edc0cc320257a2b364e4e384268160405161105591906117e5565b60405180910390a150565b60056020528060005260406000206000915054906101000a900460ff1681565b6110886112c9565b600560008273ffffffffffffffffffffffffffffffffffffffff1673ffffffffffffffffffffffffffffffffffffffff16815260200190815260200160002060009054906101000a900460ff1615611115576040517f08c379a000000000000000000000000000000000000000000000000000000000815260040161110c90611ec9565b60405180910390fd5b6001600560008373ffffffffffffffffffffffffffffffffffffffff1673ffffffffffffffffffffffffffffffffffffffff16815260200190815260200160002060006101000a81548160ff02191690831515021790555050565b6111786112c9565b600073ffffffffffffffffffffffffffffffffffffffff168173ffffffffffffffffffffffffffffffffffffffff16036111ea5760006040517f1e4fbdf70000000000000000000000000000000000000000000000000000000081526004016111e19190611872565b60405180910390fd5b6111f381611350565b50565b7f000000000000000000000000000000000000000000000000000000000000000081565b600033905090565b61122a610ae0565b15611261576040517fd93c066500000000000000000000000000000000000000000000000000000000815260040160405180910390fd5b565b60026001540361129f576040517f3ee5aeb500000000000000000000000000000000000000000000000000000000815260040160405180910390fd5b6002600181905550565b6000826112b6858461149f565b1490509392505050565b60018081905550565b6112d161121a565b73ffffffffffffffffffffffffffffffffffffffff166112ef610c11565b73ffffffffffffffffffffffffffffffffffffffff161461134e5761131261121a565b6040517f118cdaa70000000000000000000000000000000000000000000000000000000081526004016113459190611872565b60405180910390fd5b565b60008060009054906101000a900473ffffffffffffffffffffffffffffffffffffffff169050816000806101000a81548173ffffffffffffffffffffffffffffffffffffffff021916908373ffffffffffffffffffffffffffffffffffffffff1602179055508173ffffffffffffffffffffffffffffffffffffffff168173ffffffffffffffffffffffffffffffffffffffff167f8be0079c531659141344cd1fd0a4f28419497f9722a3daafe3b4186f6b6457e060405160405180910390a35050565b60007ff0c57e16840df040f15088dc2f81fe391c3923bec73e23a9662efc9c229c6a00905090565b6114446114ef565b6000600260006101000a81548160ff0219169083151502179055507f5db9ee0a495bf2e6ff9c91a7834c1ba4fdd244a5e8aa4e537bd38aeae4b073aa61148861121a565b6040516114959190611872565b60405180910390a1565b60008082905060005b84518110156114e4576114d5828683815181106114c8576114c7611ee9565b5b602002602001015161152f565b915080806001019150506114a8565b508091505092915050565b6114f7610ae0565b61152d576040517f8dfc202b00000000000000000000000000000000000000000000000000000000815260040160405180910390fd5b565b600081831061154757611542828461155a565b611552565b611551838361155a565b5b905092915050565b600082600052816020526040600020905092915050565b600080fd5b600080fd5b6000819050919050565b61158e8161157b565b811461159957600080fd5b50565b6000813590506115ab81611585565b92915050565b600073ffffffffffffffffffffffffffffffffffffffff82169050919050565b60006115dc826115b1565b9050919050565b6115ec816115d1565b81146115f757600080fd5b50565b600081359050611609816115e3565b92915050565b6000806040838503121561162657611625611571565b5b60006116348582860161159c565b9250506020611645858286016115fa565b9150509250929050565b6000819050919050565b6116628161164f565b82525050565b600060208201905061167d6000830184611659565b92915050565b6000819050919050565b60006116a86116a361169e846115b1565b611683565b6115b1565b9050919050565b60006116ba8261168d565b9050919050565b60006116cc826116af565b9050919050565b6116dc816116c1565b82525050565b60006020820190506116f760008301846116d3565b92915050565b600080fd5b600080fd5b600080fd5b60008083601f840112611722576117216116fd565b5b8235905067ffffffffffffffff81111561173f5761173e611702565b5b60208301915083602082028301111561175b5761175a611707565b5b9250929050565b6000806000806060858703121561177c5761177b611571565b5b600061178a878288016115fa565b945050602061179b8782880161159c565b935050604085013567ffffffffffffffff8111156117bc576117bb611576565b5b6117c88782880161170c565b925092505092959194509250565b6117df8161157b565b82525050565b60006020820190506117fa60008301846117d6565b92915050565b60008115159050919050565b61181581611800565b82525050565b6000602082019050611830600083018461180c565b92915050565b60006020828403121561184c5761184b611571565b5b600061185a848285016115fa565b91505092915050565b61186c816115d1565b82525050565b60006020820190506118876000830184611863565b92915050565b6118968161164f565b81146118a157600080fd5b50565b6000813590506118b38161188d565b92915050565b6000602082840312156118cf576118ce611571565b5b60006118dd848285016118a4565b91505092915050565b6000602082840312156118fc576118fb611571565b5b600061190a8482850161159c565b91505092915050565b600061191e826116af565b9050919050565b61192e81611913565b82525050565b60006020820190506119496000830184611925565b92915050565b600082825260208201905092915050565b7f6e6f74206465706f7369746f7200000000000000000000000000000000000000600082015250565b6000611996600d8361194f565b91506119a182611960565b602082019050919050565b600060208201905081810360008301526119c581611989565b9050919050565b60006040820190506119e16000830185611863565b6119ee60208301846117d6565b9392505050565b6119fe81611800565b8114611a0957600080fd5b50565b600081519050611a1b816119f5565b92915050565b600060208284031215611a3757611a36611571565b5b6000611a4584828501611a0c565b91505092915050565b7f63616e206e6f7420776974686472617700000000000000000000000000000000600082015250565b6000611a8460108361194f565b9150611a8f82611a4e565b602082019050919050565b60006020820190508181036000830152611ab381611a77565b9050919050565b7f68617320636c61696d6564000000000000000000000000000000000000000000600082015250565b6000611af0600b8361194f565b9150611afb82611aba565b602082019050919050565b60006020820190508181036000830152611b1f81611ae3565b9050919050565b7f6e6f7420737570706f7274207965740000000000000000000000000000000000600082015250565b6000611b5c600f8361194f565b9150611b6782611b26565b602082019050919050565b60006020820190508181036000830152611b8b81611b4f565b9050919050565b60008160601b9050919050565b6000611baa82611b92565b9050919050565b6000611bbc82611b9f565b9050919050565b611bd4611bcf826115d1565b611bb1565b82525050565b6000819050919050565b611bf5611bf08261157b565b611bda565b82525050565b6000611c078285611bc3565b601482019150611c178284611be4565b6020820191508190509392505050565b7f63616e206e6f74207472616e7366657220746f6b656e00000000000000000000600082015250565b6000611c5d60168361194f565b9150611c6882611c27565b602082019050919050565b60006020820190508181036000830152611c8c81611c50565b9050919050565b6000819050919050565b6000611cb8611cb3611cae84611c93565b611683565b61157b565b9050919050565b611cc881611c9d565b82525050565b6000604082019050611ce36000830185611863565b611cf06020830184611cbf565b9392505050565b6000606082019050611d0c60008301866117d6565b611d1960208301856117d6565b611d266040830184611863565b949350505050565b600081519050611d3d81611585565b92915050565b600060208284031215611d5957611d58611571565b5b6000611d6784828501611d2e565b91505092915050565b6000819050919050565b600067ffffffffffffffff82169050919050565b6000611da9611da4611d9f84611d70565b611683565b611d7a565b9050919050565b611db981611d8e565b82525050565b6000602082019050611dd46000830184611db0565b92915050565b6000606082019050611def6000830186611863565b611dfc6020830185611863565b611e0960408301846117d6565b949350505050565b7f63616e206e6f74206465706f7369740000000000000000000000000000000000600082015250565b6000611e47600f8361194f565b9150611e5282611e11565b602082019050919050565b60006020820190508181036000830152611e7681611e3a565b9050919050565b7f697420697320746865206465706f7369746f7200000000000000000000000000600082015250565b6000611eb360138361194f565b9150611ebe82611e7d565b602082019050919050565b60006020820190508181036000830152611ee281611ea6565b9050919050565b7f4e487b7100000000000000000000000000000000000000000000000000000000600052603260045260246000fdfea2646970667358221220af5d05bb478681303307c48ddbdb458557795943795a8068b626930751b83bde64736f6c63430008180033",
  "linkReferences": {},
  "deployedLinkReferences": {}
}