{
  "_format": "hh-sol-artifact-1",
  "contractName": "NFTSalesSplitter",
  "sourceName": "contracts/NFTSalesSplitter.sol",
  "abi": [
    {
      "inputs": [],
      "stateMutability": "nonpayable",
      "type": "constructor"
    },
    {
      "anonymous": false,
      "inputs": [
        {
          "indexed": false,
          "internalType": "uint8",
          "name": "version",
          "type": "uint8"
        }
      ],
      "name": "Initialized",
      "type": "event"
    },
    {
      "anonymous": false,
      "inputs": [
        {
          "indexed": true,
          "internalType": "address",
          "name": "previousOwner",
          "type": "address"
        },
        {
          "indexed": true,
          "internalType": "address",
          "name": "newOwner",
          "type": "address"
        }
      ],
      "name": "OwnershipTransferred",
      "type": "event"
    },
    {
      "anonymous": false,
      "inputs": [
        {
          "indexed": true,
          "internalType": "uint256",
          "name": "timestamp",
          "type": "uint256"
        },
        {
          "indexed": false,
          "internalType": "uint256",
          "name": "toStake",
          "type": "uint256"
        },
        {
          "indexed": false,
          "internalType": "uint256",
          "name": "toRoyalties",
          "type": "uint256"
        }
      ],
      "name": "Split",
      "type": "event"
    },
    {
      "inputs": [],
      "name": "PRECISION",
      "outputs": [
        {
          "internalType": "uint256",
          "name": "",
          "type": "uint256"
        }
      ],
      "stateMutability": "view",
      "type": "function"
    },
    {
      "inputs": [],
      "name": "WEEK",
      "outputs": [
        {
          "internalType": "uint256",
          "name": "",
          "type": "uint256"
        }
      ],
      "stateMutability": "view",
      "type": "function"
    },
    {
      "inputs": [],
      "name": "balanceOf",
      "outputs": [
        {
          "internalType": "uint256",
          "name": "",
          "type": "uint256"
        }
      ],
      "stateMutability": "view",
      "type": "function"
    },
    {
      "inputs": [],
      "name": "converterFee",
      "outputs": [
        {
          "internalType": "uint256",
          "name": "",
          "type": "uint256"
        }
      ],
      "stateMutability": "view",
      "type": "function"
    },
    {
      "inputs": [],
      "name": "initialize",
      "outputs": [],
      "stateMutability": "nonpayable",
      "type": "function"
    },
    {
      "inputs": [],
      "name": "owner",
      "outputs": [
        {
          "internalType": "address",
          "name": "",
          "type": "address"
        }
      ],
      "stateMutability": "view",
      "type": "function"
    },
    {
      "inputs": [],
      "name": "renounceOwnership",
      "outputs": [],
      "stateMutability": "nonpayable",
      "type": "function"
    },
    {
      "inputs": [],
      "name": "royalties",
      "outputs": [
        {
          "internalType": "address",
          "name": "",
          "type": "address"
        }
      ],
      "stateMutability": "view",
      "type": "function"
    },
    {
      "inputs": [],
      "name": "royaltiesFee",
      "outputs": [
        {
          "internalType": "uint256",
          "name": "",
          "type": "uint256"
        }
      ],
      "stateMutability": "view",
      "type": "function"
    },
    {
      "inputs": [
        {
          "internalType": "address",
          "name": "_converter",
          "type": "address"
        }
      ],
      "name": "setConverter",
      "outputs": [],
      "stateMutability": "nonpayable",
      "type": "function"
    },
    {
      "inputs": [
        {
          "internalType": "uint256",
          "name": "_amountToStaking",
          "type": "uint256"
        },
        {
          "internalType": "uint256",
          "name": "_amountToRoyalties",
          "type": "uint256"
        }
      ],
      "name": "setFees",
      "outputs": [],
      "stateMutability": "nonpayable",
      "type": "function"
    },
    {
      "inputs": [
        {
          "internalType": "address",
          "name": "_royal",
          "type": "address"
        }
      ],
      "name": "setRoyalties",
      "outputs": [],
      "stateMutability": "nonpayable",
      "type": "function"
    },
    {
      "inputs": [
        {
          "internalType": "address",
          "name": "_splitter",
          "type": "address"
        },
        {
          "internalType": "bool",
          "name": "_what",
          "type": "bool"
        }
      ],
      "name": "setSplitter",
      "outputs": [],
      "stateMutability": "nonpayable",
      "type": "function"
    },
    {
      "inputs": [],
      "name": "split",
      "outputs": [],
      "stateMutability": "nonpayable",
      "type": "function"
    },
    {
      "inputs": [
        {
          "internalType": "address",
          "name": "",
          "type": "address"
        }
      ],
      "name": "splitter",
      "outputs": [
        {
          "internalType": "bool",
          "name": "",
          "type": "bool"
        }
      ],
      "stateMutability": "view",
      "type": "function"
    },
    {
      "inputs": [],
      "name": "stakingConverter",
      "outputs": [
        {
          "internalType": "address",
          "name": "",
          "type": "address"
        }
      ],
      "stateMutability": "view",
      "type": "function"
    },
    {
      "inputs": [],
      "name": "swapWIOTXToIOTX",
      "outputs": [],
      "stateMutability": "nonpayable",
      "type": "function"
    },
    {
      "inputs": [
        {
          "internalType": "address",
          "name": "newOwner",
          "type": "address"
        }
      ],
      "name": "transferOwnership",
      "outputs": [],
      "stateMutability": "nonpayable",
      "type": "function"
    },
    {
      "inputs": [],
      "name": "wIOTX",
      "outputs": [
        {
          "internalType": "address",
          "name": "",
          "type": "address"
        }
      ],
      "stateMutability": "view",
      "type": "function"
    },
    {
      "inputs": [
        {
          "internalType": "address",
          "name": "_token",
          "type": "address"
        }
      ],
      "name": "withdrawERC20",
      "outputs": [],
      "stateMutability": "nonpayable",
      "type": "function"
    },
    {
      "stateMutability": "payable",
      "type": "receive"
    }
  ],
  "bytecode": "0x608060405234801561001057600080fd5b50610fa9806100206000396000f3fe6080604052600436106101235760003560e01c8063aaf5eb68116100a0578063f053dc5c11610064578063f053dc5c14610310578063f2fde38b14610330578063f4359ce514610350578063f4f3b20014610367578063f76541761461038757600080fd5b8063aaf5eb6814610284578063b19337a41461029a578063ce08baa7146102ba578063d3ce9ab3146102da578063de74d499146102fa57600080fd5b8063722713f7116100e7578063722713f7146101e057806374e741f8146102035780638129fc1c1461023b5780638da5cb5b1461025057806399093a331461026e57600080fd5b80630b0b1a0d1461012f5780630b78f9c0146101465780632a9e63c614610166578063351ad5e814610186578063715018a6146101cb57600080fd5b3661012a57005b600080fd5b34801561013b57600080fd5b5061014461039c565b005b34801561015257600080fd5b50610144610161366004610dde565b6103d7565b34801561017257600080fd5b50610144610181366004610e1c565b61043b565b34801561019257600080fd5b506101b66101a1366004610e1c565b606a6020526000908152604090205460ff1681565b60405190151581526020015b60405180910390f35b3480156101d757600080fd5b50610144610478565b3480156101ec57600080fd5b506101f561048a565b6040519081526020016101c2565b34801561020f57600080fd5b50606754610223906001600160a01b031681565b6040516001600160a01b0390911681526020016101c2565b34801561024757600080fd5b506101446104fc565b34801561025c57600080fd5b506033546001600160a01b0316610223565b34801561027a57600080fd5b506101f560665481565b34801561029057600080fd5b506101f56103e881565b3480156102a657600080fd5b506101446102b5366004610e1c565b61067f565b3480156102c657600080fd5b50606854610223906001600160a01b031681565b3480156102e657600080fd5b506101446102f5366004610e4c565b6106bc565b34801561030657600080fd5b506101f560655481565b34801561031c57600080fd5b50606954610223906001600160a01b031681565b34801561033c57600080fd5b5061014461034b366004610e1c565b6106ef565b34801561035c57600080fd5b506101f56202a30081565b34801561037357600080fd5b50610144610382366004610e1c565b610765565b34801561039357600080fd5b50610144610864565b6033546001600160a01b03163314806103c45750336000908152606a602052604090205460ff165b6103cd57600080fd5b6103d5610c67565b565b6103df610cd8565b6103e86066546065546103f29190610e99565b11156104305760405162461bcd60e51b8152602060048201526008602482015267746f6f206d616e7960c01b60448201526064015b60405180910390fd5b606591909155606655565b610443610cd8565b6001600160a01b03811661045657600080fd5b606980546001600160a01b0319166001600160a01b0392909216919091179055565b610480610cd8565b6103d56000610d32565b6067546040516370a0823160e01b81523060048201526000916001600160a01b0316906370a0823190602401602060405180830381865afa1580156104d3573d6000803e3d6000fd5b505050506040513d601f19601f820116820180604052508101906104f79190610eb1565b905090565b600054610100900460ff161580801561051c5750600054600160ff909116105b806105365750303b158015610536575060005460ff166001145b6105995760405162461bcd60e51b815260206004820152602e60248201527f496e697469616c697a61626c653a20636f6e747261637420697320616c72656160448201526d191e481a5b9a5d1a585b1a5e995960921b6064820152608401610427565b6000805460ff1916600117905580156105bc576000805461ff0019166101001790555b6105c4610d84565b606780546001600160a01b03199081167387b873224ead2a8cbbb7cfb39b18a795e7da8cc71790915560688054821673495c2ab164f6ee12807222faa8c21b402c271a7a17905560698054909116735b6af9bb85c510411babd6eacc9c72892c3b894b17905561014d60655561029b606655801561067c576000805461ff0019169055604051600181527f7f26b83ff96e1f2b6a682f133852f6798a09c465da95921460cefb38474024989060200160405180910390a15b50565b610687610cd8565b6001600160a01b03811661069a57600080fd5b606880546001600160a01b0319166001600160a01b0392909216919091179055565b6106c4610cd8565b6001600160a01b03919091166000908152606a60205260409020805460ff1916911515919091179055565b6106f7610cd8565b6001600160a01b03811661075c5760405162461bcd60e51b815260206004820152602660248201527f4f776e61626c653a206e6577206f776e657220697320746865207a65726f206160448201526564647265737360d01b6064820152608401610427565b61067c81610d32565b61076d610cd8565b6001600160a01b03811661078057600080fd5b6040516370a0823160e01b81523060048201526000906001600160a01b038316906370a0823190602401602060405180830381865afa1580156107c7573d6000803e3d6000fd5b505050506040513d601f19601f820116820180604052508101906107eb9190610eb1565b60405163a9059cbb60e01b8152336004820152602481018290529091506001600160a01b0383169063a9059cbb906044016020604051808303816000875af115801561083b573d6000803e3d6000fd5b505050506040513d601f19601f8201168201806040525081019061085f9190610eca565b505050565b6033546001600160a01b031633148061088c5750336000908152606a602052604090205460ff165b61089557600080fd5b61089d610c67565b60006108a761048a565b9050600080806202a3006108bb8142610ee7565b6108c59190610f09565b90506103e8841115610c25576068546001600160a01b031615610a4a576103e8606554856108f39190610f09565b6108fd9190610ee7565b60675460685460405163a9059cbb60e01b81526001600160a01b03918216600482015260248101849052929550169063a9059cbb906044016020604051808303816000875af1158015610954573d6000803e3d6000fd5b505050506040513d601f19601f820116820180604052508101906109789190610eca565b50606860009054906101000a90046001600160a01b03166001600160a01b031663d294f0936040518163ffffffff1660e01b8152600401600060405180830381600087803b1580156109c957600080fd5b505af11580156109dd573d6000803e3d6000fd5b50505050606860009054906101000a90046001600160a01b03166001600160a01b0316638119c0656040518163ffffffff1660e01b8152600401600060405180830381600087803b158015610a3157600080fd5b505af1158015610a45573d6000803e3d6000fd5b505050505b6069546001600160a01b031615610be5576103e860665485610a6c9190610f09565b610a769190610ee7565b915081610a8161048a565b1015610a9257610a8f61048a565b91505b60675460695460405163095ea7b360e01b81526001600160a01b0391821660048201526000602482015291169063095ea7b3906044016020604051808303816000875af1158015610ae7573d6000803e3d6000fd5b505050506040513d601f19601f82011682018060405250810190610b0b9190610eca565b5060675460695460405163095ea7b360e01b81526001600160a01b0391821660048201526024810185905291169063095ea7b3906044016020604051808303816000875af1158015610b61573d6000803e3d6000fd5b505050506040513d601f19601f82011682018060405250810190610b859190610eca565b5060695460405163b6b55f2560e01b8152600481018490526001600160a01b039091169063b6b55f2590602401600060405180830381600087803b158015610bcc57600080fd5b505af1158015610be0573d6000803e3d6000fd5b505050505b604080518481526020810184905282917fcf0974dfd867840133a0d4b02f1672f24017796fb8892d1e0d587692e4da90ab910160405180910390a2610c61565b604080516000808252602082015282917fcf0974dfd867840133a0d4b02f1672f24017796fb8892d1e0d587692e4da90ab910160405180910390a25b50505050565b47156103d557606760009054906101000a90046001600160a01b03166001600160a01b031663d0e30db0476040518263ffffffff1660e01b81526004016000604051808303818588803b158015610cbd57600080fd5b505af1158015610cd1573d6000803e3d6000fd5b5050505050565b6033546001600160a01b031633146103d55760405162461bcd60e51b815260206004820181905260248201527f4f776e61626c653a2063616c6c6572206973206e6f7420746865206f776e65726044820152606401610427565b603380546001600160a01b038381166001600160a01b0319831681179093556040519116919082907f8be0079c531659141344cd1fd0a4f28419497f9722a3daafe3b4186f6b6457e090600090a35050565b600054610100900460ff16610dab5760405162461bcd60e51b815260040161042790610f28565b6103d5600054610100900460ff16610dd55760405162461bcd60e51b815260040161042790610f28565b6103d533610d32565b60008060408385031215610df157600080fd5b50508035926020909101359150565b80356001600160a01b0381168114610e1757600080fd5b919050565b600060208284031215610e2e57600080fd5b610e3782610e00565b9392505050565b801515811461067c57600080fd5b60008060408385031215610e5f57600080fd5b610e6883610e00565b91506020830135610e7881610e3e565b809150509250929050565b634e487b7160e01b600052601160045260246000fd5b60008219821115610eac57610eac610e83565b500190565b600060208284031215610ec357600080fd5b5051919050565b600060208284031215610edc57600080fd5b8151610e3781610e3e565b600082610f0457634e487b7160e01b600052601260045260246000fd5b500490565b6000816000190483118215151615610f2357610f23610e83565b500290565b6020808252602b908201527f496e697469616c697a61626c653a20636f6e7472616374206973206e6f74206960408201526a6e697469616c697a696e6760a81b60608201526080019056fea2646970667358221220dc3178a70edd057da95ee1e4387e0d4189aa507cea7e5fdc08dfcfde493db9b564736f6c634300080d0033",
  "linkReferences": {},
  "deployedLinkReferences": {}
}