{
  "_format": "hh-sol-artifact-1",
  "contractName": "AirdropClaimLoxNFT",
  "sourceName": "contracts/MerkleTree/AirdropClaimTheNFT.sol",
  "abi": [
    {
      "inputs": [
        {
          "internalType": "address",
          "name": "_token",
          "type": "address"
        },
        {
          "internalType": "address",
          "name": "_ve",
          "type": "address"
        }
      ],
      "stateMutability": "nonpayable",
      "type": "constructor"
    },
    {
      "anonymous": false,
      "inputs": [
        {
          "indexed": true,
          "internalType": "address",
          "name": "_who",
          "type": "address"
        },
        {
          "indexed": true,
          "internalType": "address",
          "name": "_to",
          "type": "address"
        },
        {
          "indexed": false,
          "internalType": "uint256",
          "name": "_totalAmount",
          "type": "uint256"
        },
        {
          "indexed": false,
          "internalType": "uint256",
          "name": "veAmount",
          "type": "uint256"
        },
        {
          "indexed": false,
          "internalType": "uint256",
          "name": "_tokenId",
          "type": "uint256"
        },
        {
          "indexed": false,
          "internalType": "uint256",
          "name": "_when",
          "type": "uint256"
        }
      ],
      "name": "Claim",
      "type": "event"
    },
    {
      "anonymous": false,
      "inputs": [
        {
          "indexed": false,
          "internalType": "uint256",
          "name": "amount",
          "type": "uint256"
        }
      ],
      "name": "Deposit",
      "type": "event"
    },
    {
      "anonymous": false,
      "inputs": [
        {
          "indexed": false,
          "internalType": "uint256",
          "name": "amount",
          "type": "uint256"
        }
      ],
      "name": "Withdraw",
      "type": "event"
    },
    {
      "inputs": [],
      "name": "LOCK_PERIOD",
      "outputs": [
        {
          "internalType": "uint256",
          "name": "",
          "type": "uint256"
        }
      ],
      "stateMutability": "view",
      "type": "function"
    },
    {
      "inputs": [],
      "name": "PRECISION",
      "outputs": [
        {
          "internalType": "uint256",
          "name": "",
          "type": "uint256"
        }
      ],
      "stateMutability": "view",
      "type": "function"
    },
    {
      "inputs": [],
      "name": "VE_SHARE",
      "outputs": [
        {
          "internalType": "uint256",
          "name": "",
          "type": "uint256"
        }
      ],
      "stateMutability": "view",
      "type": "function"
    },
    {
      "inputs": [
        {
          "internalType": "address",
          "name": "_who",
          "type": "address"
        },
        {
          "internalType": "uint256",
          "name": "_amount",
          "type": "uint256"
        },
        {
          "internalType": "address",
          "name": "_to",
          "type": "address"
        }
      ],
      "name": "claim",
      "outputs": [
        {
          "internalType": "bool",
          "name": "",
          "type": "bool"
        }
      ],
      "stateMutability": "nonpayable",
      "type": "function"
    },
    {
      "inputs": [
        {
          "internalType": "uint256",
          "name": "amount",
          "type": "uint256"
        }
      ],
      "name": "deposit",
      "outputs": [],
      "stateMutability": "nonpayable",
      "type": "function"
    },
    {
      "inputs": [
        {
          "internalType": "address",
          "name": "",
          "type": "address"
        }
      ],
      "name": "depositors",
      "outputs": [
        {
          "internalType": "bool",
          "name": "",
          "type": "bool"
        }
      ],
      "stateMutability": "view",
      "type": "function"
    },
    {
      "inputs": [],
      "name": "init",
      "outputs": [
        {
          "internalType": "bool",
          "name": "",
          "type": "bool"
        }
      ],
      "stateMutability": "view",
      "type": "function"
    },
    {
      "inputs": [],
      "name": "merkle",
      "outputs": [
        {
          "internalType": "address",
          "name": "",
          "type": "address"
        }
      ],
      "stateMutability": "view",
      "type": "function"
    },
    {
      "inputs": [],
      "name": "owner",
      "outputs": [
        {
          "internalType": "address",
          "name": "",
          "type": "address"
        }
      ],
      "stateMutability": "view",
      "type": "function"
    },
    {
      "inputs": [
        {
          "internalType": "address",
          "name": "depositor",
          "type": "address"
        }
      ],
      "name": "setDepositor",
      "outputs": [],
      "stateMutability": "nonpayable",
      "type": "function"
    },
    {
      "inputs": [
        {
          "internalType": "address",
          "name": "_merkle",
          "type": "address"
        }
      ],
      "name": "setMerkleTreeContract",
      "outputs": [],
      "stateMutability": "nonpayable",
      "type": "function"
    },
    {
      "inputs": [
        {
          "internalType": "address",
          "name": "_owner",
          "type": "address"
        }
      ],
      "name": "setOwner",
      "outputs": [],
      "stateMutability": "nonpayable",
      "type": "function"
    },
    {
      "inputs": [
        {
          "internalType": "uint256",
          "name": "_share",
          "type": "uint256"
        }
      ],
      "name": "setVeShare",
      "outputs": [],
      "stateMutability": "nonpayable",
      "type": "function"
    },
    {
      "inputs": [],
      "name": "token",
      "outputs": [
        {
          "internalType": "contract IERC20",
          "name": "",
          "type": "address"
        }
      ],
      "stateMutability": "view",
      "type": "function"
    },
    {
      "inputs": [],
      "name": "tokenPerSec",
      "outputs": [
        {
          "internalType": "uint256",
          "name": "",
          "type": "uint256"
        }
      ],
      "stateMutability": "view",
      "type": "function"
    },
    {
      "inputs": [],
      "name": "totalAirdrop",
      "outputs": [
        {
          "internalType": "uint256",
          "name": "",
          "type": "uint256"
        }
      ],
      "stateMutability": "view",
      "type": "function"
    },
    {
      "inputs": [],
      "name": "ve",
      "outputs": [
        {
          "internalType": "address",
          "name": "",
          "type": "address"
        }
      ],
      "stateMutability": "view",
      "type": "function"
    },
    {
      "inputs": [
        {
          "internalType": "uint256",
          "name": "amount",
          "type": "uint256"
        },
        {
          "internalType": "address",
          "name": "_token",
          "type": "address"
        },
        {
          "internalType": "address",
          "name": "_to",
          "type": "address"
        }
      ],
      "name": "withdraw",
      "outputs": [],
      "stateMutability": "nonpayable",
      "type": "function"
    }
  ],
  "bytecode": "0x608060405234801561001057600080fd5b50604051610fd6380380610fd683398101604081905261002f9161009a565b6001600055600680546001600160a01b03199081163317909155600980546001600160a01b03948516908316179055600780549290931691161790556303bfc4006004556101906002556100cd565b80516001600160a01b038116811461009557600080fd5b919050565b600080604083850312156100ad57600080fd5b6100b68361007e565b91506100c46020840161007e565b90509250929050565b610efa806100dc6000396000f3fe608060405234801561001057600080fd5b50600436106101165760003560e01c80639e96a260116100a2578063c584b9b511610071578063c584b9b51461021d578063e1c7392a14610230578063eed75f6d1461023d578063f2c098b714610260578063fc0c546a1461027357600080fd5b80639e96a260146101cb578063aaf5eb68146101ee578063b460af94146101f7578063b6b55f251461020a57600080fd5b806350fd1f3e116100e957806350fd1f3e1461018a5780635ce97dbb1461019357806365448c421461019c57806381eed085146101af5780638da5cb5b146101b857600080fd5b806306ad05ab1461011b57806313af4035146101305780631820cabb146101435780631f8507161461015f575b600080fd5b61012e610129366004610c99565b610286565b005b61012e61013e366004610c99565b6102ee565b61014c60045481565b6040519081526020015b60405180910390f35b600754610172906001600160a01b031681565b6040516001600160a01b039091168152602001610156565b61014c60035481565b61014c60055481565b61012e6101aa366004610cb6565b61034d565b61014c60025481565b600654610172906001600160a01b031681565b6101de6101d9366004610ccf565b61038b565b6040519015158152602001610156565b61014c6103e881565b61012e610205366004610d11565b610775565b61012e610218366004610cb6565b61080e565b600854610172906001600160a01b031681565b6001546101de9060ff1681565b6101de61024b366004610c99565b600a6020526000908152604090205460ff1681565b61012e61026e366004610c99565b6108a9565b600954610172906001600160a01b031681565b6006546001600160a01b031633146102b95760405162461bcd60e51b81526004016102b090610d48565b60405180910390fd5b6001600160a01b0381166102cc57600080fd5b600880546001600160a01b0319166001600160a01b0392909216919091179055565b6006546001600160a01b031633146103185760405162461bcd60e51b81526004016102b090610d48565b6001600160a01b03811661032b57600080fd5b600680546001600160a01b0319166001600160a01b0392909216919091179055565b6006546001600160a01b031633146103775760405162461bcd60e51b81526004016102b090610d48565b6103e881111561038657600080fd5b600255565b600061039561091d565b6008546001600160a01b031633146103dc5760405162461bcd60e51b815260206004820152600a6024820152696e6f74206d65726b6c6560b01b60448201526064016102b0565b6009546040516370a0823160e01b815230600482015284916001600160a01b0316906370a0823190602401602060405180830381865afa158015610424573d6000803e3d6000fd5b505050506040513d601f19601f820116820180604052508101906104489190610d6b565b10156104895760405162461bcd60e51b815260206004820152601060248201526f3737ba1032b737bab3b4103a37b5b2b760811b60448201526064016102b0565b60006103e88460025461049c9190610d9a565b6104a69190610db9565b60095460075460405163095ea7b360e01b81526001600160a01b03918216600482015260006024820152929350169063095ea7b3906044016020604051808303816000875af11580156104fd573d6000803e3d6000fd5b505050506040513d601f19601f820116820180604052508101906105219190610ddb565b5060095460075460405163095ea7b360e01b81526001600160a01b0391821660048201526024810187905291169063095ea7b3906044016020604051808303816000875af1158015610577573d6000803e3d6000fd5b505050506040513d601f19601f8201168201806040525081019061059b9190610ddb565b506007546004805460405163d4e54c3b60e01b815291820184905260248201526001600160a01b038581166044830152600092169063d4e54c3b906064016020604051808303816000875af11580156105f8573d6000803e3d6000fd5b505050506040513d601f19601f8201168201806040525081019061061c9190610d6b565b90508060000361062b57600080fd5b6007546040516331a9108f60e11b8152600481018390526001600160a01b03868116921690636352211e90602401602060405180830381865afa158015610676573d6000803e3d6000fd5b505050506040513d601f19601f8201168201806040525081019061069a9190610dfd565b6001600160a01b0316146106e05760405162461bcd60e51b815260206004820152600d60248201526c1ddc9bdb99c81d99481b5a5b9d609a1b60448201526064016102b0565b60006106ec8387610e1a565b600954909150610706906001600160a01b03168683610976565b60408051878152602081018590529081018390524260608201526001600160a01b0380871691908916907fe59ff71ac92a9cdaad8faaee0aeac469c4e887ad48391d6bc2512e644d33efa19060800160405180910390a36001935050505061076e6001600055565b9392505050565b336000908152600a602052604090205460ff161515600114806107a257506006546001600160a01b031633145b6107ab57600080fd5b6107bf6001600160a01b0383168285610976565b82600560008282546107d19190610e1a565b90915550506040518381527f5b6b431d4476a211bb7d41c20d1aab9ae2321deee0d20be3d9fc9b1093fa6e3d9060200160405180910390a1505050565b336000908152600a602052604090205460ff1615156001148061083b57506006546001600160a01b031633145b61084457600080fd5b60095461085c906001600160a01b03163330846109de565b806005600082825461086e9190610e31565b90915550506040518181527f4d6ce1e535dbade1c23defba91e23b8f791ce5edc0cc320257a2b364e4e384269060200160405180910390a150565b6006546001600160a01b031633146108d35760405162461bcd60e51b81526004016102b090610d48565b6001600160a01b0381166000908152600a602052604090205460ff16156108f957600080fd5b6001600160a01b03166000908152600a60205260409020805460ff19166001179055565b60026000540361096f5760405162461bcd60e51b815260206004820152601f60248201527f5265656e7472616e637947756172643a207265656e7472616e742063616c6c0060448201526064016102b0565b6002600055565b6040516001600160a01b0383166024820152604481018290526109d990849063a9059cbb60e01b906064015b60408051601f198184030181529190526020810180516001600160e01b03166001600160e01b031990931692909217909152610a1c565b505050565b6040516001600160a01b0380851660248301528316604482015260648101829052610a169085906323b872dd60e01b906084016109a2565b50505050565b6000610a71826040518060400160405280602081526020017f5361666545524332303a206c6f772d6c6576656c2063616c6c206661696c6564815250856001600160a01b0316610af19092919063ffffffff16565b9050805160001480610a92575080806020019051810190610a929190610ddb565b6109d95760405162461bcd60e51b815260206004820152602a60248201527f5361666545524332303a204552433230206f7065726174696f6e20646964206e6044820152691bdd081cdd58d8d9595960b21b60648201526084016102b0565b6060610b008484600085610b08565b949350505050565b606082471015610b695760405162461bcd60e51b815260206004820152602660248201527f416464726573733a20696e73756666696369656e742062616c616e636520666f6044820152651c8818d85b1b60d21b60648201526084016102b0565b600080866001600160a01b03168587604051610b859190610e75565b60006040518083038185875af1925050503d8060008114610bc2576040519150601f19603f3d011682016040523d82523d6000602084013e610bc7565b606091505b5091509150610bd887838387610be3565b979650505050505050565b60608315610c52578251600003610c4b576001600160a01b0385163b610c4b5760405162461bcd60e51b815260206004820152601d60248201527f416464726573733a2063616c6c20746f206e6f6e2d636f6e747261637400000060448201526064016102b0565b5081610b00565b610b008383815115610c675781518083602001fd5b8060405162461bcd60e51b81526004016102b09190610e91565b6001600160a01b0381168114610c9657600080fd5b50565b600060208284031215610cab57600080fd5b813561076e81610c81565b600060208284031215610cc857600080fd5b5035919050565b600080600060608486031215610ce457600080fd5b8335610cef81610c81565b9250602084013591506040840135610d0681610c81565b809150509250925092565b600080600060608486031215610d2657600080fd5b833592506020840135610d3881610c81565b91506040840135610d0681610c81565b6020808252600990820152683737ba1037bbb732b960b91b604082015260600190565b600060208284031215610d7d57600080fd5b5051919050565b634e487b7160e01b600052601160045260246000fd5b6000816000190483118215151615610db457610db4610d84565b500290565b600082610dd657634e487b7160e01b600052601260045260246000fd5b500490565b600060208284031215610ded57600080fd5b8151801515811461076e57600080fd5b600060208284031215610e0f57600080fd5b815161076e81610c81565b600082821015610e2c57610e2c610d84565b500390565b60008219821115610e4457610e44610d84565b500190565b60005b83811015610e64578181015183820152602001610e4c565b83811115610a165750506000910152565b60008251610e87818460208701610e49565b9190910192915050565b6020815260008251806020840152610eb0816040850160208701610e49565b601f01601f1916919091016040019291505056fea26469706673582212200a8982d2d8cae8d8f03bbbd0599ed85cefddbafed084ae7620e216e1d53e284664736f6c634300080d0033",
  "linkReferences": {},
  "deployedLinkReferences": {}
}