{
  "_format": "hh-sol-artifact-1",
  "contractName": "MerkleTree",
  "sourceName": "contracts/MerkleTree/MerkleTree.sol",
  "abi": [
    {
      "inputs": [
        {
          "internalType": "address",
          "name": "_airdropClaim",
          "type": "address"
        },
        {
          "internalType": "bytes32",
          "name": "_merkleRoot",
          "type": "bytes32"
        }
      ],
      "stateMutability": "nonpayable",
      "type": "constructor"
    },
    {
      "inputs": [
        {
          "internalType": "address",
          "name": "_who",
          "type": "address"
        }
      ],
      "name": "AlreadyClaimed",
      "type": "error"
    },
    {
      "inputs": [
        {
          "internalType": "address",
          "name": "_who",
          "type": "address"
        },
        {
          "internalType": "uint256",
          "name": "_amnt",
          "type": "uint256"
        }
      ],
      "name": "NotInMerkle",
      "type": "error"
    },
    {
      "anonymous": false,
      "inputs": [
        {
          "indexed": true,
          "internalType": "address",
          "name": "who",
          "type": "address"
        },
        {
          "indexed": true,
          "internalType": "address",
          "name": "to",
          "type": "address"
        },
        {
          "indexed": false,
          "internalType": "uint256",
          "name": "amount",
          "type": "uint256"
        }
      ],
      "name": "ClaimSet",
      "type": "event"
    },
    {
      "inputs": [],
      "name": "_init",
      "outputs": [],
      "stateMutability": "nonpayable",
      "type": "function"
    },
    {
      "inputs": [],
      "name": "airdropClaim",
      "outputs": [
        {
          "internalType": "address",
          "name": "",
          "type": "address"
        }
      ],
      "stateMutability": "view",
      "type": "function"
    },
    {
      "inputs": [
        {
          "internalType": "address",
          "name": "to",
          "type": "address"
        },
        {
          "internalType": "uint256",
          "name": "amount",
          "type": "uint256"
        },
        {
          "internalType": "uint256",
          "name": "veAmount",
          "type": "uint256"
        },
        {
          "internalType": "bytes32[]",
          "name": "proof",
          "type": "bytes32[]"
        }
      ],
      "name": "claim",
      "outputs": [],
      "stateMutability": "nonpayable",
      "type": "function"
    },
    {
      "inputs": [
        {
          "internalType": "address",
          "name": "to",
          "type": "address"
        },
        {
          "internalType": "uint256",
          "name": "amount",
          "type": "uint256"
        },
        {
          "internalType": "uint256",
          "name": "veAmount",
          "type": "uint256"
        },
        {
          "internalType": "bytes32[]",
          "name": "proof",
          "type": "bytes32[]"
        }
      ],
      "name": "claimVe",
      "outputs": [],
      "stateMutability": "nonpayable",
      "type": "function"
    },
    {
      "inputs": [
        {
          "internalType": "address",
          "name": "",
          "type": "address"
        }
      ],
      "name": "hasClaimed",
      "outputs": [
        {
          "internalType": "bool",
          "name": "",
          "type": "bool"
        }
      ],
      "stateMutability": "view",
      "type": "function"
    },
    {
      "inputs": [],
      "name": "info",
      "outputs": [
        {
          "internalType": "string",
          "name": "",
          "type": "string"
        }
      ],
      "stateMutability": "view",
      "type": "function"
    },
    {
      "inputs": [],
      "name": "init",
      "outputs": [
        {
          "internalType": "bool",
          "name": "",
          "type": "bool"
        }
      ],
      "stateMutability": "view",
      "type": "function"
    },
    {
      "inputs": [
        {
          "internalType": "address",
          "name": "",
          "type": "address"
        }
      ],
      "name": "isFnftOwner",
      "outputs": [
        {
          "internalType": "bool",
          "name": "",
          "type": "bool"
        }
      ],
      "stateMutability": "view",
      "type": "function"
    },
    {
      "inputs": [],
      "name": "merkleRoot",
      "outputs": [
        {
          "internalType": "bytes32",
          "name": "",
          "type": "bytes32"
        }
      ],
      "stateMutability": "view",
      "type": "function"
    },
    {
      "inputs": [],
      "name": "owner",
      "outputs": [
        {
          "internalType": "address",
          "name": "",
          "type": "address"
        }
      ],
      "stateMutability": "view",
      "type": "function"
    },
    {
      "inputs": [
        {
          "internalType": "address",
          "name": "",
          "type": "address"
        }
      ],
      "name": "ownersToFnft",
      "outputs": [
        {
          "internalType": "address",
          "name": "",
          "type": "address"
        }
      ],
      "stateMutability": "view",
      "type": "function"
    },
    {
      "inputs": [
        {
          "internalType": "address[]",
          "name": "owners",
          "type": "address[]"
        },
        {
          "internalType": "address[]",
          "name": "smartWallet",
          "type": "address[]"
        }
      ],
      "name": "setFNFTOwners",
      "outputs": [],
      "stateMutability": "nonpayable",
      "type": "function"
    },
    {
      "inputs": [
        {
          "internalType": "bytes32",
          "name": "_merkleRoot",
          "type": "bytes32"
        }
      ],
      "name": "setMerkleRoot",
      "outputs": [],
      "stateMutability": "nonpayable",
      "type": "function"
    },
    {
      "inputs": [
        {
          "internalType": "address",
          "name": "_owner",
          "type": "address"
        }
      ],
      "name": "setOwner",
      "outputs": [],
      "stateMutability": "nonpayable",
      "type": "function"
    },
    {
      "inputs": [
        {
          "internalType": "address[]",
          "name": "users",
          "type": "address[]"
        }
      ],
      "name": "setUserClaimed",
      "outputs": [],
      "stateMutability": "nonpayable",
      "type": "function"
    },
    {
      "inputs": [
        {
          "internalType": "address",
          "name": "",
          "type": "address"
        }
      ],
      "name": "swFnftToOwner",
      "outputs": [
        {
          "internalType": "address",
          "name": "",
          "type": "address"
        }
      ],
      "stateMutability": "view",
      "type": "function"
    }
  ],
  "bytecode": "0x60c0604052601c60809081527f4d65726b6c65547265652065636f73797374656d2041697264726f700000000060a0526007906200003e908262000149565b503480156200004c57600080fd5b5060405162001093380380620010938339810160408190526200006f9162000215565b600180546001600160a01b039093166001600160a01b031993841617905560028054909216331790915560005562000251565b634e487b7160e01b600052604160045260246000fd5b600181811c90821680620000cd57607f821691505b602082108103620000ee57634e487b7160e01b600052602260045260246000fd5b50919050565b601f82111562000144576000816000526020600020601f850160051c810160208610156200011f5750805b601f850160051c820191505b8181101562000140578281556001016200012b565b5050505b505050565b81516001600160401b03811115620001655762000165620000a2565b6200017d81620001768454620000b8565b84620000f4565b602080601f831160018114620001b557600084156200019c5750858301515b600019600386901b1c1916600185901b17855562000140565b600085815260208120601f198616915b82811015620001e657888601518255948401946001909101908401620001c5565b5085821015620002055787850151600019600388901b60f8161c191681555b5050505050600190811b01905550565b600080604083850312156200022957600080fd5b82516001600160a01b03811681146200024157600080fd5b6020939093015192949293505050565b610e3280620002616000396000f3fe608060405234801561001057600080fd5b50600436106100e05760003560e01c806373b2e80e1161008757806373b2e80e146101b85780637cb64759146101eb5780638da5cb5b146101fe578063b349b97314610211578063b6d6ed4e14610219578063d27349051461022c578063e1c7392a14610255578063e8071ef71461026957600080fd5b80630bcda918146100e557806313af40351461012b578063172bd6de146101405780632eb4a7ab14610153578063370158ea1461016a57806338cf1b491461017f5780634f813c89146101925780636cc901a1146101a5575b600080fd5b61010e6100f3366004610a30565b6005602052600090815260409020546001600160a01b031681565b6040516001600160a01b0390911681526020015b60405180910390f35b61013e610139366004610a30565b61028c565b005b61013e61014e366004610a4b565b6102f4565b61015c60005481565b604051908152602001610122565b610172610513565b6040516101229190610ae2565b61013e61018d366004610bec565b6105a1565b61013e6101a0366004610c29565b61062d565b61013e6101b3366004610a4b565b61074c565b6101db6101c6366004610a30565b60036020526000908152604090205460ff1681565b6040519015158152602001610122565b61013e6101f9366004610c8d565b6108b1565b60025461010e906001600160a01b031681565b61013e610914565b60015461010e906001600160a01b031681565b61010e61023a366004610a30565b6004602052600090815260409020546001600160a01b031681565b6002546101db90600160a01b900460ff1681565b6101db610277366004610a30565b60066020526000908152604090205460ff1681565b6002546001600160a01b031633146102bf5760405162461bcd60e51b81526004016102b690610ca6565b60405180910390fd5b6001600160a01b0381166102d257600080fd5b600280546001600160a01b0319166001600160a01b0392909216919091179055565b600254600160a01b900460ff1661031d5760405162461bcd60e51b81526004016102b690610cc9565b3360008181526006602052604090205460ff16156103505750336000908152600560205260409020546001600160a01b03165b3360009081526003602052604090205460ff16156103805760405162461bcd60e51b81526004016102b690610cee565b600081868660405160200161039793929190610d17565b60405160208183030381529060405280519060200120905060006103f085858080602002602001604051908101604052809392919081815260200183836020028082843760009201829052505492508691506109899050565b9050806104225760405163057365dd60e31b81526001600160a01b0384166004820152602481018890526044016102b6565b6001546040516314f65d9360e01b81526000916001600160a01b0316906314f65d93906104599033908d908d908d90600401610d41565b6020604051808303816000875af1158015610478573d6000803e3d6000fd5b505050506040513d601f19601f8201168201806040525081019061049c9190610d6a565b9050806104a857600080fd5b3360008181526003602052604090819020805460ff19166001179055516001600160a01b038b1691907fdc2005f113f1c2ccd6bd35df2a16954f0ff4e029277b9d76ea10b0b3b29ae96490610500908c815260200190565b60405180910390a3505050505050505050565b6007805461052090610d8c565b80601f016020809104026020016040519081016040528092919081815260200182805461054c90610d8c565b80156105995780601f1061056e57610100808354040283529160200191610599565b820191906000526020600020905b81548152906001019060200180831161057c57829003601f168201915b505050505081565b6002546001600160a01b031633146105cb5760405162461bcd60e51b81526004016102b690610ca6565b60005b8151811015610629576001600360008484815181106105ef576105ef610dc6565b6020908102919091018101516001600160a01b03168252810191909152604001600020805460ff19169115159190911790556001016105ce565b5050565b6002546001600160a01b031633146106575760405162461bcd60e51b81526004016102b690610ca6565b805182511461066557600080fd5b815160009081805b828410156107445784848151811061068757610687610dc6565b602002602001015190508584815181106106a3576106a3610dc6565b6020026020010151915060006001600160a01b0316826001600160a01b0316036106cc57600080fd5b6001600160a01b0381166106df57600080fd5b6001600160a01b03808216600081815260046020908152604080832080549588166001600160a01b03199687168117909155835260058252808320805490951690931790935560069092529020805460ff19166001908117909155939093019261066d565b505050505050565b600254600160a01b900460ff166107755760405162461bcd60e51b81526004016102b690610cc9565b3360008181526006602052604090205460ff16156107a85750336000908152600560205260409020546001600160a01b03165b3360009081526003602052604090205460ff16156107d85760405162461bcd60e51b81526004016102b690610cee565b60008186866040516020016107ef93929190610d17565b604051602081830303815290604052805190602001209050600061084885858080602002602001604051908101604052809392919081815260200183836020028082843760009201829052505492508691506109899050565b90508061087a5760405163057365dd60e31b81526001600160a01b0384166004820152602481018890526044016102b6565b600154604051638f6aac2d60e01b81526000916001600160a01b031690638f6aac2d906104599033908d908d908d90600401610d41565b6002546001600160a01b031633146108db5760405162461bcd60e51b81526004016102b690610ca6565b806108f85760405162461bcd60e51b81526004016102b690610ddc565b600254600160a01b900460ff161561090f57600080fd5b600055565b6002546001600160a01b0316331461093e5760405162461bcd60e51b81526004016102b690610ca6565b600254600160a01b900460ff161561095557600080fd5b6000546109745760405162461bcd60e51b81526004016102b690610ddc565b6002805460ff60a01b1916600160a01b179055565b600082610996858461099f565b14949350505050565b600081815b84518110156109da576109d0828683815181106109c3576109c3610dc6565b60200260200101516109e2565b91506001016109a4565b509392505050565b60008183106109fe576000828152602084905260409020610a0d565b60008381526020839052604090205b9392505050565b80356001600160a01b0381168114610a2b57600080fd5b919050565b600060208284031215610a4257600080fd5b610a0d82610a14565b600080600080600060808688031215610a6357600080fd5b610a6c86610a14565b94506020860135935060408601359250606086013567ffffffffffffffff80821115610a9757600080fd5b818801915088601f830112610aab57600080fd5b813581811115610aba57600080fd5b8960208260051b8501011115610acf57600080fd5b9699959850939650602001949392505050565b60006020808352835180602085015260005b81811015610b1057858101830151858201604001528201610af4565b506000604082860101526040601f19601f8301168501019250505092915050565b634e487b7160e01b600052604160045260246000fd5b600082601f830112610b5857600080fd5b8135602067ffffffffffffffff80831115610b7557610b75610b31565b8260051b604051601f19603f83011681018181108482111715610b9a57610b9a610b31565b6040529384526020818701810194908101925087851115610bba57600080fd5b6020870191505b84821015610be157610bd282610a14565b83529183019190830190610bc1565b979650505050505050565b600060208284031215610bfe57600080fd5b813567ffffffffffffffff811115610c1557600080fd5b610c2184828501610b47565b949350505050565b60008060408385031215610c3c57600080fd5b823567ffffffffffffffff80821115610c5457600080fd5b610c6086838701610b47565b93506020850135915080821115610c7657600080fd5b50610c8385828601610b47565b9150509250929050565b600060208284031215610c9f57600080fd5b5035919050565b6020808252600990820152683737ba1037bbb732b960b91b604082015260600190565b6020808252600b908201526a1b9bdd081cdd185c9d195960aa1b604082015260600190565b6020808252600f908201526e1b995959081b9bc818db185a5b5959608a1b604082015260600190565b60609390931b6bffffffffffffffffffffffff191683526014830191909152603482015260540190565b6001600160a01b0394851681529290931660208301526040820152606081019190915260800190565b600060208284031215610d7c57600080fd5b81518015158114610a0d57600080fd5b600181811c90821680610da057607f821691505b602082108103610dc057634e487b7160e01b600052602260045260246000fd5b50919050565b634e487b7160e01b600052603260045260246000fd5b6020808252600690820152650726f6f7420360d41b60408201526060019056fea26469706673582212207106989a8fb2e5e1352e213d11c86f963f0646d6c80a84f6307701cd4163fdab64736f6c63430008180033",
  "linkReferences": {},
  "deployedLinkReferences": {}
}